:100000000C9441040C9469040C9469040C946904E4
:100010000C9469040C9469040C9469040C946904AC
:100020000C9469040C9469040C94BC1C0C94351B4E
:100030000C9469040C9469040C9469040C9469048C
:100040000C94CC190C9469040C9469040C94690404
:100050000C9469040C9469040C9469040C9469046C
:100060000C94161A0C9469042020202000202000F3
:100070004C4F434F5F4639313220004C4F434F5F66
:10008000534E4420004C4F434F5F4449524620009A
:100090004C4F434F5F53504420004C4F434F5F4100
:1000A0004452200053575F5354415445200052514D
:1000B0005F534C5F4441544120004D4F56455F53C0
:1000C0004C4F5420004C41434B2000494E50555456
:1000D0005F524550200053575F5245502000535700
:1000E0005F524551200049444C450047504F4E0057
:1000F00047504F4646004255535900583C203A005D
:10010000203C203A00203E583A00203E203A00AEE3
:100110002000B0C8001040813FA1A6A83FA4D30191
:10012000D5F0D922DA12DB208D1453746174757303
:100130003F00496E626574726965626E61686D65E3
:100140003F0042656F6261636874656E3F0053747F
:10015000657565726E3F004C4E2D4D6F6E69746F04
:10016000723F0053562D456469746F723F004D6FA6
:1001700064756C2D41647265737365004D6F6475B1
:100180006C2D416472657373656E3F004D6F6475CD
:100190006C2D53756241647265737365003F3F3F18
:1001A000004164723A00506F72743A004E65756592
:1001B0002041647265737365004C6F636F494F2D06
:1001C000496E69743F004B6F6D6D756E696B61743C
:1001D000696F6E736665686C657221007769726419
:1001E00020676573656E6465742E2E2E004C6F63F8
:1001F0006F494F2D496E69743F00506F72742D41E5
:100200006472657373650054656C656772616D6DCA
:100210002D4172740043563F004932432D536361B0
:100220006E3F003078002056006665727469670082
:1002300056657273696F6E20004C6F636F494F2D66
:1002400053562D456469746F72003F3F3F00436F02
:100250006E66696720310053572D49440056657218
:1002600073696F6E006E6F742075736564006E6FD6
:10027000742075736564006E6F7420757365640017
:1002800044656C6179204230004F776E49440044E8
:100290006576696365494400726F0050756C73320E
:1002A000204861726452657365740050756C7332D6
:1002B00020536F667452657365740050756C7331AA
:1002C000204861726452657365740050756C7331B7
:1002D00020536F66745265736574004669782E6F9B
:1002E000757432206F6620626C34004669782E6F18
:1002F000757432206F6620202034004669782E6F96
:10030000757432206F6620626C20004669782E6F0B
:10031000757432206F6620202020004669782E6F89
:10032000757432206F6E20626C34004669782E6FCF
:10033000757432206F6E20202034004669782E6F4D
:10034000757432206F6E20626C20004669782E6FC3
:10035000757432206F6E20202020004669782E6F41
:10036000757431206F6620626C34004669782E6F98
:10037000757431206F6620202034004669782E6F16
:10038000757431206F6620626C20004669782E6F8C
:10039000757431206F6620202020004669782E6F0A
:1003A000757431206F6E20626C34004669782E6F50
:1003B000757431206F6E20202034004669782E6FCE
:1003C000757431206F6E20626C20004669782E6F44
:1003D000757431206F6E20202020004F7574707569
:1003E00074206F636375702E626C004F7574707546
:1003F00074206F636375702E202000436F6E74321B
:100400002E506E742E466565646200436F6E7431C3
:100410002E506E742E46656564620053776974636E
:1004200068506E742E46656564620050757368424C
:10043000746E2E68696720696E6400507573684237
:10044000746E2E6869672020202000507573684202
:10045000746E2E6C6F7720696E64005075736842FD
:10046000746E2E6C6F772020202000546F67676CAD
:100470006520537769742E696E6400546F67676CEA
:100480006520537769742E20202000426C636B44F2
:1004900065742E6869672064656C00426C636B4408
:1004A00065742E6869672020202000426C636B44CD
:1004B00065742E6C6F772064656C00426C636B44CE
:1004C00065742E6C6F7720202020003F3F3F002076
:1004D0006F6E2000206F6666002042004C4E2D4D4E
:1004E0006F6E69746F720000000000000000000071
:1004F0002F000000000700070000147F147F140085
:10050000242A7F2A120062640813230036495522E8
:100510005000000503000000001C224100000041C3
:10052000221C000014083E08140008083E080800B9
:100530000000A060000008080808080000606000D3
:1005400000002010080402003E5149453E000042D0
:100550007F4000004261514946002141454B310036
:100560001814127F10002745454539003C4A494977
:100570003000017109050300364949493600064932
:1005800049291E00003636000000005636000000E3
:100590000814224100001414141414000041221401
:1005A0000800020151090600324959513E007C12EF
:1005B00011127C007F49494936003E4141412200E9
:1005C0007F4141221C007F49494941007F090909B7
:1005D00001003E4149497A007F0808087F00004138
:1005E0007F4100002040413F01007F08142241006C
:1005F0007F40404040007F020C027F007F040810D3
:100600007F003E4141413E007F09090906003E410D
:1006100051215E007F0919294600464949493100A8
:1006200001017F0101003F4040403F001F2040206A
:100630001F003F4038403F00631408146300070860
:1006400070080700615149454300007F41410000A7
:10065000552A552A55000041417F0000040201023D
:1006600004004040404040000001020400002054CB
:10067000545478007F4844443800384444442000AF
:10068000384444487F00385454541800087E090107
:10069000020018A4A4A47C007F080404780000448D
:1006A0007D4000004080847D00007F1028440000D1
:1006B00000417F4000007C04180478007C0804049A
:1006C0007800384444443800FC24242418001824BA
:1006D0002418FC007C0804040800485454542000EA
:1006E000043F444020003C4040207C001C2040202F
:1006F0001C003C4030403C004428102844001CA012
:10070000A0A07C004464544C4400000877410000E1
:10071000000063000000004177080000080408089A
:1007200004003A4040207A003D4040403D002154C2
:10073000545479007D1211127D003944444439002B
:100740003D4242423D000205020000007E01495543
:1007500073007C1010081C000101010101FC5FDC2A
:1007600060E461C462F663D664B065DF66B567AF06
:1007700068FFFF53746F6572756E67004162667241
:10078000616765206C6165756674004E657565729C
:1007900020547970002D3E2073706569636865721E
:1007A0006E3F00616E67657363686C6F7373656E2F
:1007B0003F006E75722065696E204C6F636F494F04
:1007C000004C6F636F494F2D496E69743A00776929
:1007D000726420696E697469616C697369657274A9
:1007E0002E2E2E006175730065696E00417573676A
:1007F000616E6773737461747573005461737461AF
:100800007475722D54657374004374726C00617555
:10081000730065696E006661696C65640073746F6E
:100820007265640000000000240027002A00000018
:100830000000250028002B000000000023002600F7
:100840002900040404040404040402020202020253
:100850000303030303030102040810204080010284
:100860000408102001020408102000000008000203
:100870000100000304070000000000000000AE1F9C
:10088000303011241FBECFEFD8E0DEBFCDBF26E051
:10089000AAE1B2E001C01D92A936B207E1F712E069
:1008A000A0E0B1E0E4E4F6E602C005900D92AA31C2
:1008B000B107D9F714E0C0E4D4E004C02197FE01E9
:1008C0000E94FC30CF33D107C9F70E94B1200C94AD
:1008D00015330C9400008091B2049091B3040097FA
:1008E00039F481E090E09093B3048093B2040895CA
:1008F0004197E8F380E190E0F6CF833081F028F46F
:10090000813099F08230A9F008958730A9F08830BD
:10091000C9F08430B1F4809180008F7D03C0809154
:1009200080008F7780938000089584B58F7784BD91
:10093000089584B58F7DFBCF8091B0008F77809331
:10094000B00008958091B0008F7DF9CFCF93DF93F1
:10095000EFE6F8E08491EBE5F8E0D491E7E4F8E025
:10096000C491CC23A1F081110E947D04EC2FF0E012
:10097000EE0FFF1FE85CF74FA591B491EC91ED23CA
:1009800081E090E009F480E0DF91CF91089580E06C
:1009900090E0FACF1F93CF93DF93282F30E0F90137
:1009A000E659F74F8491F901EA5AF74FD491F901CA
:1009B000EE5BF74FC491CC23A9F0162F81110E9452
:1009C0007D04EC2FF0E0EE0FFF1FE25DF74FA591E5
:1009D000B4918FB7F894EC91111108C0D095DE2333
:1009E000DC938FBFDF91CF911F910895DE2BF8CF5D
:1009F000CF93DF9390E0FC01EA5AF74F24918E5B8E
:100A0000974FFC0184918823D1F090E0880F991FC3
:100A1000FC01EC5DF74FA591B491FC01E25DF74F4D
:100A2000C591D491623071F49FB7F8943C91822FB4
:100A3000809583238C93E8812E2B28839FBFDF91A1
:100A4000CF9108958FB7F894EC912E2B2C938FBFF4
:100A5000F6CF3FB7F8948091AD049091AE04A09189
:100A6000AF04B091B00426B5A89B05C02F3F19F084
:100A70000196A11DB11D3FBFBA2FA92F982F88271E
:100A8000BC01CD01620F711D811D911D42E0660FF9
:100A9000771F881F991F4A95D1F708952FB7F894AB
:100AA0006091A9047091AA048091AB049091AC0468
:100AB0002FBF0895AF92BF92CF92DF92EF92FF9235
:100AC0000F931F93CF93DF936C017B018B01040F76
:100AD000151FEB015E01AE18BF08C017D10759F012
:100AE0006991D601ED91FC910190F081E02DC60154
:100AF0000995892B79F7C501DF91CF911F910F914E
:100B0000FF90EF90DF90CF90BF90AF90089584E872
:100B10008093BC0080E491E02091BC0027FF03C0DB
:100B20008091BB0008950197B9F78091B10480616D
:100B30008093B10480E008958093BB0084E88093A3
:100B4000BC0080E491E02091BC0027FD089501974E
:100B5000D1F78091B10484608093B104089594EA40
:100B60009093BC0020E431E09091BC0097FF0CC052
:100B70008093BB0084E88093BC0080E491E02091E6
:100B8000BC0027FF0AC008952150310969F7809100
:100B9000B10481608093B1040895019781F7809139
:100BA000B1048260F7CF1F93CF93DF93EC01142F32
:100BB0004F83688785E090E09D838C838FEF662369
:100BC00049F081E0860F0E94AF050E94870594E9F5
:100BD0009093BC0090E08095909502C09595879584
:100BE0001A95E2F780FD0CC080E08E830E944E05CE
:100BF000688379838A839B83DF91CF911F910895C6
:100C000083E0F3CFEF92FF920F931F93CF93DF9385
:100C10007C018B0188E70E94AF0580E40E949C055F
:100C2000E7010E0D1F1DC017D10751F484E9809311
:100C3000BC00DF91CF911F910F91FF90EF9008952D
:100C400089910E949C05EFCFEF92FF920F931F9323
:100C5000CF93DF93182FE92E062F88E70E94AF0568
:100C600080E00E949C05F12EC12FDE2D89910E940B
:100C70009C058C2F8F198017C8F384E98093BC00E2
:100C8000DF91CF911F910F91FF90EF900895CF9337
:100C9000DF9300D000D01F92CDB7DEB7E5EFF2E0D2
:100CA000808361836055698391E29A8392E0980F13
:100CB0009F709B8390E0029624E0959587952A95F6
:100CC000E1F7805F8C838FE78D8365E0CE0101962D
:100CD0000E9424060F900F900F900F900F90DF91BD
:100CE000CF910895813820F4683010F40C944706B1
:100CF0000895982F990F890F880F0C9472060F93FF
:100D00001F93CF93DF93893009F459C0C82F8A30DD
:100D1000A0F5883009F43EC08091F5028A3708F0CA
:100D20007AC0C03208F477C0C052EEE5F7E0E49133
:100D3000CE1708F075C088E70E94AF0580E40E94D6
:100D40009C05F6E0CF9FE001112410E000E0C951BE
:100D5000DB4FFE01E00FF11F84910E949C050F5FA5
:100D60001F4F06301105A9F784E98093BC008091DC
:100D7000F5028A5F8093F5024EC08A3051F160918E
:100D8000F60280E0CD3041F6DF91CF911F910F91B7
:100D90000C9472068091F5026091F60281500E94D7
:100DA000790680E20E947F068091F5026091F6024A
:100DB0008150DF91CF911F910F910C947906809112
:100DC000F5026091F6028D3010F48C5FF2CF8EE761
:100DD000DBCF6091F6026730F0F46F5F8091F5022F
:100DE000E8CF9F5F292F30E0220F331FA901425A1D
:100DF000584FFA0184918F3F71F0F901E35AF84F8F
:100E0000E491E052FF0BEC17FD0759F7FA01C4918A
:100E1000CF3F09F090CFDF91CF911F910F910895AF
:100E200090E0D0E0DFCF1F93CF93DF93182FEC013A
:100E30009C2F911BFE0184912196882319F00E941A
:100E40007F06F6CF892F90E0DF91CF911F91089513
:100E5000EF92FF920F931F93CF93DF9300D000D0B8
:100E60001F92CDB7DEB7E82E062FF72E962FE62F6E
:100E7000F72F1E2F191B849131968111FACF6E2DF9
:100E80000E9472062AEF2103C001112480589F4F4F
:100E900097FD01969595879521E22A832FE72D836B
:100EA00020EB2E0D298322E0280F2F702B8399270A
:100EB000029634E0959587953A95E1F78F70805FBB
:100EC0008C8365E0CE0101960E942406802F9F2D21
:100ED0000E9413070F900F900F900F900F90DF91CB
:100EE000CF911F910F91FF90EF900895CF92DF92D5
:100EF000EF92FF920F931F93CF93DF93CDB7DEB79F
:100F0000A1970FB6F894DEBF0FBECDBF282F30E0FB
:100F100050E040E019A28E010F5D1F4F6B01770F6B
:100F2000EE08FF08CA01B901A70196010E94DA3054
:100F3000605DF80162938F0121153105410551056E
:100F400061F4D02E78019E2D9D19F70181917F01CA
:100F5000882341F00E947F06F6CFEC17FD0711F7BA
:100F60008E01EFCF892F90E0A1960FB6F894DEBFE7
:100F70000FBECDBFDF91CF911F910F91FF90EF90EA
:100F8000DF90CF900895CF92DF92EF92FF920F9370
:100F90001F93CF93DF93CDB7DEB7A1970FB6F89429
:100FA000DEBF0FBECDBF6B01BC0190E080E019A297
:100FB0008E010F5D1F4F0D2C000CEE08FF08A701DE
:100FC00096010E94DA30E62FCA01B901EA30A4F492
:100FD000E05DD801EE938D01232B242B252B71F49A
:100FE000D02E78019E2D9D19F70181917F018823D4
:100FF00051F00E947F06F6CFE95CEBCFAC17BD073E
:10100000F1F68E01EDCF892F90E0A1960FB6F894FE
:10101000DEBF0FBECDBFDF91CF911F910F91FF902B
:10102000EF90DF90CF9008951092B90088E48093FC
:10103000B80084E08093BC000895809325060E9448
:10104000140888E70E94AF058091B104882311F04D
:1010500090E0089580912506882361F00E9414088D
:10106000809125060E94AF058091B10490E0982FF1
:101070008827089590E080E0089590E080E008954A
:1010800008952091D002260F3327331F21323105D6
:10109000ECF42091A005FC0190E080E0243069F0A0
:1010A00082E00895A091D0022191AC0142555D4F9C
:1010B000A40FB52FB11D2C930196861798F380913C
:1010C000D002680F6093D00280E0089581E0089517
:1010D0001092A00581E080939F0510927A0561E04F
:1010E00082E10E94CA0461E083E10E94CA04E9EB44
:1010F000F0E080818E7F808380818D7F808388E493
:101100008093B80085E48093BC000895CF93DF936B
:1011100091E09093AD028823B9F0C091B800D091CE
:10112000BA008091BC008A7B8093BC0060E082E1C1
:101130000E94CA0460E083E10E94CA040E94680819
:10114000D093BA00C093B800DF91CF9108958F92E9
:101150009F92AF92BF92CF92DF92EF92FF920F9346
:101160001F93CF93DF93D091C905D13208F0D7C038
:10117000182FC091C8050E9429056B017C01809140
:10118000A00581116BC082E08093A00510939F059C
:101190008FEF80939E0510929D05D0939C05A8EA41
:1011A000B5E0ECE7F5E080E0D81391C010927B0544
:1011B00080917B05CC0FC82BC0937B0580917A056D
:1011C000813009F088C010927A050E9429056B01D0
:1011D0007C0180917B058093BB008091A20590915A
:1011E000A305A091A405B091A505892B8A2B8B2B73
:1011F000A1F00E9429050091A2051091A30520915C
:10120000A4053091A5056C197D098E099F09061763
:1012100017072807390708F442C08091BC0083FDF6
:10122000D8CF85EC8093BC000E9429056B017C011E
:101230008091A005823009F450C080919E058F3FB7
:1012400009F46FC080919E05803209F46CC08091D2
:101250009E05803309F469C084E026C08091A20510
:101260009091A305A091A405B091A505892B8A2B87
:101270008B2B09F484CF0E9429058090A2059090C1
:10128000A305A090A405B090A5056C197D098E0951
:101290009F0986169706A806B90608F070CF8091B8
:1012A000A1050E94860885E01092A7051092C90545
:1012B0001092A605DF91CF911F910F91FF90EF90B3
:1012C000DF90CF90BF90AF909F908F9008959D91A9
:1012D00091938F5F69CF85EEA5CF8091A205909104
:1012E000A305A091A405B091A505892B8A2B8B2B72
:1012F00009F49ECF0E9429050091A2051091A30533
:101300002091A4053091A5056C197D098E099F09CE
:10131000061717072807390708F08ACFC0CF81E0E2
:10132000C3CF80E0C1CF82E0BFCF83E0BDCF0895BF
:1013300008950895E091530580915205E81730F41F
:10134000F0E0EC5AFA4F808190E008958FEF9FEF24
:10135000089590915305809152052FEF3FEF981714
:1013600048F4E92FF0E0EC5AFA4F208130E09F5F1B
:1013700090935305C90108958091520590915305AA
:10138000891B990B0895CF92DF92EF92FF920F93F2
:101390001F93CF93DF937C01CB018A012091A60597
:1013A000222389F0EB016B01C40ED51ECC15DD059F
:1013B00069F06991D701ED91FC910190F081E02DE8
:1013C000C7010995F3CF642F0E944108C801DF913E
:1013D000CF911F910F91FF90EF90DF90CF900895E4
:1013E000CF93DF931F92CDB7DEB769832091A60517
:1013F0002223F9F02091C905203258F021E030E095
:10140000FC013383228390E080E00F90DF91CF9145
:1014100008958091A705E82FF0E0E855FA4F9981EB
:1014200090838F5F8093A7058093C90581E090E04A
:10143000ECCF61E0CE0101960E944108F7CF6093A6
:1014400078057093790591E09093A6058093C8057F
:101450001092A7051092C9058AEC95E00E94F00948
:1014600081E00C94A70890E080E008959C01DC01E5
:10147000A058BF4FEC9191E09E0F9C93E20FF32F89
:10148000F11D608397FD1C920895FC018081807698
:10149000803611F4818108958081829586708E5FF7
:1014A0000895CF92DF92EF92FF920F931F93CF9305
:1014B000DF93EC0109E11EE2EE24E394F12C93E0CA
:1014C000D92ECC24C394CE010E94450A8093C20435
:1014D000E091C204E1501092C1048FEF9091C104D9
:1014E0009E1768F4A091C104AC0FBD2FB11D9C9153
:1014F00089279091C1049F5F9093C104EFCFEC0FB7
:10150000FD2FF11D8083F8948091C004813059F43F
:101510008091BF04811738F01092C00480916F0051
:101520008D7F80936F0078948091C004813031F476
:101530008091BF04843138F2C12CC5CF8091C004A2
:1015400081110EC0F89480916F008F7D80936F00A1
:10155000B59B09C080916F00806280936F00789482
:10156000C110B1CF56C0E091BD04F091BE0480819E
:101570009091BC04970101C0220F9A95EAF7822B43
:10158000808380918400909185008A5A9C4F90932B
:10159000BB048093BA048091BA049091BB049093E9
:1015A0008900809388007894D093B904C093B804DC
:1015B0001092C1041092B70488818093B604D0922F
:1015C000C0041092BF04B19A80916F008260809332
:1015D0006F008091C0048330E1F38091B7048823C9
:1015E000B1F0E091B404F091B504E757FF4F80816A
:1015F000918101969183808383E090E0DF91CF9188
:101600001F910F91FF90EF90DF90CF900895809100
:10161000C0041B3108F01150015009F052CF8091E5
:101620004E0590914F05019690934F0580934E057E
:1016300086E090E0E3CF89E292E00C941307CF9329
:10164000DF93EC01643071F4C83E83E0D80760F4A6
:1016500080E30E947F06C436D10530F480E30E9407
:101660007F0602C06230B9F7CA30D10518F480E3B2
:101670000E947F066AE070E0CE01DF91CF910C946A
:10168000C3070F931F93CF93DF93CDB7DEB7C65435
:10169000D1090FB6F894DEBF0FBECDBF062F682F5D
:1016A00080E00E94720680911203882319F08EE375
:1016B0000E947F068BEC94E0033208F0A3C010E098
:1016C00062E0C8010E941F0B80E20E947F068BEB44
:1016D00094E09A8389838BEA94E09C838B838BE9E3
:1016E00094E09E838D838BE894E098878F838BE7CB
:1016F00094E09A8789878BE694E09C878B878BE5BB
:1017000094E09E878D878BE494E0988B8F878BE3A2
:1017100094E09A8B898B8BE294E09C8B8B8B8BE192
:1017200094E09E8B8D8B8BE094E0988F8F8B8BEF6A
:1017300093E09A8F898F8BEE93E09C8F8B8F8BED4C
:1017400093E09E8F8D8F8BEC93E098A38F8F8BEB24
:1017500093E09AA389A38BEA93E09CA38BA38BE9E4
:1017600093E09EA38DA38BE893E098A78FA38BE7CC
:1017700093E09AA789A78BE693E09CA78BA78BE5BC
:1017800093E09EA78DA78BE493E098AB8FA78BE3A4
:1017900093E09AAB89AB8BE293E09CAB8BAB8BE194
:1017A00093E09EAB8DAB8BE093E098AF8FAB8BEF6C
:1017B00092E09AAF89AF8BEE92E09CAF8BAF8BED4E
:1017C00092E09EAF8DAF8BEC92E021969FAF8EAFF3
:1017D00021978BEB92E023969FAF8EAF23978BEAF6
:1017E00092E025969FAF8EAF25978BE992E02796E2
:1017F0009FAF8EAF2797000F111FFE01E00FF11F63
:1018000081819281CA5BDF4F0FB6F894DEBF0FBEB5
:10181000CDBFDF91CF911F910F910C941307CF9300
:10182000DF93D62FC42F63E090E00E941F0B8FE25E
:101830000E947F0663E08D2F90E00E941F0B86E2DE
:1018400092E00E94130763E08C2F90E0DF91CF912C
:101850000C941F0BCF93C82F87FD21C080E30E94FB
:101860007F06C034E0F480E30E947F06C032B8F403
:1018700080E30E947F06C03190F480E30E947F06DF
:10188000C83068F480E30E947F06C43040F480E3EF
:101890000E947F06C23018F480E30E947F0662E057
:1018A00070E08C2FCF910C947607811108C01092B4
:1018B00016031092150360E089E00C94CA0490E0CE
:1018C0009093160380931503F6CFCF93DF93EC012B
:1018D0008091A504803401F56623F1F081E08093C6
:1018E000000390919E04E92FF0E09F01220F331F27
:1018F000D901AE0FBF1FA25EBC4FCD93DC93411147
:1019000040E1E20FF31FE25EFC4F428381E0890F6A
:1019100087FD05C080939E04DF91CF9108951092BA
:101920009E04FACF462F60E10C94650CE091A6046A
:10193000F091A704828520E1829FC0011124807864
:1019400096859F77892B08958093A5040E944E0564
:1019500060931703709318038093190390931A03ED
:101960000895CF9310925305109252051092A70537
:101970001092C9050E94680887E999E09093CF0208
:101980008093CE0288E999E09093D3028093D202AB
:1019900089E380931501C1E0C093A6058093C80533
:1019A00081E00E94A708811106C08091010388236D
:1019B000B9F081E011C081E280931501C093A605C2
:1019C0008093C8051092A7051092C90581E00E9476
:1019D000A708882351F380E080930103CF910895F5
:1019E0008091150190E09093D7058093D6056FEF15
:1019F00070E00E941F0A1092770510927605D9CFE9
:101A00004F925F926F927F92BF92CF92DF92EF924E
:101A1000FF920F931F93CF93DF93E0917605F091A0
:101A20007705EE0FFF1FEE50FE4F608171818091B0
:101A3000D6059091D7050E941F0A9AEEE92E91E0F3
:101A4000F92E10E000E0D1E0DD24DA9425EEC22E7C
:101A500035ECB32EC091D6050E9429052B013C011F
:101A60008091A005811161C0D093A005D0939F05FE
:101A7000D0929E0510929D0510929C05D0937B05F7
:101A800080917B05CC0FC82BC0937B0580917A0594
:101A9000813009F09EC010927A050E9429052B0121
:101AA0003C0180917B058093BB008091A2059091C1
:101AB000A305A091A405B091A505892B8A2B8B2B9A
:101AC000A1F00E9429052091A2053091A305409123
:101AD000A4055091A505641975098609970926176B
:101AE00037074807590708F441C08091BC0083FDBF
:101AF000D8CFB092BC000E9429052B013C018091F7
:101B0000A005813009F468C080919D05811186C0CF
:101B100080919D05ACE7B5E0E4E5F5E090E098172D
:101B200051F12D9121939F5FFACF8091A205909161
:101B3000A305A091A405B091A505892B8A2B8B2B19
:101B400009F48ECF0E9429052091A2053091A305AA
:101B50004091A4055091A505641975098609970956
:101B6000261737074807590708F07ACF8091A10553
:101B70000E94860880E010925305809352058AECFB
:101B800095E00E94A909F701419151917F012091AF
:101B9000780530917905822793278417950709F0F6
:101BA0003FC0809176059091770525E0289FF00150
:101BB000299FF00D1124EA52FE4FE00FF11F8081A2
:101BC000082E000C990B909375058093740580E0A6
:101BD00037C0C092BC008FCF8091A2059091A30521
:101BE000A091A405B091A505892B8A2B8B2B09F414
:101BF00086CF0E9429052091A2053091A30540912E
:101C0000A4055091A5056419750986099709261739
:101C100037074807590708F072CFA8CF81E07ACF7D
:101C20000F5F1F4F0430110509F014CF8091740528
:101C300090917505009791F01092750510927405BA
:101C4000DF91CF911F910F91FF90EF90DF90CF9098
:101C5000BF907F906F905F904F9008956FEF70E00E
:101C60008091D6059091D7050E941F0A8091760534
:101C70009091770501968430910529F0909377052E
:101C800080937605A4CF10927705109276059FCFAA
:101C9000EF92FF921F93CF93DF93CDB7DEB7C0587B
:101CA000D1090FB6F894DEBF0FBECDBFCE010196AD
:101CB0007C0180E8F70111928A95E9F710E0612F25
:101CC00080E00E94720660E870E0C7010E94020690
:101CD0001F5F1830A1F760E080E00E944706C058FF
:101CE000DF4F0FB6F894DEBF0FBECDBFDF91CF91AF
:101CF0001F91FF90EF9008951F93CF93DF930E9461
:101D0000480E60E080E00E94470688E70E94AF0529
:101D100080E40E949C058FEF0E949C05CEE781E045
:101D20000E949C05C150D9F78FEF0E949C0584E961
:101D30008093BC00C1E014E96C2F80E00E94720621
:101D400088E70E94AF0580E40E949C058FEF0E9407
:101D50009C051093BC006C2F88E70E94720688E7F0
:101D60000E94AF0580E40E949C05D7E080E00E94BD
:101D70009C05D150D9F78FEF0E949C051093BC00B1
:101D8000CF5FC730C9F667E080E00E94470688E76A
:101D90000E94AF0580E40E949C058FEF0E949C0585
:101DA000CEE780E80E949C05C150D9F78FEF0E94D2
:101DB0009C0584E98093BC0069E372E082E00E94A4
:101DC000280760E372E084E00E9428076AE070E080
:101DD00080910F0190911001DF91CF911F910C9490
:101DE000C307CF93DF930E94480E8091B204909175
:101DF000B30401969093B3048093B204D0E0C0E0A2
:101E00006C2F80E00E9472068091B2049091B3041E
:101E10008C0F9D1F80389105C8F420919E042817CF
:101E20001906A1F098F0FC01EE0FFF1FE80FF91F53
:101E3000E25EFC4F4281618180810E940F0C2196FD
:101E4000C830D105E9F6DF91CF910895DF91CF91A8
:101E50000C941B0B0E94480E60E080E00E94470635
:101E600069E372E080E00C9428071F93CF93DF931F
:101E7000CDB7DEB76C970FB6F894DEBF0FBECDBFFF
:101E800086E40E941D0810E0892B99F08EE50E94DF
:101E90001D0811E0892B69F080E0809314036C9693
:101EA0000FB6F894DEBF0FBECDBFDF91CF911F916B
:101EB00008958091140381119AC062E085E00E9428
:101EC000F804112319F08EE5809325060E9414086A
:101ED000EFE0F1E0DE0111969E01245E3F4FCD015F
:101EE00044914D9331962A173B07D1F72FEA2C8F57
:101EF0006CE10E9424060E94480E809125068823EA
:101F000009F44CC00E941408809125060E94AF0578
:101F10008FEF0E949C0584E98093BC0050E040E074
:101F2000609125068DED95E00E94D30541E050E0DB
:101F30006091250686EE95E00E94D30542E050E0D0
:101F4000609125068FEE95E00E94D30543E050E0B6
:101F50006091250688EF95E00E94D30544E050E0AB
:101F60006091250681E096E00E94D30545E050E0AF
:101F7000609125068AE096E00E94D30546E050E095
:101F80006091250683E196E00E94D30547E050E08A
:101F9000609125068CE196E00E94D30580911101A5
:101FA00090911201069711F40E947C0E1092130377
:101FB000109210031092B3041092B20410920F0307
:101FC00010920A0310920E0310920D0310920C034C
:101FD00010920B0381E0809302018FEF9FEF9093AB
:101FE000010180930001109211031092120381E00D
:101FF00054CFAF92BF92CF92DF92EF92FF920F93A6
:102000001F93CF93DF93CDB7DEB7D82EC62E142FF4
:10201000EDB6FEB6282F240F3327331F26313105A6
:102020003CF537E0361720F18D2D0E947906012FFF
:10203000000F010F000F10E08DB79EB7801B910BB2
:102040000FB6F8949EBF0FBE8DBF2DB73EB72F5F62
:102050003F4F5901A80170E060E0C9010E940733B9
:10206000B801C5010E9402066C2D8D2D0E947906D3
:102070000FB6F894FEBE0FBEEDBE0FB6F894FEBECE
:102080000FBEEDBEDF91CF911F910F91FF90EF90AA
:10209000DF90CF90BF90AF90089545E1682F80E02A
:1020A0000C94F90F84E00E944D1085E00E944D10C1
:1020B00086E00E944D1087E00C944D100F931F9303
:1020C000CF93C82F8B010E944D106C2F80E00E948F
:1020D0007206C801CF911F910F910C9413070E94B3
:1020E000521063E084E50E94470680E20E947F066A
:1020F00065E172E084E00E945E1088EC8093130337
:1021000008956CED71E087E00E945E1082E5809397
:10211000130308958091F8029091AB02911103C0CE
:10212000811103C0089581111AC08093AB02909170
:102130001303913551F4882319F087E00C944D1066
:1021400066EC71E087E00C945E109A3541F48823C8
:1021500011F085E0F3CF69EB71E085E0F4CF0895ED
:10216000CF93DF930E94521062E086E60E944706FA
:102170006AE070E080910D030E94760766EA71E0E4
:1021800083E00E945E108CE48093130320919F04EF
:102190005091A0047091A10410920A0310920C03B4
:1021A00010920B0330E0ECE1F1E040E08081781325
:1021B00062C0628180EF90E0613011F480ED90E0C8
:1021C00082239323A181A817190609F054C0C901DD
:1021D0009695982F882797958795807897705F7741
:1021E000852B662321F06130D1F1C0E008C0019653
:1021F00090930C0380930B0340930A03C1E08091FA
:10220000020190E09093B3048093B2040E946B04A7
:102210008091B20462E090E00E941F0B63E080E3D3
:102220000E94470681EA91E00E941307CC2349F1FE
:1022300064E080910B0390910C030E941F0B10929D
:10224000120360910A03C11101C06FEF84E00E9484
:10225000410B81E080931203DF91CF91089525FB1C
:10226000552750F9C52F20E0D22F2196880F991FAE
:102270008C0F9D1FBDCF4F5F3396433209F096CF31
:10228000B4CF8DE991E00E941307D9CF0E942A0FA5
:102290000E94521063E671E083E00E945E1086E4C3
:1022A000809313031092120308950E94521067E561
:1022B00071E083E00E945E1088E080931303109227
:1022C000120308950E9452106EE471E083E00E94B0
:1022D0005E1087E0809313031092120308950E940A
:1022E000521062E371E083E00E945E1082E080930E
:1022F000130308950E9452106AE271E083E00E9485
:102300005E1081E08093130308950F931F93CF9382
:10231000DF93EC0188819981009759F02A813B81F4
:102320002617370730F081E0DF91CF911F910F9191
:1023300008958B016F5F7F4F0E942732009759F0FD
:10234000998388831B830A832C813D81232B59F732
:10235000FC011082E8CF80E0E7CFEF92FF920F936D
:102360001F93CF93DF93EC017B01CB010E9446309A
:102370000097A9F00C811D81080F191FB801CE012B
:102380000E948511882361F0288139818C819D818B
:10239000B701820F931F0E943F301D830C8381E0A1
:1023A000DF91CF911F910F91FF90EF900895EF92E1
:1023B000FF920F931F93CF93DF936115710541F443
:1023C00080E0DF91CF911F910F91FF90EF900895E2
:1023D00041155105B1F07B01EC010C811D81040F09
:1023E000151FB8010E948511882351F32881398176
:1023F0008C819D81B701820F931F0E940E331D8334
:102400000C8381E0DECFFB014481558160817181C5
:102410000C94D711CF93DF93EC01888199810097B9
:1024200011F00E949E31198218821D821C821B822B
:102430001A82DF91CF910895EF92FF920F931F932D
:10244000CF93DF93EC018B01CB010E9446307C01DE
:10245000BC01CE010E94851181110BC0CE010E94EA
:102460000A12CE01DF91CF911F910F91FF90EF9053
:102470000895FD82EC82B801888199810E943F30E5
:10248000F0CFEF92FF920F931F93CF93DF93EC0166
:102490007B018A01BA010E94851181110BC0CE0116
:1024A0000E940A12CE01DF91CF911F910F91FF90F0
:1024B000EF9008951D830C83B701888199810E9454
:1024C0000E33F0CFFB0101900020E9F73197AF0107
:1024D000461B570B0C944112CF93DF93EC01FB0189
:1024E0008617970749F0608171816115710541F088
:1024F000448155810E944112CE01DF91CF91089510
:102500000E940A12F9CFCF93DF9380911A02909123
:102510001B02019690931B0280931A020897BCF04D
:102520008091620690916306892B59F08EE296E0C5
:10253000EC012696BE010E946C12CE01C855D64011
:10254000B9F787E090E090931B0280931A02DF9125
:10255000CF910895FC01118210821382128215829C
:102560001482FB0101900020E9F73197AF01461B6F
:10257000570B0C944112FC0180819181009711F05E
:102580000C949E310895CF92DF92EF92FF920F93B9
:102590001F93CF93DF93CDB7DEB72C970FB6F89488
:1025A000DEBF0FBECDBF0E94480E60E080E00E94FB
:1025B000470610E000E036E0F32EE02E602F80E0CA
:1025C0000E94720680911303843609F04AC08091FC
:1025D000B2049091B304800F911F109200038038D1
:1025E000910550F5FC01EE0FFF1FE80FF91FE25EA9
:1025F000FC4FC080D1800196C114D10409F487C07A
:10260000E28063E00E941F0B89ED94E00E941307B3
:102610008E2D8770805D0E947F0680E20E947F067B
:1026200064E0C6010E941F0B8FEC94E0E4FC02C042
:1026300084ED94E00E9413070F5F1F4F08301105CF
:1026400009F0BBCF2C960FB6F894DEBF0FBECDBFFE
:10265000DF91CF911F910F91FF90EF90DF90CF907E
:102660000895853649F727E0021302C010921B0334
:10267000F09EC001F19E900D1124FC01E25DF94F26
:102680006F0118861F821A8619861C861B86BF0159
:10269000CE0107960E946C12E1100DC08B859C85BF
:1026A000892B71F48CED94E00E941307CE010796FC
:1026B0000E94BB12C1CFF7E0EF1202C010921B03C1
:1026C0001A8219821C821B821E821D82B601CE01D3
:1026D00001960E946C12D12CC12C8D819E81C8164E
:1026E000D90680F489819A81009751F08C0D9D1D47
:1026F000FC0180810E947F06FFEFCF1ADF0AEDCF39
:1027000080E0F8CFCE0101960E94BB12CFCF63E0EC
:102710000E941F0B91CF85ED8093BC008091A20594
:102720009091A305A091A405B091A5050796A11DC0
:10273000B11D23E0B695A795979587952A95D1F772
:102740002091BC0024FD03C01092A0050895409183
:10275000A2055091A3056091A4057091A505452B94
:10276000462B472B69F30097A105B10541F02AE2FA
:102770002A95F1F700C00197A109B109E1CF809135
:10278000A1050C9486082F923F924F925F926F9210
:102790007F928F929F92AF92BF92CF92DF92EF92F1
:1027A000FF920F931F93CF93DF9300D000D0CDB74C
:1027B000DEB79C838B837C0141E8E40EF11C6C0145
:1027C00050E8C50ED11C8C010E571F4F8D579F4FDF
:1027D0002C018B819C818C579F4F4C0122242A9481
:1027E000AB80BC8097E8A90EB11CEB81FC81EB5754
:1027F000FF4FFA83E983F7018081F6019081891701
:1028000009F4BAC0EB81FC81E80FF11D308037FE7E
:102810006DC0F8019081891739F0F501208131816F
:102820002F5F3F4F31832083F8018083F2012082A4
:10283000832D8076F401803609F441C0832D829582
:1028400086708E5F8083F8012081F4018081820F81
:102850009927991F813891059CF180E8682E621AAA
:10286000F894F6014081F8018081841708F044C093
:10287000F42FF81B8F2FF60180837894F801608184
:102880004617E8F5712C50E06B817C81CB01860DF9
:10289000971D0E94F532F80160814B815C81460FE3
:1028A000511DBA01A3018B819C810E94F532F70171
:1028B0008081F8019081891BF7018083F8011082E3
:1028C000F70190819F5F9083F8018081392F381B39
:1028D00097FF02C0F7011082F2012081F40190817C
:1028E0009317A9F03226F201308285CFF40180815E
:1028F0008111E6CF3082A7CF862D840FBCCF461B37
:1029000050E08B819C81860F911DBC01CCCF32128F
:102910002AC04B815C81480F511DCA01E981FA81AF
:10292000408151814F5F5F4F51834083F701308178
:10293000F80130830097B1F20F900F900F900F9035
:10294000DF91CF911F910F91FF90EF90DF90CF908B
:10295000BF90AF909F908F907F906F905F904F90BF
:102960003F902F900895F501808191810196918388
:10297000808390E080E0DACF90E080E0DDCF6F925E
:102980007F928F929F92AF92BF92CF92DF92EF92FF
:10299000FF920F931F93CF93DF93E091A604F091E2
:1029A000A704D581D3709780868073806280A82E1B
:1029B000E894A7F887FD9AC0D061B62EE894B7F8DE
:1029C00067FDD860C42EE894C7F811E147FF10E115
:1029D000D22EE894D7F827FD1260F02EE894F7F88D
:1029E00007FD14600E2D0F77E7FC1860C92DC82570
:1029F00088E0C827C725C625C027CF25CD25CC25EB
:102A0000CB25CA25CD27C12765EE8CE192E00E9437
:102A1000360A60E18CE192E00E94360A662D8CE174
:102A200092E00E94360A672D8CE192E00E94360AFD
:102A300062E08CE192E00E94360A6D2F8CE192E018
:102A40000E94360A682D8CE192E00E94360A692DB8
:102A50008CE192E00E94360A6A2D8CE192E00E949D
:102A6000360A6B2D8CE192E00E94360A612F8CE1D0
:102A700092E00E94360A6C2D8CE192E00E94360AA8
:102A80006D2D8CE192E00E94360A6F2D8CE192E070
:102A90000E94360A602F8CE192E00E94360A6C2F69
:102AA0006F778CE192E00E94360A6FEF8CE192E042
:102AB0000E94360A8CE192E00E94C3139093A7040F
:102AC0008093A604009711F00E94510A81E0DF91E3
:102AD000CF911F910F91FF90EF90DF90CF90BF901B
:102AE000AF909F908F907F906F900895D46165CF45
:102AF000CF92DF92EF92FF920F931F93CF93DF93CA
:102B0000D82EF62EE42EC0900501122F12951870C3
:102B1000011175C002E0D22FDF77CBE0CC25CF25A5
:102B2000CE25CD25CD27C127C02765EE8CE192E0CB
:102B30000E94360A60E18CE192E00E94360A6C2D18
:102B40008CE192E00E94360A6D2D8CE192E00E94A9
:102B5000360A61E08CE192E00E94360A612F8CE136
:102B600092E00E94360A602F8CE192E00E94360AC1
:102B70006E2D8CE192E00E94360A60E08CE192E0DA
:102B80000E94360A6D2F8CE192E00E94360A60E0C6
:102B90008CE192E00E94360A6F2D8CE192E00E9457
:102BA000360A60E08CE192E00E94360A60E08CE137
:102BB00092E00E94360A60E08CE192E00E94360AC0
:102BC0006C2F6F778CE192E00E94360A6FEF8CE1F8
:102BD00092E00E94360A8CE192E00E94C313909327
:102BE000A7048093A604009761F0DF91CF911F9115
:102BF0000F91FF90EF90DF90CF900C94510A01E07D
:102C00008ACFDF91CF911F910F91FF90EF90DF90CE
:102C1000CF9008950F931F93CF93DF93C82FD62F94
:102C2000142F61E089E00E94CA04109216031092EA
:102C3000150388E00E94A40CC093A404D093A304BD
:102C4000412F440F410F4093A20400E020E06D2F7C
:102C50008C2F0E947815DF91CF911F910F910895CD
:102C60000F931F93CF93DF93E82FF0E099E0899FB4
:102C7000D0011124AB57BE4F15962D913C912617CC
:102C80003707C0F08B01C82FEE0FFF1FED5FFE4F1F
:102C900071836083CF5FCC0FD0E0612FCE010E94A3
:102CA0008130602FCE010196DF91CF911F910F915E
:102CB0000C948130DF91CF911F910F91089589304D
:102CC00010F40C9430160895CF93DF936DE490E0E8
:102CD00080E00E9481306AE581E090E00E948130CE
:102CE000C5E8D1E069817A8188810E945F162996C2
:102CF00081E0C63DD807B1F7DF91CF910895EF92FB
:102D0000FF920F931F93CF93DF93CDB7DEB7299731
:102D10000FB6F894DEBF0FBECDBF8C01862FF80131
:102D200011821082138212821582148240E1BE0148
:102D30006F5F7F4F90E00E944F30BE016F5F7F4F0B
:102D4000C8010E946212F801E080F180E114F104F0
:102D500071F0F70181917F01882349F0082E000C62
:102D6000990B0E94E432F70131978083F2CFF8018A
:102D7000848195810297F8F468E172E0CE010196B2
:102D80000E94AA12F8014481558160817181CE01AF
:102D900001960E94D711811104C0CE0101960E94B4
:102DA0000A12BE016F5F7F4FC8010E946C12CE01F4
:102DB00001960E94BB12C80129960FB6F894DEBF97
:102DC0000FBECDBFDF91CF911F910F91FF90EF907C
:102DD0000895CF92DF92FF920F931F93CF93DF93CB
:102DE00000D000D000D0CDB7DEB76C01FC0161810E
:102DF000CE0101960E947F1680911A0290911B02CB
:102E000026E0F22EF89E8001F99E100D1124025D3D
:102E1000194FBE016F5F7F4FC8010E940312CE01A0
:102E200001960E94BB1280E289831A8241E050E041
:102E3000BE016F5F7F4FC8010E94D711F60162810A
:102E4000CE0101960E947F1620911A0230911B023A
:102E5000F29EC001F39E900D1124BE016F5F7F4F63
:102E6000825D994F0E940312CE0101960E94BB120F
:102E700026960FB6F894DEBF0FBECDBFDF91CF917F
:102E80001F910F91FF90DF90CF900895DF92EF9206
:102E9000FF920F931F93CF93DF9300D000D000D009
:102EA000CDB7DEB78C01FC018281F0E88F9FB001C5
:102EB000112460787770F8019181692B90817B01F2
:102EC000FFEFEF1AFF0A923B49F4660F771F85FD6B
:102ED00070C081E090E07C01E60EF71E6F2DCE0100
:102EE00001960E947F1620911A0230911B0286E003
:102EF000D82ED29EC001D39E900D1124BE016F5FCB
:102F00007F4F825D994F0E940312CE0101960E946D
:102F1000BB126E2DCE0101960E947F1620911A02DF
:102F200030911B02D29EC001D39E900D11249C01B2
:102F3000225D394F7901BE016F5F7F4FC9010E9449
:102F40000312CE0101960E94BB1280E289831A828D
:102F500041E050E0BE016F5F7F4FC7010E94D71173
:102F6000F8016281607FCE0101960E947F16209158
:102F70001A0230911B02D29EC001D39E900D1124E3
:102F8000BE016F5F7F4F825D994F0E940312CE0199
:102F900001960E94BB1226960FB6F894DEBF0FBEB4
:102FA000CDBFDF91CF911F910F91FF90EF90DF90F8
:102FB000089582E090E08FCF8F929F92AF92BF9260
:102FC000CF92DF92EF92FF921F93CF93DF9300D0C7
:102FD00000D000D0CDB7DEB7182F4B01C42E0E9411
:102FE000831220911A0230911B02123009F48DC015
:102FF00078F41130D1F046E0429FC001439F900D1C
:10300000112469E172E0825D994F0E94621219C039
:10301000153009F471C0163071F7129FC001139F6B
:10302000900D11246BEF70E008C046E0429FC00194
:10303000439F900D11246AE071E0825D994F0E94D8
:103040001C12F4019081903B09F42CC108F08CC053
:10305000933809F40DC108F061C0913809F4D9C062
:10306000923809F4F8C09DE6A92E90E0B92E1123FC
:1030700021F088E6A82E80E0B82EF12CE12CD12C8E
:1030800016E0EC14FD040CF0D4C0E114F104A9F036
:10309000C70187709927892B81F40E9483122091A0
:1030A0001A0230911B02129FC001139F900D112430
:1030B000B501825D994F0E941C12F40161914F018C
:1030C000CE0101960E947F1620911A0230911B02B8
:1030D000129FC001139F900D1124BE016F5F7F4F9F
:1030E000825D994F0E940312CE0101960E94BB128D
:1030F000FFEFEF1AFF0AC5CF46E0429FC001439F92
:10310000900D112465E071E098CF46E0429FC00128
:10311000439F900D112460E071E08FCF953809F442
:10312000B4C008F4A0CF80E6890F843008F09BCFAC
:1031300040911A0250911B0286E0849F9001859F66
:10314000300D1124225D394F60E970E0903A51F062
:1031500065E870E0913A31F06BE770E0923A11F077
:1031600060E770E0C9011AC09A3B09F4C9C0E0F4F5
:10317000923B09F4B8C008F4A9C0943B09F073CF9E
:1031800020911A0230911B0246E0429FC001439FEA
:10319000900D112465EC70E0825D994F0E94AD1195
:1031A000C4010E94E91645C09C3B09F4E1C008F443
:1031B000B4C09F3B09F057CF20911A0230911B02F7
:1031C00016E0129FC001139F900D11246AE970E070
:1031D000825D994F0E94AD11F4016181CE0101968B
:1031E0000E947F1620911A0230911B02129FC0018B
:1031F000139F900D1124BE016F5F7F4F825D994F29
:103200000E940312CE0101960E94BB12F40162815A
:1032100096C020911A0230911B0246E0429FC001E5
:10322000439F900D112466EF70E0825D994F0E94DC
:10323000AD1126960FB6F894DEBF0FBECDBFDF915D
:10324000CF911F91FF90EF90DF90CF90BF90AF9004
:103250009F908F90089520911A0230911B0246E0B2
:10326000429FC001439F900D112460EF70E0DDCFBD
:1032700020911A0230911B0246E0429FC001439FF9
:10328000900D11246BEE70E0D0CF20911A02309196
:103290001B0246E0429FC001439F900D112466EE41
:1032A00070E0C3CF20911A0230911B0246E0429F8A
:1032B000C001439F900D11246EED70E0825D994F27
:1032C0000E94AD11C4010E944617B3CF20911A028B
:1032D00030911B0246E0429FC001439F900D112494
:1032E00066ED70E0EBCF20911A0230911B0246E0B0
:1032F000429FC001439F900D11246BEC70E0DECF24
:1033000020911A0230911B0246E0429FC001439F68
:10331000900D11246AEB70E03FCF20911A0230919A
:103320001B0216E0129FC001139F900D11246EEA3C
:1033300070E0825D994F0E94AD11F4016181CE0170
:1033400001960E947F1620911A0230911B02129F53
:10335000C001139F900D1124BE016F5F7F4F825DEE
:10336000994F0E940312CE0101960E94BB1261CFB9
:1033700020911A0230911B0246E0429FC001439FF8
:10338000900D112464EA70E0825D994F0E94AD11A6
:10339000C4010E94461710CF1F920F920FB60F92D2
:1033A00011242F933F938F939F93AF93BF9380915B
:1033B000A9049091AA04A091AB04B091AC043091FF
:1033C000A80423E0230F2D3758F50196A11DB11D48
:1033D0002093A8048093A9049093AA04A093AB041B
:1033E000B093AC048091AD049091AE04A091AF0471
:1033F000B091B0040196A11DB11D8093AD049093CE
:10340000AE04A093AF04B093B004BF91AF919F916D
:103410008F913F912F910F900FBE0F901F90189595
:1034200026E8230F0296A11DB11DD2CF1F920F9245
:103430000FB60F9211242F933F934F935F936F9387
:103440007F938F939F93AF93BF93EF93FF9380915D
:10345000B900887F803609F44AC0F0F5883209F453
:10346000A7C018F5803109F49BC0B8F4882309F48B
:10347000F9C0883009F494C0FF91EF91BF91AF91EA
:103480009F918F917F916F915F914F913F912F917C
:103490000F900FBE0F901F901895883109F488C0C7
:1034A000803251F780939E0514C0803409F49DC08A
:1034B00040F48033B9F38833F9F680939E0585ECA8
:1034C000B0C0803509F485C0883509F496C08834C9
:1034D00099F60E948B13D0CF883909F48CC038F547
:1034E000883729F050F4883611F0803729F683E0C8
:1034F0008093A0051092F40257C0883809F47BC06D
:10350000803919F0803809F0B7CF8091F402803209
:1035100008F071C0E091F40281E08E0F8093F40214
:103520008091BB00F0E0EC52FD4F80833DC0803BBA
:1035300039F0E0F4803A09F479C0883A09F09CCF78
:1035400084E08093A0051092D1021092D002E09105
:10355000CE02F091CF0209958091D00281110FC067
:1035600081E08093D0021092AE0209C0803C09F441
:10357000A6CF883C09F4A3CF883B09F07DCFE0912A
:10358000D10281E08E0F8093D102F0E0E255FD4F31
:1035900080818093BB009091D1028091D00229C09C
:1035A00080917B058093BB0085EC8093BC0064CF49
:1035B00090919D0580919C05981758F5E0919D0587
:1035C00081E08E0F80939D05F0E0E458FA4F8081F2
:1035D000E9CFE0919D0581E08E0F80939D0580915C
:1035E000BB00F0E0E458FA4F808390919D058091F4
:1035F0009C059817C8F285E8D8CFE0919D0581E039
:103600008E0F80939D058091BB00F0E0E458FA4F47
:10361000808380919F0581115CCF81E080937A0542
:1036200084EA8093BC001092A00526CF85EC80939D
:10363000BC001092A0058091F402803230F4E09139
:10364000F402F0E0EC52FD4F10826091F40270E061
:10365000E091D202F091D30284ED92E009951092AC
:10366000F4020ACF10929E0534CF1F920F920FB62C
:103670000F921124DF92EF92FF920F931F932F93DB
:103680003F934F935F936F937F938F939F93AF93EA
:10369000BF93CF93DF93EF93FF93B19A8091BA04D6
:1036A0009091BB0480549C4F9093BB048093BA04C8
:1036B0008091BA049091BB04909389008093880014
:1036C0008091AC02882371F01092AC02189B26C046
:1036D00081E08093C004B59A80916F0080628093EE
:1036E0006F001CC08091BF048F5F8093BF048091E6
:1036F000C004843009F043C08091BF04893030F5A4
:103700008091B60490E0959587958093B604189BB8
:1037100005C08091B60480688093B604FF91EF9154
:10372000DF91CF91BF91AF919F918F917F916F91D9
:103730005F914F913F912F911F910F91FF90EF90CB
:10374000DF900F900FBE0F901F901895B59A809143
:103750006F00806280936F008091B4049091B504F3
:10376000189929C0FC01E957FF4F8081918101968A
:10377000918380831092BF0481E08093C004809184
:10378000C0048330E9F5E091BD04F091BE0480816E
:103790002091BC0433B190E0022E02C0959587952C
:1037A0000A94E2F7832780FD11C01092BF0482E0E3
:1037B0008093C00425C06091B6040E94360A80E060
:1037C00090E0892BB9F20E940000D4CF8091BF0411
:1037D000893008F043C03091B60481E090E001C028
:1037E000880F2A95EAF7908130FF36C080958923AB
:1037F00080838091B60490E0959587958093B60478
:103800008091C004823099F48091BF0481118EC0F0
:10381000E091BD04F091BE0480819091BC0421E050
:1038200030E001C0220F9A95EAF7822B80838091C5
:10383000C004813009F072CF8091BF04882309F45D
:103840004ACF8091BF04883308F468CF1092C00437
:1038500080916F008D7F43CF892BCACF8091BF04A9
:10386000893059F4308181E090E001C0880F2A95B9
:10387000EAF7809583238083C3CF8091C1048F5F53
:103880008093C1049091C204891750F51092BF042F
:103890008091B8049091B904A091C104A80FB92FE8
:1038A000B11D8C918093B604808141E050E001C04D
:1038B000440F2A95EAF7842B8083809184009091AD
:1038C00085008A5A9C4F9093BB048093BA048091E0
:1038D000BA049091BB04909389008093880090CFA4
:1038E00081E08093B7040091B8041091B904E0908E
:1038F000B404F090B504C8010E94450AD82ED0E067
:10390000C0E0CD1548F4F801EC0FFD1F6081C70140
:103910000E94360A2196F5CF80E090E0892B11F0C5
:103920000E9400001092BF0481E042CF8091BF044A
:103930008F3008F47CCFE091BD04F091BE0420816B
:103940003091BC0481E090E001C0880F3A95EAF71D
:103950008095822380831092BF0481E08093C0040D
:10396000E091B404F091B504E357FF4F8081918159
:103970000196918380835BCF1F920F920FB60F92B7
:1039800011248F939F93EF93FF93B59AEFE6F0E0A6
:1039900080818F7D80838091860090918700805206
:1039A0009E4F9093BB048093BA048091BA04909187
:1039B000BB049093890080938800B19A80818260D3
:1039C000808384E08093C0041092BF0481E08093E0
:1039D000AC02FF91EF919F918F910F900FBE0F90CE
:1039E0001F901895CF93DF93CDB7DEB760970FB6D2
:1039F000F894DEBF0FBECDBF0197811528E0920776
:103A000008F03FC020E5240F2330D8F5413BF9F002
:103A1000423B59F19C01220F232F221F330B31957A
:103A20008F77611112C0206190EB99838A832B8379
:103A3000CE0101960E94510A60960FB6F894DEBF3F
:103A40000FBECDBFDF91CF9108952063EDCF9C01D4
:103A5000220F232F221F330B31958F77611103C063
:103A6000206191EBE2CF2063FCCF292FAC0156956A
:103A700047954F7780FD206282EB89834A832061DE
:103A8000D6CF85E090E0D8CFCF93DF93EB01682FBE
:103A900080E00E94720680911203882319F08EE361
:103AA0000E947F0664E0CE01DF91CF910C941F0B42
:103AB000CF93C62F682F80E00E9472068091120378
:103AC000882319F08EE30E947F0663E08C2F90E03C
:103AD000CF910C941F0B1F93CF93DF938091B2046F
:103AE0009091B30401969093B3048093B20465E07F
:103AF00080E00E9447068091B2049091B304C1E037
:103B00008038910588F0DF91CF911F910C941B0BA9
:103B10008091B2049091B30401969093B304809382
:103B2000B2048038910578F78091B204C093A6055D
:103B30008093C8051092A7051092C90581E00E94E4
:103B4000A708182F882311F0843011F783E292E040
:103B50000E941307C091B204D091B304DD27C03195
:103B6000D10518F480E30E947F0660E170E0CE0189
:103B70000E94C30780E2143009F48FE3DF91CF91F4
:103B80001F910C947F060E94521063E084E50E940E
:103B9000470680E20E947F0669E172E084E00E94AD
:103BA0005E1082ED80931303089585E00E944D100E
:103BB00086E00E944D1087E00E944D1064E08EE484
:103BC0000E94470664E080910803909109030E94D7
:103BD0001F0B67E072E085E00E945E108FE6809325
:103BE00013038091070390E09093B3048093B20491
:103BF00066E080E00E94470680911203882319F056
:103C00008EE30E947F0682E40E947F066AE070E0F5
:103C10008091B2049091B3040C94C30763E08AE2EC
:103C20000E94470680E20E947F060E9452106AEFBF
:103C300071E084E00E945E108EE68093130381E0C1
:103C40008093120360910803709109037093B30489
:103C50006093B20485E00C94441D0E94521062E00F
:103C600086E60E9447066AE070E080910D030E949C
:103C700076076DEE71E085E00E945E108AE5809324
:103C8000130310921203089586E00E944D1087E0FE
:103C90000E944D106CEA71E085E00E945E108DE498
:103CA0008093130380910B0390910C039093B304C2
:103CB0008093B20466E080E00E9447068091120380
:103CC000882319F08EE30E947F0664E08091B2049D
:103CD0009091B3040C941F0B83E00E944D100E943E
:103CE000521061E086E60E9447066AE070E080912B
:103CF0000E030E9476076CE871E082E00E945E107D
:103D00008BE48093130360910D03862F90E09093D2
:103D1000B3048093B20483E00C94581D0E945210A7
:103D20006CE771E083E00E945E1088E480931303E7
:103D300010921203089582E00E944D1083E00E94C9
:103D40004D100E9452106EE671E081E00E945E10FC
:103D500087E48093130381E08093120360910E0344
:103D6000862F90E09093B3048093B20482E00C9489
:103D7000581D0E94521062E471E083E00E945E10C0
:103D800086E08093130308950F931F93CF93DF93DF
:103D900091E090932606C8E2D6E0888309E216E017
:103DA00085E0F801808345E166E080E00E94F90F3C
:103DB000F80160816F5F88810E9479068FEA0E9416
:103DC0007F06F80160818881DF91CF911F910F916B
:103DD0000C947906FF920F931F93CF93DF93CDB787
:103DE000DEB762970FB6F894DEBF0FBECDBFF82ED8
:103DF00010922606609129066F5F45E180E00E94DF
:103E0000F90F64E08CE00E94470680E20E947F0682
:103E100064E082E10E944706009113031DEE100F3B
:103E20001A3018F480E20E947F066AE070E0812F69
:103E30000E94760704514FE064E086E00E94F90F8B
:103E400064E084E20E9447068FE892E09A838983C7
:103E500089E892E09C838B8380E892E09E838D8347
:103E600087E792E098878F838EE692E09A8789872A
:103E700085E692E09C878B878DE592E09E878D8713
:103E800087E592E0988B8F878EE492E09A8B898BFE
:103E90008AE492E0093040F4E02FF0E0EE0FFF1FDB
:103EA000EC0FFD1F818192810E94130785E00E9423
:103EB0004D1065E080E00E94470610911203112327
:103EC00019F08EE30E947F06093050F589E0089FC3
:103ED000F0011124EB57FE4F8781823009F58F2DB9
:103EE0000E942A0C111109C089E0089FF0011124D9
:103EF000EB57FE4F808581111CC0809111038823F0
:103F000009F180910F0362960FB6F894DEBF0FBEE1
:103F1000CDBFDF91CF911F910F91FF900C94C41EE4
:103F20006AE070E08F2D0E9476071111E6CF09300C
:103F3000D8F265E084E50E94470688E992E00E9495
:103F40001307DBCF62960FB6F894DEBF0FBECDBF6E
:103F5000DF91CF911F910F91FF9008950F931F93C1
:103F6000CF93DF931092CD051092CC0588EE93E0AD
:103F7000A0E0B0E08093CE059093CF05A093D0054C
:103F8000B093D1058EEF91E09093CB058093CA0555
:103F900086E080935E0680E880935F0688E08093E9
:103FA00060061092610610926206109263061092EB
:103FB000640661E086E00E94F8040E944E0560936A
:103FC0006106709362068093630690936406809105
:103FD000150190E09093D7058093D605CEE2D6E008
:103FE0000EE516E069E172E0CE010E94AA12269663
:103FF0000C171D07B9F71092DC051092DB0580E164
:1040000092E09093DA058093D9051092DD05109225
:10401000DE051092DF051092E0058AE090E09093B3
:10402000E2058093E1051092E3051092E4051092F9
:10403000E5051092E6051092E7051092E80510924A
:10404000E9059093EB058093EA051092EC05109238
:10405000ED051092EE051092EF051092F00510920A
:10406000F1051092F2059093F4058093F3051092F8
:10407000F5051092F6051092F7051092F8051092CA
:10408000F9051092FA051092FB059093FD058093B7
:10409000FC051092FE051092FF051092000610928A
:1040A00001061092020610920306109204069093E5
:1040B00006068093050610920706109208061092D5
:1040C000090610920A0610920B0610920C06109226
:1040D0000D0690930F0680930E0610921006109214
:1040E00011061092120610921306109214061092E6
:1040F00015061092160690931806809317061092D4
:10410000190610921A0610921B0610921C061092A5
:104110001D0610921E0610921F0690932106809392
:104120002006109222061092230610922406109266
:104130002506109226061092270610922A06109243
:104140002B0610922C0610922D0610922806109223
:1041500029068CE18093D805DF91CF911F910F91B3
:104160000895CF93DF9300D01F92CDB7DEB7789438
:1041700084B5826084BD84B5816084BD85B582606C
:1041800085BD85B5816085BD80916E00816080931D
:104190006E00109281008091810082608093810086
:1041A0008091810081608093810080918000816096
:1041B000809380008091B10084608093B1008091F1
:1041C000B00081608093B00080917A008460809319
:1041D0007A0080917A00826080937A0080917A00E0
:1041E000816080937A0080917A00806880937A0061
:1041F0001092C10023E031E03B832A8302E010E00B
:10420000C8010E947930F82EC80101960E947930C9
:104210002F2D30E0322F2227820F932F911DAA815C
:10422000BB818D939D93BB83AA830E5F1F4F043187
:10423000110531F780910F0190911001099728F431
:1042400069E070E086E00E94301680911101909143
:104250001201069711F00E9464160E94350F0E9409
:10426000B10C61E089E00E94F804E3ECF4E08FE82F
:10427000DF011D928A95E9F761E087E00E94F8046A
:10428000EDE5F8E02491E9E4F8E0E491F0E0EE0FE8
:10429000FF1FE25DF74F4591549180E091E031E0DE
:1042A000291741F08F5F932F082E01C0990F0A94B0
:1042B000EAF7F6CF5093BE044093BD048093BC044C
:1042C00083EC94E09093B5048093B4042098E0913B
:1042D000BD04F091BE0420813091BC0481E090E0E7
:1042E00001C0880F3A95EAF7809582238083109267
:1042F000800081E0809381001092C004B59A809183
:104300006F00806280936F0080918100887F816060
:104310008093810022242394312C88248A94982C21
:10432000AA24A394B12C612C58E0752E98E0492E54
:10433000512C0E944E050091610610916206209159
:10434000630630916406601B710B820B930B653121
:1043500071058105910508F460C00E944E056093C7
:104360006106709362068093630690936406B09131
:104370005F06B98380916006B13C20F081958093FF
:10438000600603C0E981E032C8F380916006F981DC
:10439000F80FF983F0935F0620915E062A8361E0AF
:1043A000822F0E94F8043981311105C060E08A81B2
:1043B0000E94CA0432C049814F3F11F461E0F7CF37
:1043C0005A81E52FF0E0E659F74FE491E33009F424
:1043D000C7C048F4E130E1F0E23009F4BBC04981E4
:1043E00047FDECCFE3CFE73009F4C7C0E83009F46C
:1043F000CDC0E430A1F7809180008062809380007E
:10440000F981EF2FF0E0F0938B00E0938A0005C074
:1044100084B5806884BD798177BD0E944E05009186
:10442000FB021091FC022091FD023091FE02601B04
:10443000710B820B930B6E3771058105910528F185
:104440000E944E056093FB027093FC028093FD0274
:104450009093FE029091FA0281E098279093FA02DD
:10446000992399F09091F90298279093F902992352
:1044700061F09091F80298279093F802992329F01F
:104480009091F70289278093F7020E94B10C0E9455
:10449000350F509114035983513009F480C080E0E6
:1044A0000E94A40C7091A5047983872F8F7B39F12A
:1044B0000E944E05009117031091180320911903D3
:1044C00030911A03601B710B820B930B6938734197
:1044D00081059105A0F0B981B03811F40C941C2C21
:1044E00080911503909116039B2B90931603809354
:1044F00015031092A50460E089E00E94CA0483ECD1
:1045000094E00E94C3139B838A839093A7048093B3
:10451000A604892B11F40C94672F80911C03882327
:1045200011F40C942B2C8A819B810E94450A482F00
:10453000EA81FB8180E0242F30E0BF01AA81BB81AA
:104540006A1B7B0B6217730714F00C94212C91915A
:104550008927F3CF84B5806284BD898188BD5DCF12
:1045600080918000806880938000B981AB2FB0E09B
:10457000B0938900A093880050CF8091B0008068EC
:104580008093B00029812093B30047CF8091B00081
:1045900080628093B00039813093B4003ECF0E9496
:1045A0004E0500912A0610912B0620912C06309181
:1045B0002D06601B710B820B930B653F71408105CB
:1045C000910580F00E944E0560932A0670932B0699
:1045D00080932C0690932D0680912706B981B827E9
:1045E000B0932706809125068823A1F18F5F0E9452
:1045F000AF050E94870594E99093BC00182F109591
:1046000000911303073441F14EE750E00B3409F4F5
:104610005CC00C3431F10D3409F44DC00E3609F490
:104620004FC0EFEFF0E0FB83EA8322E030E00F368B
:10463000A9F041E050E0003709F447C0073DA9F474
:1046400011112BC080911003882309F4D0C7109258
:10465000100328CF8FEFD2CF2FE730E03B832A83A0
:1046600004C080E190E09B838A83F0901203FF20D6
:1046700049F080911103811104C0FF24F3940E349A
:1046800009F4F12C809101038823D1F20E94000DDE
:104690008823B1F28332E1F4116080911003811715
:1046A00009F4A5C710931003011152C012FFFACEEE
:1046B0000E944611F7CEA0E0B8E0BB83AA83D5CF15
:1046C000E0E0F8E0FB83EA83D0CF5B834A83CDCF81
:1046D0008A3211F41064E1CFFF2009F4B1CF40ED2C
:1046E000480F423199F48091B2049091B30470E084
:1046F00060E08B30910520F06AE070E00E94C630E7
:104700007093B3046093B2041068C7CF433129F4A7
:104710001092B3041092B204F7CF4A30A8F7209158
:10472000B2043091B3045AE0529FC001539F900DE0
:104730001124840F911D47FD9A95AA81BB81A8176A
:10474000B90708F09C013093B3042093B204DCCF86
:104750000130F9F413FF03C00E945511A3CE12FFDC
:1047600003C00E946F119ECE11FF9CCE63E084E2D5
:104770000E94470680E20E947F0664E080E00E947B
:10478000470683E797E00E94130785E080931303B1
:1047900089CE023051F413FF03C00E947A1182CEF9
:1047A00011FF80CE0E946F107DCE053019F414FFEA
:1047B00079CEF3CF063079F512FF03C00E94621163
:1047C00071CE13FF03C00E948E1E6CCE11FF6ACE05
:1047D0000E94480E84E6809313031092B304109253
:1047E000B20410921D0310929E04EEE1F3E08EE9F4
:1047F00094E08E179F0729F011821082128233965F
:10480000F8CF109216031092150380E40E94A40CB6
:104810000E94C31247CE073061F412FD9DCF13FFF3
:1048200003C00E94B91E3ECE11FF3CCE0E940E1E58
:1048300039CE083009F512FDB0CF13FDBFCF11FFFF
:1048400031CE85E6809313031092B3041092B20424
:1048500081E080931C030EE216E069E172E0C8017A
:104860000E9462120A5F1F4FEEE5F6E0E017F107C3
:10487000A1F70E94C31216CE043108F46AC19091C8
:10488000D805901708F465C117FF05C08091B204E0
:104890000E94EA1E07CE10FF52C0F0911203F98366
:1048A000FF2309F4FFCD6091B2047091B304772720
:1048B0008CEE800F863059F5672B19F50E9464162F
:1048C000E0911303E4518FEFE93030F4F0E0EE0FA4
:1048D000FF1FED5FFE4F80810E94EA1E65E08CE3C2
:1048E0000E94470639818DE198E0311102C086E1CE
:1048F00098E00E94130761E080910F030E947906FF
:10490000D1CD69E070E086E00E943016D9CF29E071
:10491000829FF0011124EB57FE4F238134816217EF
:10492000730758F0258136812617370730F09085B8
:10493000911103C00E945F16C3CF1982C1CF14FF2B
:1049400017C080911203882309F42CCF1092110311
:104950001092120304518FEF093038F4E02FF0E089
:10496000EE0FFF1FED5FFE4F80810E94EA1E9ACD81
:1049700011FF40C08091120381110EC00451093013
:1049800058F4A02FB0E049E0049FF0011124EB5748
:10499000FE4F80858823A1F080911103882309F4BC
:1049A00081CD80910F038F5F80930F03893019F4BD
:1049B00081E080930F0380910F030E94C41E72CD8B
:1049C000AA0FBB1FAD5FBE4F8C9111969C91809337
:1049D000B2049093B30491E09093120327812230A4
:1049E00009F090E09093110391E090930F030E94DF
:1049F000EA1E58CD13FF58C0809112038823E9F1B5
:104A00002091B2043091B30480911103882371F195
:104A100080910F03D201A81BB109F10102C0EE0F72
:104A2000FF1FAA95E2F7CF018095909582239323EB
:104A30009093B3048093B2048091B2048F3F89F4C1
:104A400004518FEF9FEF093040F429E0029FF001FD
:104A50001124EB57FE4F858196819093B304809388
:104A6000B2048091B2040E94EA1E1CCD215031098B
:104A70003093B3042093B204DFCF015000931303AB
:104A8000043118F484E180931303E0911303E4519B
:104A90008FEFE93030F4F0E0EE0FFF1FED5FFE4FD7
:104AA00080810E94EA1EFECC12FFFCCC8091120392
:104AB0008823C9F18091B2049091B304209111032D
:104AC000222379F120910F03A201421B5109D10148
:104AD00002C0AA0FBB1F4A95E2F79D018A2B932BB8
:104AE0009093B3048093B20404518FEF9FEF093089
:104AF00040F4B9E00B9FF0011124EB57FE4F858184
:104B000096812091B2043091B3048217930720F468
:104B10001092B3041092B2048091B2040E94EA1E73
:104B2000C1CC0196DDCF0F5F00931303091710F07E
:104B300090931303E0911303E4518FEFE93030F4C5
:104B4000F0E0EE0FFF1FED5FFE4F80810E94EA1E36
:104B5000A9CC063471F412FD36CE13FF05C00E94B5
:104B60007C0E109213039ECC11FF9CCC0E949B1EC6
:104B700099CC073409F061C017FF06C06091B204F8
:104B800082E00E94581D8ECC14FF0AC080910E0353
:104B900090E09093B3048093B2040E94461182CCBB
:104BA00010FF15C02091B20420930E0312160CF0D2
:104BB00079CC203509F476CC8091050190910601DD
:104BC0002817190609F46ECC0E946C1E6BCC8091DC
:104BD0001203882309F466CC13FF15C08091B20438
:104BE0009091B30401979093B3048093B204892BFE
:104BF00021F4B092B304A092B2046091B20482E0B6
:104C00000E94581D4FCC12FF4DCC8091B204909160
:104C1000B30401969093B3048093B2048038910555
:104C200030F0EFE7F0E0F093B304E093B20460916A
:104C3000B20482E00E94581D35CC083409F049C006
:104C400012FF06C080E00E94A40C0E94B91E2ACC6C
:104C500013FD9CCF11FF26CC61E089E00E94CA04BD
:104C600010921D0310929E04EEE1F3E080E01082AA
:104C7000118212828F5F33968038C9F71092160323
:104C8000109215030E94A40C00E020E040E060E0D8
:104C900080E00E94781563E084E50E94470680E288
:104CA0000E947F066CE777E084E00E945E1083E557
:104CB000809313030E944E056093020370930303D5
:104CC00080930403909305031092B3041092B204EE
:104CD000E9CB093409F052C014FF0BC00E942A0F1F
:104CE00081E00E944D1082E00E944D100E948E1EB5
:104CF000D9CB13FF3EC00E94480E8091B204909120
:104D0000B304009729F001979093B3048093B20401
:104D10001B821A826A8180E00E9472068091B2042E
:104D20009091B3042A813B81820F931F80389105B3
:104D300010F00C942C3020919E042817190609F0CD
:104D400010F40C942C30FC01EE0FFF1FE80FF91F3C
:104D5000E25EFC4F4281618180810E940F0C4A819A
:104D60005B814F5F5F4F5B834A834830510591F60B
:104D700099CB12FF97CB0E94F10E94CB0B3409F024
:104D800074C017FF06C06091B20483E00E94581DF2
:104D900089CB14FDEBCE10FF2DC05091B204598386
:104DA00050930D03852F81508E3708F07BCB81E027
:104DB000809302018091130187FD15C083E00E945A
:104DC0004D1062E086E60E9447066AE070E0898145
:104DD0000E9476070E94811041E0698180910E0354
:104DE0000E940A165FCB0E94A604892B39F70E9405
:104DF0002D1E58CB8091130187FF02C016FDF7CFFF
:104E000080911203882309F44DCB13FF14C08091C5
:104E1000B2049091B30401979093B3048093B204C9
:104E2000892B21F4B092B304A092B2046091B20431
:104E300083E00E94581D12FF35CB8091B2049091FF
:104E4000B30401969093B3048093B2048F37910515
:104E500030F08EE790E09093B3048093B2046091B9
:104E6000B20483E00E94581D1DCB0C3409F053C0DE
:104E700014FF0AC080910D0390E09093B3048093D7
:104E8000B2040E946C1E0ECB10FF11C00E946B0476
:104E90008091B2048093020180910B0390910C03E6
:104EA0009093B3048093B2040E94441EFBCA809185
:104EB0001203882309F4F6CA17FD12C08091B204C8
:104EC0009091B304019713FD07C012FFEBCA8091C4
:104ED000B2049091B30401969093B3048093B2040A
:104EE0000E946B049091B20499839093020163E055
:104EF0008EE10E94470663E0A9818A2F90E00E941C
:104F00001F0B0E948110498160910D0380910E0357
:104F10000E940A16C7CA0D3409F06DC014FF03C001
:104F20000E94B010BFCA10FF32C08091B2049091AD
:104F3000B30490930C0380930B0380910A0390E0D9
:104F40009093B3048093B20465E08EE40E94470618
:104F50006AE070E080910B0390910C030E94C307FC
:104F60006BE877E086E00E945E108EE48093130386
:104F700081E08093120360910A03862F90E0909362
:104F8000B3048093B20487E00E94410B8BCA8091E6
:104F90001203882309F486CA13FF17C08091B20454
:104FA0009091B30401979093B3048093B204892B3A
:104FB00021F4B092B304A092B2046091B204709153
:104FC000B30486E00E94441D6DCA12FF11C0809197
:104FD000B2049091B30401969093B3048093B20409
:104FE0008130984050F37092B3046092B204E5CFE0
:104FF00017FF58CAE2CF0E3409F05BC014FF0BC094
:1050000080910B0390910C039093B3048093B204AE
:105010000E94441E47CA10FF1CC08091B2048093B6
:105020000A03833208F03ECA66E08CE30E9447061A
:105030006AE070E080910A030E94760710921203E2
:1050400065E977E087E00E945E108FE480931303A8
:1050500029CA80911203882309F424CA13FF15C0BA
:105060008091B2049091B30401979093B30480931C
:10507000B2048F3F21F41092B3041092B2046091F5
:10508000B20487E00E94410B0DCA12FF0BCA809147
:10509000B2049091B30401969093B3048093B20448
:1050A000839768F3E2E2F0E0F093B304E093B20494
:1050B000E6CF0F3409F084C010FF32CFE0900A032E
:1050C00020910B0330910C033B832A830091020152
:1050D000F0900D0310910E0361E089E00E94CA0474
:1050E000109216031092150381E00E94A40C1092F6
:1050F0009F041092A0041092A10432E23E1598F091
:105100004A815B81452B79F02E2D30E0C901880F53
:10511000991FFC01E20FF31FE45EFE4F428144231E
:10512000C1F04130D9F11093A404F092A304402FB0
:10513000440F400F4093A20401E02091A1046F2D81
:10514000812F0E94781580E5809313030E948110BF
:10515000A9C9AA81BB811197BB83AA8360E0820F92
:10516000931FFC01E45EFE4F80818093A1048A813D
:105170008F778093A0042A813B81220F232F221F47
:10518000330B31958181280F298380E2611101C0A1
:1051900080E03981380F30939F04C5CF4A815B810D
:1051A00040955095642F6170EA81FB813197417081
:1051B0005527E41BF50BF695E795FB83EA83CFCFE4
:1051C000013509F4ADCE0A35B9F414FDA9CE10FFAE
:1051D00069C961EC77E085E00E945E1062EB77E0E0
:1051E00086E00E945E1063EA77E087E00E945E102E
:1051F0008BE58093130356C90B3571F514FD90CEE2
:1052000010FF50C987E00E944D106EEC77E086E0F9
:105210000E945E108CE58093130361E089E00E9498
:10522000CA04109216031092150381E00E94A40C88
:105230001092A2041092A1048091A4048093A0046F
:105240008091A30480939F0401E020E040E060E0AF
:1052500080E00E94781526C90436E1F512FF12C0DD
:105260008091B2049091B30401969093B30480931B
:10527000B2048038910508F4FCCA1092B30410926D
:10528000B204F7CA13FF16C08091B2049091B30420
:10529000892B31F440E850E05093B3044093B204BA
:1052A0008091B2049091B30401979093B3048093DA
:1052B000B204DFCA14FFF6C880E00E94A40C0E946A
:1052C0002A0F81E00E944D1082E00E944D100E9442
:1052D000B91EE8C80536D9F414FF10C010921C039B
:1052E00080E00E94A40C0E942A0F81E00E944D10D1
:1052F00082E00E944D100E945511D4C810FFD2C800
:1053000080911C0391E0892780931C03CBC80E3643
:1053100009F043C014FD52CA10FF0BC08091B204C3
:105320009091B30490930903809308030E94D51DC4
:10533000B9C880911203882309F4B4C813FF17C0B9
:105340008091B2049091B30401979093B304809339
:10535000B204892B21F4B092B304A092B2046091FC
:10536000B2047091B30485E00E94441D9BC812FFF3
:1053700011C08091B2049091B30401969093B3044C
:105380008093B2048130984050F37092B3046092DD
:10539000B204E5CF17FF86C8E2CF0F3609F064C02C
:1053A00014FD44CA70911203798310FF2FC08091BD
:1053B000B2048A838093070365E084E50E94470670
:1053C00082E40E947F066AE070E08A810E9476078C
:1053D0006CEE77E086E00E945E1080E78093130316
:1053E00067E080E00E9447069981992319F08EE3D7
:1053F0000E947F0680910603882329F088EE97E0BB
:105400000E9413074FC884EE97E0FACFA981AA2320
:1054100009F448C813FF1AC08091B2049091B304F4
:10542000009729F001979093B3048093B20466E04B
:1054300080E00E9447068EE30E947F0682E40E947D
:105440007F068091B2040E947F062CC812FF09C01B
:105450008091B2049091B3048230910540F7019697
:10546000E2CF17FF1FC8E3CF003709F060C014FF79
:1054700003C00E94D51D16C810FF30C0B0910703AD
:10548000BA83E0910603E9834B2F40556E2F80913C
:105490000803909109030E94F21CFA81F111C6C918
:1054A0002981222309F4C2C98091130180FFBEC95A
:1054B0008091070190910801892B09F4B7C981E710
:1054C000809313030E944E056093020370930303BD
:1054D00080930403909305030C945222809112034D
:1054E000882311F40C94522213FF13C01092060368
:1054F00067E080E00E9447068EE30E947F0680916D
:105500000603882389F082E198E00E9413070C9437
:10551000522212FF04C081E080930603E9CF17FDF9
:1055200002C00C945222E4CF8EE098E0EECF083C0B
:10553000A9F412FF04C00E94C31D0C94522214FD52
:1055400010C911FD02C00C94522284E18093130310
:10555000809103010E94EA1E0C945222023D99F5AB
:1055600013FD20C912FF17C080910103882311F495
:105570000C94522263E084E50E94470680E20E9478
:105580007F066BEF77E084E00E945E1087ED8093EA
:1055900013030C94522214FDE4C811FD02C00C94B4
:1055A000522283ED8093130364E080E30E94470658
:1055B00080E20E947F069092B3048092B2040E941F
:1055C0006B1D0C945222033D51F414FDB4CF12FD17
:1055D00002C00C9452220E946B1D0C945222073D73
:1055E00009F061C013FD02C00C945222A4CF053013
:1055F00009F059C040911503509116035B834A830B
:1056000080910001909101014817590771F0509362
:1056100001014093000165E080E00E9447068B8114
:105620000E942A0C8A810E942A0C80911303873DD4
:1056300011F00C94522280910103882361F00E94A2
:10564000000D8983882339F066E080E00E944706D8
:1056500089810E947F060E94A604892B79F480919B
:10566000FF0281110BC081E08093FF0266E082E1BE
:105670000E94470689E098E00E9413070E94A60452
:10568000019711F00C9452228091FF02882311F4AB
:105690000C9452221092FF0244E066E083E00E94E4
:1056A000F90F0C9452229092010180920001003572
:1056B000A1F48091150390911603892B09F459C028
:1056C00085E00E944D1086E00E944D1081E5809398
:1056D00013030E948A100C945222013511F00A35EE
:1056E00021F40E948A100C945222023511F30335E2
:1056F00009F045C00E944E0500910203109103037A
:105700002091040330910503601B710B820B930BF6
:10571000693E734081059105D8F00E944E05609363
:105720000203709303038093040390930503809115
:10573000B2049091B3049C012F5F3F4F3093B304A8
:105740002093B20465E00E9479068EE20E947F06F3
:1057500080911D03882311F40C94522289E48093D4
:1057600013039092B3048092B2040E94F10E0C9441
:1057700052228091A50481110C945222D1CB0C3578
:10578000F1F48091150390911603892B09F098CFBD
:105790008091A50481110C9452220E948110B09234
:1057A000B304A092B20481E08093020141E06091D1
:1057B0000D0380910E030E940A160C9452228091D0
:1057C0000003043621F0053639F480911B03882349
:1057D00011F40C9452224DC8013709F026CF0E94D3
:1057E0004E050091020310910303209104033091B0
:1057F0000503AB01BC01401B510B620B730B2091E5
:10580000070130910801EAE0E29FC001E39F900D9B
:105810001124B0E0A0E084179507A607B70708F0A9
:1058200004CF40EB60E080910803909109030E944F
:10583000F21C0E940E1EF9CE81E080931D030C9491
:1058400079226A817B818F3FA9F580E00E94DC1775
:1058500081E080931B038091A504882309F437C35A
:10586000E091A604F091A7047181272F30E06281B6
:10587000462F50E0CA019695982F882797958795CF
:1058800080789770872B932BA081A23B39F10196EA
:10589000A13B09F42FC380F4A33809F422C3A03B31
:1058A00009F428C3A23839F580E090E0892B19F17A
:1058B00080E01DC384E0CACFAC3B09F421C3A03D06
:1058C00009F428C3A43BB9F47C33A9F480E090E048
:1058D000892B89F08CE30E9400000DC0880F991F6E
:1058E00022E030E065FD02C021E030E06071820F0F
:1058F000931F0E94920C8091A6049091A7049B8311
:105900008A830E94450A803109F0E1C2AA81BB81E5
:105910008C91853E09F0DBC214968C9114978130EE
:1059200009F0CBC013962C911397809105019091AB
:1059300006012817190609F0CAC212961C9112977F
:105940008091A404181372C0F090A3041A968C914D
:10595000B0E88B9FC0011124EA81FB8193859F777A
:10596000890FF81263C08681813009F5F781F983C8
:105970008091A204F8131BC08091A504813009F026
:105980003AC31092A5040E94960C9091A104891329
:105990002EC382E00E94A40C2091A00449814F5F95
:1059A0004093A20401E06F2D812F0E947815209171
:1059B000A6043091A7043B832A83D90116968C91C3
:1059C0001697823009F079C017969C9117978091AD
:1059D000A204981334C08091A504883081F51092F8
:1059E000A5041A968C911A9790E09C0146E0220F2C
:1059F000331F4A95E1F720781C963C911C973F771E
:105A0000232B2093A10455E0880F991F5A95E1F7A5
:105A100080781D969C919F77892B8093A0040E948B
:105A2000960C80939F0480E00E94550CE091A604A0
:105A3000F091A704FB83EA8386818230F1F5AA8185
:105A4000BB8117968C911797811137C08091A5045F
:105A5000803899F5F0909E04F7FCEEC28F2D90E00F
:105A60008C01000F111F080F191F025E1C4F1A96A0
:105A70008C91B0E28B9FC00111248078EA81FB8178
:105A800095859F77892BD8018C930E94960CF801FD
:105A90008183AA81BB8115968C91B0E28B9FC00156
:105AA00011248078EA81FB8190859F77892BD8012A
:105AB00012968C93F394F0929E04E091A604F091D8
:105AC000A7048481823009F002C2268180910301FB
:105AD000909104012817190609F0E0C127818091EF
