:100000000C94E1030C9409040C9409040C94090465
:100010000C9409040C9409040C9409040C9409042C
:100020000C9409040C9409040C946A170C94E315BD
:100030000C9409040C9409040C9409040C9409040C
:100040000C947A140C9409040C9409040C9409047B
:100050000C9409040C9409040C9409040C940904EC
:100060000C94C4140C940904AE2000B0C8001040D5
:10007000813FA1A6A83FA4D301D5F0D922DA12DB93
:10008000208D145374617475733F00496E626574FA
:10009000726965626E61686D653F0042656F62619D
:1000A000636874656E3F005374657565726E3F00DA
:1000B00053562D456469746F723F004D6F64756CC3
:1000C0002D41647265737365004D6F64756C2D41CD
:1000D0006472657373656E3F004D6F64756C2D536C
:1000E000756241647265737365003F3F3F00416410
:1000F000723A00506F72743A004E65756520416423
:100100007265737365004C6F636F494F2D496E695B
:10011000743F004B6F6D6D756E696B6174696F6EC6
:10012000736665686C657221007769726420676523
:1001300073656E6465742E2E2E004C6F636F494F8D
:100140002D496E69743F00506F72742D4164726561
:100150007373650054656C656772616D6D2D4172D6
:10016000740043563F004932432D5363616E3F0094
:1001700030780020560066657274696700566572B3
:1001800073696F6E20004C6F636F494F2D53562D6E
:10019000456469746F72003F3F3F00436F6E66694C
:1001A0006720310053572D49440056657273696FBB
:1001B0006E006E6F742075736564006E6F742075C9
:1001C000736564006E6F7420757365640044656CBC
:1001D0006179204230004F776E494400446576696A
:1001E0006365494400726F0050756C73322048613A
:1001F000726452657365740050756C733220536F6E
:10020000667452657365740050756C733120486173
:10021000726452657365740050756C733120536F4E
:1002200066745265736574004669782E6F75743212
:10023000206F6620626C34004669782E6F757432C8
:10024000206F6620202034004669782E6F75743246
:10025000206F6620626C20004669782E6F757432BC
:10026000206F6620202020004669782E6F7574323A
:10027000206F6E20626C34004669782E6F75743280
:10028000206F6E20202034004669782E6F757432FE
:10029000206F6E20626C20004669782E6F75743274
:1002A000206F6E20202020004669782E6F757431F3
:1002B000206F6620626C34004669782E6F75743149
:1002C000206F6620202034004669782E6F757431C7
:1002D000206F6620626C20004669782E6F7574313D
:1002E000206F6620202020004669782E6F757431BB
:1002F000206F6E20626C34004669782E6F75743101
:10030000206F6E20202034004669782E6F7574317E
:10031000206F6E20626C20004669782E6F757431F4
:10032000206F6E20202020004F7574707574206F30
:10033000636375702E626C004F7574707574206FF6
:10034000636375702E202000436F6E74322E506EE2
:10035000742E466565646200436F6E74312E506E74
:10036000742E466565646200537769746368506EE5
:10037000742E4665656462005075736842746E2E13
:1003800068696720696E64005075736842746E2EE8
:1003900068696720202020005075736842746E2EB3
:1003A0006C6F7720696E64005075736842746E2EAE
:1003B0006C6F772020202000546F67676C65205396
:1003C0007769742E696E6400546F67676C6520539B
:1003D0007769742E20202000426C636B4465742E74
:1003E0006869672064656C00426C636B4465742EB9
:1003F0006869672020202000426C636B4465742E7E
:100400006C6F772064656C00426C636B4465742E7E
:100410006C6F7720202020003F3F3F00206F6E2030
:1004200000206F666600204200000000000000000F
:1004300000002F000000000700070000147F147F59
:100440001400242A7F2A120062640813230036490C
:1004500055225000000503000000001C224100004E
:100460000041221C000014083E08140008083E0841
:1004700008000000A06000000808080808000060EC
:10048000600000002010080402003E5149453E0073
:1004900000427F4000004261514946002141454BE6
:1004A00031001814127F10002745454539003C4A99
:1004B00049493000017109050300364949493600B0
:1004C000064949291E000036360000000056360055
:1004D00000000814224100001414141414000041F8
:1004E00022140800020151090600324959513E0008
:1004F0007C1211127C007F49494936003E4141413E
:1005000022007F4141221C007F49494941007F0967
:10051000090901003E4149497A007F0808087F0027
:1005200000417F4100002040413F01007F0814222C
:1005300041007F40404040007F020C027F007F046A
:1005400008107F003E4141413E007F090909060035
:100550003E4151215E007F0919294600464949491B
:10056000310001017F0101003F4040403F001F205A
:1005700040201F003F4038403F00631408146300D0
:10058000070870080700615149454300007F414159
:100590000000552A552A55000041417F0000040201
:1005A00001020400404040404000000102040000FD
:1005B0002054545478007F4844443800384444441C
:1005C0002000384444487F00385454541800087EB2
:1005D0000901020018A4A4A47C007F080404780088
:1005E00000447D4000004080847D00007F1028444E
:1005F000000000417F4000007C04180478007C0863
:1006000004047800384444443800FC2424241800AE
:1006100018242418FC007C0804040800485454548E
:100620002000043F444020003C4040207C001C202F
:1006300040201C003C4030403C004428102844002E
:100640001CA0A0A07C004464544C440000087741E6
:10065000000000006300000000417708000008046B
:10066000080804003A4040207A003D4040403D00E8
:100670002154545479007D1211127D0039444444B0
:1006800039003D4242423D000205020000007E0169
:10069000495573007C1010081C000101010101FC88
:1006A0005FDC60E461C462F663D664B065DF66B5A2
:1006B00067AF68FFFF53746F6572756E67004162C4
:1006C0006672616765206C6165756674004E65755C
:1006D000657220547970002D3E20737065696368DF
:1006E00065726E3F00616E67657363686C6F7373EC
:1006F000656E3F006E75722065696E204C6F636F8A
:10070000494F004C6F636F494F2D496E69743A0031
:100710007769726420696E697469616C697369656F
:1007200072742E2E2E006175730065696E0041751E
:100730007367616E6773737461747573005461736A
:1007400074617475722D54657374004374726C0017
:100750006175730065696E006661696C656400733C
:10076000746F7265640000000000240027002A00F6
:1007700000000000250028002B00000000002300DE
:1007800026002900040404040404040402020202F2
:100790000202030303030303010204081020408044
:1007A00001020408102001020408102000000008C3
:1007B0000002010000030407000000000000000028
:1007C000441A11241FBECFEFD8E0DEBFCDBF12E028
:1007D000A0E0B1E0EAEFF4E502C005900D92A2318D
:1007E000B107D9F726E0A2E1B2E001C01D92A9321B
:1007F000B207E1F713E0C1EED3E004C02197FE0198
:100800000E94532AC03ED107C9F70E94E81A0C94EF
:100810007B2A0C9400008091A6049091A704009775
:1008200039F481E090E09093A7048093A6040895A2
:100830004197E8F380E190E0F6CF833081F028F42F
:10084000813099F08230A9F008958730A9F088307E
:10085000C9F08430B1F4809180008F7D03C0809115
:1008600080008F7780938000089584B58F7784BD52
:10087000089584B58F7DFBCF8091B0008F778093F2
:10088000B00008958091B0008F7DF9CFCF93DF93B2
:10089000E1EBF7E08491EDE9F7E0D491E9E8F7E0E6
:1008A000C491CC23A1F081110E941D04EC2FF0E033
:1008B000EE0FFF1FE658F84FA591B491EC91ED2390
:1008C00081E090E009F480E0DF91CF91089580E02D
:1008D00090E0FACF1F93CF93DF93282F30E0F901F8
:1008E000E455F84F8491F901E856F84FD491F90195
:1008F000EC57F84FC491CC23A9F0162F81110E9418
:100900001D04EC2FF0E0EE0FFF1FE059F84FA5910A
:10091000B4918FB7F894EC91111108C0D095DE23F3
:10092000DC938FBFDF91CF911F910895DE2BF8CF1D
:10093000CF93DF9390E0FC01E856F84F24918C5759
:10094000984FFC0184918823D1F090E0880F991F83
:10095000FC01EA59F84FA591B491FC01E059F84F18
:10096000C591D491623071F49FB7F8943C91822F75
:10097000809583238C93E8812E2B28839FBFDF9162
:10098000CF9108958FB7F894EC912E2B2C938FBFB5
:10099000F6CF3FB7F8948091A1049091A204A09162
:1009A000A304B091A40426B5A89B05C02F3F19F05D
:1009B0000196A11DB11D3FBFBA2FA92F982F8827DF
:1009C000BC01CD01620F711D811D911D42E0660FBA
:1009D000771F881F991F4A95D1F708952FB7F8946C
:1009E00060919D0470919E0480919F049091A00459
:1009F0002FBF0895AF92BF92CF92DF92EF92FF92F6
:100A00000F931F93CF93DF936C017B018B01040F36
:100A1000151FEB015E01AE18BF08C017D10759F0D2
:100A20006991D601ED91FC910190F081E02DC60114
:100A30000995892B79F7C501DF91CF911F910F910E
:100A4000FF90EF90DF90CF90BF90AF90089584E833
:100A50008093BC0080E491E02091BC0027FF03C09C
:100A60008091BB0008950197B9F78091A50480613A
:100A70008093A50480E008958093BB0084E8809370
:100A8000BC0080E491E02091BC0027FD089501970F
:100A9000D1F78091A50484608093A504089594EA19
:100AA0009093BC0020E431E09091BC0097FF0CC013
:100AB0008093BB0084E88093BC0080E491E02091A7
:100AC000BC0027FF0AC008952150310969F78091C1
:100AD000A50481608093A5040895019781F7809112
:100AE000A5048260F7CF1F93CF93DF93EC01142FFF
:100AF0004F83688785E090E09D838C838FEF66232A
:100B000049F081E0860F0E944F050E94270594E975
:100B10009093BC0090E08095909502C09595879544
:100B20001A95E2F780FD0CC080E08E830E94EE04EF
:100B3000688379838A839B83DF91CF911F91089586
:100B400083E0F3CFEF92FF920F931F93CF93DF9346
:100B50007C018B0188E70E944F0580E40E943C05E0
:100B6000E7010E0D1F1DC017D10751F484E98093D2
:100B7000BC00DF91CF911F910F91FF90EF900895EE
:100B800089910E943C05EFCFEF92FF920F931F9344
:100B9000CF93DF93182FE92E062F88E70E944F0589
:100BA00080E00E943C05F12EC12FDE2D89910E942C
:100BB0003C058C2F8F198017C8F384E98093BC0003
:100BC000DF91CF911F910F91FF90EF900895CF93F8
:100BD000DF9300D000D01F92CDB7DEB7EBEEF2E08E
:100BE000808361836055698391E29A8392E0980FD4
:100BF0009F709B8390E0029624E0959587952A95B7
:100C0000E1F7805F8C838FE78D8365E0CE010196ED
:100C10000E94C4050F900F900F900F900F90DF91DE
:100C2000CF910895813820F4683010F40C94E705D2
:100C30000895982F990F890F880F0C9412060F931F
:100C40001F93CF93DF93893009F459C0C82F8A309E
:100C5000A0F5883009F43EC08091EB028A3708F095
:100C60007AC0C03208F477C0C052E0EAF6E0E491FE
:100C7000CE1708F075C088E70E944F0580E40E94F7
:100C80003C05F6E0CF9FE001112410E000E0C75DD5
:100C9000DB4FFE01E00FF11F84910E943C050F5FC6
:100CA0001F4F06301105A9F784E98093BC0080919D
:100CB000EB028A5F8093EB024EC08A3051F1609163
:100CC000EC0280E0CD3041F6DF91CF911F910F9182
:100CD0000C9412068091EB026091EC0281500E940C
:100CE000190680E20E941F068091EB026091EC02DF
:100CF0008150DF91CF911F910F910C941906809133
:100D0000EB026091EC028D3010F48C5FF2CF8EE735
:100D1000DBCF6091EC026730F0F46F5F8091EB0203
:100D2000E8CF9F5F292F30E0220F331FA9014056E3
:100D3000594FFA0184918F3F71F0F901E156F94F53
:100D4000E491E052FF0BEC17FD0759F7FA01C4914B
:100D5000CF3F09F090CFDF91CF911F910F91089570
:100D600090E0D0E0DFCF1F93CF93DF93182FEC01FB
:100D70009C2F911BFE0184912196882319F00E94DB
:100D80001F06F6CF892F90E0DF91CF911F91089534
:100D9000EF92FF920F931F93CF93DF9300D000D079
:100DA0001F92CDB7DEB7E82E062FF72E962FE62F2F
:100DB000F72F1E2F191B849131968111FACF6E2DBA
:100DC0000E9412062AEF2103C001112480589F4F70
:100DD00097FD01969595879521E22A832FE72D832C
:100DE00020EB2E0D298322E0280F2F702B839927CB
:100DF000029634E0959587953A95E1F78F70805F7C
:100E00008C8365E0CE0101960E94C405802F9F2D42
:100E10000E94B3060F900F900F900F900F90DF91EC
:100E2000CF911F910F91FF90EF900895CF92DF9295
:100E3000EF92FF920F931F93CF93DF93CDB7DEB75F
:100E4000A1970FB6F894DEBF0FBECDBF282F30E0BC
:100E500050E040E019A28E010F5D1F4F6B01770F2C
:100E6000EE08FF08CA01B901A70196010E94312AC4
:100E7000605DF80162938F0121153105410551052F
:100E800061F4D02E78019E2D9D19F70181917F018B
:100E9000882341F00E941F06F6CFEC17FD0711F7DB
:100EA0008E01EFCF892F90E0A1960FB6F894DEBFA8
:100EB0000FBECDBFDF91CF911F910F91FF90EF90AB
:100EC000DF90CF900895CF92DF92EF92FF920F9331
:100ED0001F93CF93DF93CDB7DEB7A1970FB6F894EA
:100EE000DEBF0FBECDBF6B01BC0190E080E019A258
:100EF0008E010F5D1F4F0D2C000CEE08FF08A7019F
:100F000096010E94312AE62FCA01B901EA30A4F401
:100F1000E05DD801EE938D01232B242B252B71F45A
:100F2000D02E78019E2D9D19F70181917F01882394
:100F300051F00E941F06F6CFE95CEBCFAC17BD075E
:100F4000F1F68E01EDCF892F90E0A1960FB6F894BF
:100F5000DEBF0FBECDBFDF91CF911F910F91FF90EC
:100F6000EF90DF90CF9008951092B90088E48093BD
:100F7000B80084E08093BC000895809319060E9415
:100F8000B40788E70E944F058091A504882311F0DB
:100F900090E0089580911906882361F00E94B407BB
:100FA000809119060E944F058091A50490E0982F2A
:100FB0008827089590E080E0089590E080E008950B
:100FC00008952091C602260F3327331F21323105A1
:100FD000ECF420919405FC0190E080E0243069F06D
:100FE00082E00895A091C6022191AC014C555D4F5D
:100FF000A40FB52FB11D2C930196861798F38091FD
:10100000C602680F6093C60280E0089581E00895EB
:101010001092940581E08093930510926E0561E033
:1010200082E10E946A0461E083E10E946A04E9EBC4
:10103000F0E080818E7F808380818D7F808388E453
:101040008093B80085E48093BC000895CF93DF932C
:1010500091E09093A3028823B9F0C091B800D09199
:10106000BA008091BC008A7B8093BC0060E082E182
:101070000E946A0460E083E10E946A040E940808FA
:10108000D093BA00C093B800DF91CF9108958F92AA
:101090009F92AF92BF92CF92DF92EF92FF920F9307
:1010A0001F93CF93DF93D091BD05D13208F0D7C005
:1010B000182FC091BC050E94C9046B017C0180916E
:1010C000940581116BC082E0809394051093930581
:1010D0008FEF8093920510929105D0939005ACE923
:1010E000B5E0E0E7F5E080E0D81391C010926F051D
:1010F00080916F05CC0FC82BC0936F0580916E0552
:10110000813009F088C010926E050E94C9046B01FD
:101110007C0180916F058093BB0080919605909132
:101120009705A0919805B0919905892B8A2B8B2B57
:10113000A1F00E94C9040091960510919705209195
:101140009805309199056C197D098E099F0906173C
:1011500017072807390708F442C08091BC0083FDB7
:10116000D8CF85EC8093BC000E94C9046B017C0140
:1011700080919405823009F450C0809192058F3F90
:1011800009F46FC080919205803209F46CC080919F
:101190009205803309F469C084E026C080919605E9
:1011A00090919705A0919805B0919905892B8A2B6C
:1011B0008B2B09F484CF0E94C904809096059090EF
:1011C0009705A0909805B09099056C197D098E0936
:1011D0009F0986169706A806B90608F070CF809179
:1011E00095050E94260885E010929B051092BD058A
:1011F00010929A05DF91CF911F910F91FF90EF9080
:10120000DF90CF90BF90AF909F908F9008959D9169
:1012100091938F5F69CF85EEA5CF809196059091D0
:101220009705A0919805B0919905892B8A2B8B2B56
:1012300009F49ECF0E94C90400919605109197056C
:1012400020919805309199056C197D098E099F09A7
:10125000061717072807390708F08ACFC0CF81E0A3
:10126000C3CF80E0C1CF82E0BFCF83E0BDCF089580
:1012700008950895E091470580914605E81730F4F8
:10128000F0E0E85BFA4F808190E008958FEF9FEFE8
:10129000089590914705809146052FEF3FEF9817ED
:1012A00048F4E92FF0E0E85BFA4F208130E09F5FDF
:1012B00090934705C901089580914605909147058F
:1012C000891B990B0895CF92DF92EF92FF920F93B3
:1012D0001F93CF93DF937C01CB018A0120919A0564
:1012E000222389F0EB016B01C40ED51ECC15DD0560
:1012F00069F06991D701ED91FC910190F081E02DA9
:10130000C7010995F3CF642F0E94E107C801DF915F
:10131000CF911F910F91FF90EF90DF90CF900895A4
:10132000CF93DF931F92CDB7DEB7698320919A05E3
:101330002223F9F02091BD05203258F021E030E061
:10134000FC013383228390E080E00F90DF91CF9106
:10135000089580919B05E82FF0E0E456FA4F9981BB
:1013600090838F5F80939B058093BD0581E090E023
:10137000ECCF61E0CE0101960E94E107F7CF6093C8
:101380006C0570936D0591E090939A058093BC0570
:1013900010929B051092BD058EEB95E00E9490097E
:1013A00081E00C94470890E080E008959C01DC0106
:1013B000A058BF4FEC9191E09E0F9C93E20FF32F4A
:1013C000F11D608397FD1C920895FC018081807659
:1013D000803611F4818108958081829586708E5FB8
:1013E0000895CF92DF92EF92FF920F931F93CF93C6
:1013F000DF93EC0109E11EE2EE24E394F12C93E08B
:10140000D92ECC24C394CE010E94E5098093B60462
:10141000E091B604E1501092B5048FEF9091B504BD
:101420009E1768F4A091B504AC0FBD2FB11D9C911F
:1014300089279091B5049F5F9093B504EFCFEC0F8F
:10144000FD2FF11D8083F8948091B404813059F40C
:101450008091B304811738F01092B40480916F002A
:101460008D7F80936F0078948091B404813031F443
:101470008091B304843138F2C12CC5CF8091B4047B
:1014800081110EC0F89480916F008F7D80936F0062
:10149000B59B09C080916F00806280936F00789443
:1014A000C110B1CF56C0E091B104F091B204808177
:1014B0009091B004970101C0220F9A95EAF7822B10
:1014C000808380918400909185008A5A9C4F9093EC
:1014D000AF048093AE048091AE049091AF049093DA
:1014E0008900809388007894D093AD04C093AC04B5
:1014F0001092B5041092AB0488818093AA04D09214
:10150000B4041092B304B19A80916F00826080930A
:101510006F008091B4048330E1F38091AB048823A1
:10152000B1F0E091A804F091A904E757FF4F808142
:10153000918101969183808383E090E0DF91CF9148
:101540001F910F91FF90EF90DF90CF9008958091C1
:10155000B4041B3108F01150015009F052CF8091B2
:10156000420590914305019690934305809342056F
:1015700086E090E0E3CF86E791E00C94B306CF934A
:10158000DF93EC01643071F4C83E83E0D80760F467
:1015900080E30E941F06C436D10530F480E30E9428
:1015A0001F0602C06230B9F7CA30D10518F480E3D3
:1015B0000E941F066AE070E0CE01DF91CF910C948B
:1015C00063070F931F93CF93DF93CDB7DEB7C65456
:1015D000D1090FB6F894DEBF0FBECDBF062F682F1E
:1015E00080E00E94120680910803882319F08EE3A0
:1015F0000E941F0688E194E0033208F0A3C010E0C7
:1016000062E0C8010E94BF0A80E20E941F0688E0D3
:1016100094E09A83898388EF93E09C838B8388EEA0
:1016200093E09E838D8388ED93E098878F8388EC89
:1016300093E09A87898788EB93E09C878B8788EA79
:1016400093E09E878D8788E993E0988B8F8788E861
:1016500093E09A8B898B88E793E09C8B8B8B88E651
:1016600093E09E8B8D8B88E593E0988F8F8B88E439
:1016700093E09A8F898F88E393E09C8F8B8F88E229
:1016800093E09E8F8D8F88E193E098A38F8F88E001
:1016900093E09AA389A388EF92E09CA38BA388EEA2
:1016A00092E09EA38DA388ED92E098A78FA388EC8B
:1016B00092E09AA789A788EB92E09CA78BA788EA7B
:1016C00092E09EA78DA788E992E098AB8FA788E863
:1016D00092E09AAB89AB88E792E09CAB8BAB88E653
:1016E00092E09EAB8DAB88E592E098AF8FAB88E43B
:1016F00092E09AAF89AF88E392E09CAF8BAF88E22B
:1017000092E09EAF8DAF88E192E021969FAF8EAFC1
:10171000219788E092E023969FAF8EAF239788EFC2
:1017200091E025969FAF8EAF259788EE91E02796A2
:101730009FAF8EAF2797000F111FFE01E00FF11F23
:1017400081819281CA5BDF4F0FB6F894DEBF0FBE76
:10175000CDBFDF91CF911F910F910C94B306CF9322
:10176000DF93D62FC42F63E090E00E94BF0A8FE280
:101770000E941F0663E08D2F90E00E94BF0A83E75E
:1017800091E00E94B30663E08C2F90E0DF91CF914F
:101790000C94BF0ACF93C82F87FD21C080E30E941D
:1017A0001F06C034E0F480E30E941F06C032B8F484
:1017B00080E30E941F06C03190F480E30E941F0660
:1017C000C83068F480E30E941F06C43040F480E310
:1017D0000E941F06C23018F480E30E941F0662E0D8
:1017E00070E08C2FCF910C941607811108C01092D5
:1017F0000C0310920B0360E089E00C946A0490E003
:1018000090930C0380930B03F6CFCF93DF93EC01FF
:1018100080919904803401F56623F1F081E0809392
:10182000050390919204E92FF0E09F01220F331FEE
:10183000D901AE0FBF1FAE5EBC4FCD93DC934111FB
:1018400040E1E20FF31FEE5EFC4F428381E0890F1F
:1018500087FD05C080939204DF91CF910895109287
:101860009204FACF462F60E10C94050CE0919A04A3
:10187000F0919B04828520E1829FC0011124807831
:1018800096859F77892B0895809399040E94EE0492
:1018900060930D0370930E0380930F0390931003D6
:1018A0000895CF93109247051092460510929B051C
:1018B0001092BD050E94080887E399E09093C50245
:1018C0008093C40288E399E09093C9028093C80290
:1018D000C1E0C0939A0589E38093BC0581E00E9432
:1018E0004708882349F1C0939A0581E28093BC059B
:1018F00010929B051092BD0581E00E94470881115E
:101900001DC081E09091F602911114C0882331F03E
:1019100081E290E09093CB058093CA056FEF70E071
:101920008091CA059091CB050E94BF0910926B056A
:1019300010926A0581E003C080E0E4CF80E08093EC
:10194000F602CF9108954F925F926F927F92BF926D
:10195000CF92DF92EF92FF920F931F93CF93DF937B
:10196000E0916A05F0916B05EE0FFF1FE551FE4F08
:10197000608171818091CA059091CB050E94BF0959
:1019800093EEE92E91E0F92E10E000E0D1E0DD24A5
:10199000DA9425EEC22E35ECB32EC091CA050E9412
:1019A000C9042B013C0180919405811161C0D09341
:1019B0009405D0939305D0929205109291051092C0
:1019C0009005D0936F0580916F05CC0FC82BC09305
:1019D0006F0580916E05813009F09EC010926E05F2
:1019E0000E94C9042B013C0180916F058093BB00CC
:1019F0008091960590919705A0919805B0919905D1
:101A0000892B8A2B8B2BA1F00E94C904209196056B
:101A10003091970540919805509199056419750981
:101A200086099709261737074807590708F441C060
:101A30008091BC0083FDD8CFB092BC000E94C90445
:101A40002B013C0180919405813009F468C080919C
:101A50009105811186C080919105A0E7B5E0E8E489
:101A6000F5E090E0981751F12D9121939F5FFACF07
:101A70008091960590919705A0919805B091990550
:101A8000892B8A2B8B2B09F48ECF0E94C9042091BD
:101A900096053091970540919805509199056419E4
:101AA000750986099709261737074807590708F067
:101AB0007ACF809195050E94260880E01092470514
:101AC000809346058EEB95E00E944909F70141910C
:101AD00051917F0120916C0530916D0582279327EC
:101AE0008417950709F03FC080916A0590916B05B6
:101AF00025E0289FF001299FF00D1124E153FE4FAE
:101B0000E00FF11F8081082E000C990B909369055E
:101B10008093680580E037C0C092BC008FCF809171
:101B2000960590919705A0919805B0919905892BFC
:101B30008A2B8B2B09F486CF0E94C904209196052D
:101B40003091970540919805509199056419750950
:101B500086099709261737074807590708F072CFF3
:101B6000A8CF81E07ACF0F5F1F4F0430110509F035
:101B700014CF8091680590916905009791F01092BB
:101B8000690510926805DF91CF911F910F91FF9029
:101B9000EF90DF90CF90BF907F906F905F904F90CD
:101BA00008956FEF70E08091CA059091CB050E9477
:101BB000BF0980916A0590916B050196843091056B
:101BC00029F090936B0580936A05A4CF10926B0562
:101BD00010926A059FCFEF92FF921F93CF93DF93EE
:101BE000CDB7DEB7C058D1090FB6F894DEBF0FBE2F
:101BF000CDBFCE0101967C0180E8F70111928A9554
:101C0000E9F710E0612F80E00E94120660E870E0C2
:101C1000C7010E94A2051F5F1830A1F760E080E0B5
:101C20000E94E705C058DF4F0FB6F894DEBF0FBE25
:101C3000CDBFDF91CF911F91FF90EF9008951F933B
:101C4000CF93DF930E94EB0D60E080E00E94E705F8
:101C500088E70E944F0580E40E943C058FEF0E94B8
:101C60003C05CEE781E00E943C05C150D9F78FEFDB
:101C70000E943C0584E98093BC00C1E014E96C2F0C
:101C800080E00E94120688E70E944F0580E40E94CF
:101C90003C058FEF0E943C051093BC006C2F88E739
:101CA0000E94120688E70E944F0580E40E943C05CE
:101CB000D7E080E00E943C05D150D9F78FEF0E9419
:101CC0003C051093BC00CF5FC730C9F667E080E0E9
:101CD0000E94E70588E70E944F0580E40E943C05CA
:101CE0008FEF0E943C05CEE780E80E943C05C15082
:101CF000D9F78FEF0E943C0584E98093BC0066E829
:101D000071E082E00E94C8066DE771E084E00E9405
:101D1000C8066AE070E080910F0190911001DF9198
:101D2000CF911F910C946307EF92FF921F93CF9373
:101D3000DF930E94EB0D60E080E00E94E705D0E0B9
:101D4000C0E06C2F80E00E9412068091A604909162
:101D5000A7048C0F9D1F109205038038910548F54C
:101D6000FC01EE0FFF1FE80FF91FEE5EFC4FE08055
:101D7000F1800196E114F10431F1128163E00E94D7
:101D8000BF0A86E294E00E94B306812F8770805DCF
:101D90000E941F0680E20E941F0664E0C7010E94A5
:101DA000BF0A8CE194E014FD02C081E294E00E943D
:101DB000B3062196C830D10521F6DF91CF911F914E
:101DC000FF90EF90089563E00E94BF0AF2CFCF9397
:101DD000DF930E94EB0D8091A6049091A7040196D9
:101DE0009093A7048093A604D0E0C0E06C2F80E01D
:101DF0000E9412068091A6049091A7048C0F9D1F4B
:101E000080389105C8F42091920428171906A1F092
:101E100098F0FC01EE0FFF1FE80FF91FEE5EFC4F7C
:101E20004281618180810E94AF0B2196C830D1052B
:101E3000E9F6DF91CF910895DF91CF910C94BB0A21
:101E40000E94EB0D60E080E00E94E70566E871E02B
:101E500080E00C94C8061F93CF93DF93CDB7DEB715
:101E60006C970FB6F894DEBF0FBECDBF86E40E941C
:101E7000BD0710E0892B99F08EE50E94BD0711E0A7
:101E8000892B69F080E080930A036C960FB6F89472
:101E9000DEBF0FBECDBFDF91CF911F91089580911E
:101EA0000A0381119AC062E085E00E949804112320
:101EB00019F08EE5809319060E94B407E8E6F0E079
:101EC000DE0111969E01245E3F4FCD0144914D935A
:101ED00031962A173B07D1F72FEA2C8F6CE10E942D
:101EE000C4050E94EB0D80911906882309F44CC0AB
:101EF0000E94B407809119060E944F058FEF0E943F
:101F00003C0584E98093BC0050E040E060911906F4
:101F100081ED95E00E94730541E050E06091190663
:101F20008AED95E00E94730542E050E06091190649
:101F300083EE95E00E94730543E050E0609119063E
:101F40008CEE95E00E94730544E050E06091190624
:101F500085EF95E00E94730545E050E06091190619
:101F60008EEF95E00E94730546E050E060911906FF
:101F700087E096E00E94730547E050E06091190603
:101F800080E196E00E947305809111019091120109
:101F9000069711F40E941F0E109209031092060377
:101FA0001092A7041092A604109204031092FF024C
:101FB0001092030310920203109201031092000387
:101FC00081E0809302018FEF9FEF90930101809356
:101FD0000001109207031092080381E054CFAF92E2
:101FE000BF92CF92DF92EF92FF920F931F93CF9306
:101FF000DF93CDB7DEB7D82EC62E142FEDB6FEB6C2
:10200000282F240F3327331F263131053CF537E0C5
:10201000361720F18D2D0E941906012F000F010F98
:10202000000F10E08DB79EB7801B910B0FB6F89490
:102030009EBF0FBE8DBF2DB73EB72F5F3F4F5901DB
:10204000A80170E060E0C9010E946B2AB801C501D7
:102050000E94A2056C2D8D2D0E9419060FB6F894D2
:10206000FEBE0FBEEDBE0FB6F894FEBE0FBEEDBEB7
:10207000DF91CF911F910F91FF90EF90DF90CF9064
:10208000BF90AF90089545E1682F80E00C94EF0F6A
:1020900084E00E94431085E00E94431086E00E9485
:1020A000431087E00C9443100F931F93CF93C82FD6
:1020B0008B010E9443106C2F80E00E941206C80121
:1020C000CF911F910F910C94B3060E94481063E0CA
:1020D00084E50E94E70580E20E941F0662E671E047
:1020E00084E00E94541088EC80930903089569E20B
:1020F00071E087E00E94541082E5809309030895FF
:102100008091EE029091A102911103C0811103C050
:10211000089581111AC08093A1029091090391350D
:1021200051F4882319F087E00C94431063E171E0C7
:1021300087E00C9454109A3541F4882311F085E01F
:10214000F3CF66E071E085E0F4CF0895CF93DF939D
:102150000E94481062E086E60E94E7056AE070E0AF
:10216000809102030E94160763EF70E083E00E94F3
:1021700054108CE4809309032091930450919404AB
:10218000709195041092FF021092010310920003C7
:1021900030E0E5E1F1E040E08081781362C06281E7
:1021A00080EF90E0613011F480ED90E08223932382
:1021B000A181A817190609F054C0C9019695982F56
:1021C000882797958795807897705F77852B66230A
:1021D00021F06130D1F1C0E008C001969093010375
:1021E000809300034093FF02C1E08091020190E0E0
:1021F0009093A7048093A6040E940B048091A604E8
:1022000062E090E00E94BF0A63E080E30E94E7057D
:102210008EEE90E00E94B306CC2349F164E08091F9
:102220000003909101030E94BF0A1092080360917D
:10223000FF02C11101C06FEF84E00E94E10A81E05A
:1022400080930803DF91CF91089525FB552750F91E
:10225000C52F20E0D22F2196880F991F8C0F9D1F2C
:10226000BDCF4F5F3396433209F096CFB4CF8AEE9D
:1022700090E00E94B306D9CF0E94481069EC70E04C
:1022800083E00E94541088E48093090310920803AD
:1022900008950E94200F0E94481060EB70E083E0D8
:1022A0000E94541086E48093090310920803089555
:1022B0000E94481067EA70E083E00E94541087E0B3
:1022C000809309031092080308950E9448106BE957
:1022D00070E083E00E94541086E080930903089523
:1022E0000E9448106BE870E083E00E94541082E086
:1022F0008093090308950E94481063E870E083E02A
:102300000E94541081E080930903089585ED809325
:10231000BC008091960590919705A0919805B09189
:1023200099050796A11DB11D23E0B695A795979530
:1023300087952A95D1F72091BC0024FD03C0109207
:1023400094050895409196055091970560919805E0
:1023500070919905452B462B472B69F30097A105F2
:10236000B10541F02AE22A95F1F700C00197A109D1
:10237000B109E1CF809195050C9426082F923F92E8
:102380004F925F926F927F928F929F92AF92BF9285
:10239000CF92DF92EF92FF920F931F93CF93DF9331
:1023A00000D000D0CDB7DEB79C838B837C0141E8A1
:1023B000E40EF11C6C0150E8C50ED11C8C010E57C7
:1023C0001F4F8D579F4F2C018B819C818C579F4FA6
:1023D0004C0122242A94AB80BC8097E8A90EB11C42
:1023E000EB81FC81EB57FF4FFA83E983F701808192
:1023F000F6019081891709F4BAC0EB81FC81E80FDE
:10240000F11D308037FE6DC0F8019081891739F0D9
:10241000F501208131812F5F3F4F31832083F80107
:102420008083F2012082832D8076F401803609F4C6
:1024300041C0832D829586708E5F8083F801208154
:10244000F4018081820F9927991F813891059CF1B1
:1024500080E8682E621AF894F6014081F8018081C4
:10246000841708F044C0F42FF81B8F2FF6018083E7
:102470007894F80160814617E8F5712C50E06B8183
:102480007C81CB01860D971D0E94592AF80160813D
:102490004B815C81460F511DBA01A3018B819C8148
:1024A0000E94592AF7018081F8019081891BF70168
:1024B0008083F8011082F70190819F5F9083F8017B
:1024C0008081392F381B97FF02C0F7011082F2017B
:1024D0002081F40190819317A9F03226F201308215
:1024E00085CFF40180818111E6CF3082A7CF862D80
:1024F000840FBCCF461B50E08B819C81860F911DC1
:10250000BC01CCCF32122AC04B815C81480F511DD7
:10251000CA01E981FA81408151814F5F5F4F518348
:102520004083F7013081F80130830097B1F20F90BA
:102530000F900F900F90DF91CF911F910F91FF900F
:10254000EF90DF90CF90BF90AF909F908F907F9053
:102550006F905F904F903F902F900895F50180818C
:10256000918101969183808390E080E0DACF90E0C2
:1025700080E0DDCF6F927F928F929F92AF92BF9259
:10258000CF92DF92EF92FF920F931F93CF93DF933F
:10259000E0919A04F0919B04D581D3709780868056
:1025A00073806280A82EE894A7F887FD9AC0D06156
:1025B000B62EE894B7F867FDD860C42EE894C7F843
:1025C00011E147FF10E1D22EE894D7F827FD126001
:1025D000F02EE894F7F807FD14600E2D0F77E7FC56
:1025E0001860C92DC82588E0C827C725C625C0277B
:1025F000CF25CD25CC25CB25CA25CD27C12765EEF6
:1026000082E192E00E94D60960E182E192E00E94BC
:10261000D609662D82E192E00E94D609672D82E1FB
:1026200092E00E94D60962E082E192E00E94D6091F
:102630006D2F82E192E00E94D609682D82E192E03E
:102640000E94D609692D82E192E00E94D6096A2D86
:1026500082E192E00E94D6096B2D82E192E00E9415
:10266000D609612F82E192E00E94D6096C2D82E1A9
:1026700092E00E94D6096D2D82E192E00E94D60977
:102680006F2D82E192E00E94D609602F82E192E0F4
:102690000E94D6096C2F6F7782E192E00E94D609E2
:1026A0006FEF82E192E00E94D60982E192E00E94FF
:1026B000BE1190939B0480939A04009711F00E949E
:1026C000F10981E0DF91CF911F910F91FF90EF9081
:1026D000DF90CF90BF90AF909F908F907F906F9042
:1026E0000895D46165CFCF92DF92EF92FF920F935E
:1026F0001F93CF93DF93D82EF62EE42EC0900501C2
:10270000122F12951870011175C002E0D22FDF77D9
:10271000CBE0CC25CF25CE25CD25CD27C127C02781
:1027200065EE82E192E00E94D60960E182E192E0EA
:102730000E94D6096C2D82E192E00E94D6096D2D8F
:1027400082E192E00E94D60961E082E192E00E947B
:10275000D609612F82E192E00E94D609602F82E1C2
:1027600092E00E94D6096E2D82E192E00E94D60985
:1027700060E082E192E00E94D6096D2F82E192E052
:102780000E94D60960E082E192E00E94D6096F2D96
:1027900082E192E00E94D60960E082E192E00E942C
:1027A000D60960E082E192E00E94D60960E082E111
:1027B00092E00E94D6096C2F6F7782E192E00E942E
:1027C000D6096FEF82E192E00E94D60982E192E0A1
:1027D0000E94BE1190939B0480939A04009761F02D
:1027E000DF91CF911F910F91FF90EF90DF90CF90ED
:1027F0000C94F10901E08ACFDF91CF911F910F91E5
:10280000FF90EF90DF90CF9008950F931F93CF9399
:10281000DF93C82FD62F142F61E089E00E946A044D
:1028200010920C0310920B0388E00E94440CC0939A
:102830009804D0939704412F440F410F409396047E
:1028400000E020E06D2F8C2F0E947313DF91CF9159
:102850001F910F9108950F931F93CF93DF93E82F4C
:10286000F0E099E0899FD0011124A258BE4F15963F
:102870002D913C9126173707C0F08B01C82FEE0F22
:10288000FF1FED5FFE4F71836083CF5FCC0FD0E001
:10289000612FCE010E940F2A602FCE010196DF9199
:1028A000CF911F910F910C940F2ADF91CF911F911F
:1028B0000F910895893010F40C942B140895CF9340
:1028C000DF936DE490E080E00E940F2A6AE581E0EA
:1028D00090E00E940F2ACEE7D1E069817A81888159
:1028E0000E945A14299681E0CF3CD807B1F7DF91B6
:1028F000CF9108951F920F920FB60F9211242F932C
:102900003F938F939F93AF93BF9380919D0490913A
:102910009E04A0919F04B091A00430919C0423E0F8
:10292000230F2D3758F50196A11DB11D20939C044E
:1029300080939D0490939E04A0939F04B093A00461
:102940008091A1049091A204A091A304B091A40449
:102950000196A11DB11D8093A1049093A204A093A0
:10296000A304B093A404BF91AF919F918F913F9125
:102970002F910F900FBE0F901F90189526E8230FF0
:102980000296A11DB11DD2CF1F920F920FB60F92CA
:1029900011242F933F934F935F936F937F938F9364
:1029A0009F93AF93BF93EF93FF938091B900887F7C
:1029B000803609F44AC0F0F5883209F4A7C018F54A
:1029C000803109F49BC0B8F4882309F4F9C0883039
:1029D00009F494C0FF91EF91BF91AF919F918F91B6
:1029E0007F916F915F914F913F912F910F900FBE0B
:1029F0000F901F901895883109F488C0803251F7E4
:102A00008093920514C0803409F49DC040F4803353
:102A1000B9F38833F9F68093920585ECB0C0803520
:102A200009F485C0883509F496C0883499F60E9467
:102A30008611D0CF883909F48CC038F5883729F051
:102A400050F4883611F0803729F683E0809394059E
:102A50001092EA0257C0883809F47BC0803919F017
:102A6000803809F0B7CF8091EA02803208F071C057
:102A7000E091EA0281E08E0F8093EA028091BB0030
:102A8000F0E0E653FD4F80833DC0803B39F0E0F439
:102A9000803A09F479C0883A09F09CCF84E08093A9
:102AA00094051092C7021092C602E091C402F09100
:102AB000C50209958091C60281110FC081E0809303
:102AC000C6021092A40209C0803C09F4A6CF883C3B
:102AD00009F4A3CF883B09F07DCFE091C70281E0E4
:102AE0008E0F8093C702F0E0EC55FD4F80818093FC
:102AF000BB009091C7028091C60229C080916F05EA
:102B00008093BB0085EC8093BC0064CF90919105CD
:102B100080919005981758F5E091910581E08E0F0E
:102B200080939105F0E0E059FA4F8081E9CFE09180
:102B3000910581E08E0F809391058091BB00F0E0BC
:102B4000E059FA4F808390919105809190059817F4
:102B5000C8F285E8D8CFE091910581E08E0F80938F
:102B600091058091BB00F0E0E059FA4F808380919D
:102B7000930581115CCF81E080936E0584EA809398
:102B8000BC001092940526CF85EC8093BC00109277
:102B900094058091EA02803230F4E091EA02F0E09C
:102BA000E653FD4F10826091EA0270E0E091C802A6
:102BB000F091C9028AEC92E009951092EA020ACFDC
:102BC0001092920534CF1F920F920FB60F921124DC
:102BD000DF92EF92FF920F931F932F933F934F93A8
:102BE0005F936F937F938F939F93AF93BF93CF9395
:102BF000DF93EF93FF93B19A8091AE049091AF046D
:102C000080549C4F9093AF048093AE048091AE04A7
:102C10009091AF0490938900809388008091A202E4
:102C2000882371F01092A202189B26C081E0809345
:102C3000B404B59A80916F00806280936F001CC0CD
:102C40008091B3048F5F8093B3048091B404843087
:102C500009F043C08091B304893030F58091AA0413
:102C600090E0959587958093AA04189B05C0809164
:102C7000AA0480688093AA04FF91EF91DF91CF911D
:102C8000BF91AF919F918F917F916F915F914F9184
:102C90003F912F911F910F91FF90EF90DF900F9038
:102CA0000FBE0F901F901895B59A80916F008062AB
:102CB00080936F008091A8049091A904189929C06D
:102CC000FC01E957FF4F80819181019691838083B8
:102CD0001092B30481E08093B4048091B4048330F3
:102CE000E9F5E091B104F091B20480812091B00443
:102CF00033B190E0022E02C0959587950A94E2F7D1
:102D0000832780FD11C01092B30482E08093B40445
:102D100025C06091AA040E94D60980E090E0892B2A
:102D2000B9F20E940000D4CF8091B304893008F03A
:102D300043C03091AA0481E090E001C0880F2A9539
:102D4000EAF7908130FF36C0809589238083809197
:102D5000AA0490E0959587958093AA048091B40485
:102D6000823099F48091B30481118EC0E091B10456
:102D7000F091B20480819091B00421E030E001C074
:102D8000220F9A95EAF7822B80838091B4048130D8
:102D900009F072CF8091B304882309F44ACF80915F
:102DA000B304883308F468CF1092B40480916F00A4
:102DB0008D7F43CF892BCACF8091B304893059F4DA
:102DC000308181E090E001C0880F2A95EAF7809574
:102DD00083238083C3CF8091B5048F5F8093B50434
:102DE0009091B604891750F51092B3048091AC0409
:102DF0009091AD04A091B504A80FB92FB11D8C918D
:102E00008093AA04808141E050E001C0440F2A95DC
:102E1000EAF7842B808380918400909185008A5A00
:102E20009C4F9093AF048093AE048091AE04909138
:102E3000AF04909389008093880090CF81E08093C5
:102E4000AB040091AC041091AD04E090A804F090A4
:102E5000A904C8010E94E509D82ED0E0C0E0CD1534
:102E600048F4F801EC0FFD1F6081C7010E94D609EC
:102E70002196F5CF80E090E0892B11F00E940000B0
:102E80001092B30481E042CF8091B3048F3008F4F4
:102E90007CCFE091B104F091B20420813091B00474
:102EA00081E090E001C0880F3A95EAF7809582238F
:102EB00080831092B30481E08093B404E091A8046D
:102EC000F091A904E357FF4F80819181019691838E
:102ED00080835BCF1F920F920FB60F9211248F93B6
:102EE0009F93EF93FF93B59AEFE6F0E080818F7D9B
:102EF0008083809186009091870080529E4F9093AE
:102F0000AF048093AE048091AE049091AF0490938F
:102F1000890080938800B19A80818260808384E0F8
:102F20008093B4041092B30481E08093A202FF91D5
:102F3000EF919F918F910F900FBE0F901F9018955A
:102F4000CF93DF93CDB7DEB760970FB6F894DEBFAF
:102F50000FBECDBF0197811528E0920708F03FC052
:102F600020E5240F2330D8F5413BF9F0423B59F1DD
:102F70009C01220F232F221F330B31958F77611174
:102F800012C0206190EB99838A832B83CE01019636
:102F90000E94F10960960FB6F894DEBF0FBECDBF58
:102FA000DF91CF9108952063EDCF9C01220F232F55
:102FB000221F330B31958F77611103C0206191EB94
:102FC000E2CF2063FCCF292FAC01569547954F7770
:102FD00080FD206282EB89834A832061D6CF85E021
:102FE00090E0D8CFCF93DF93EB01682F80E00E9471
:102FF000120680910803882319F08EE30E941F06B1
:1030000064E0CE01DF91CF910C94BF0ACF93C62F1D
:10301000682F80E00E94120680910803882319F02F
:103020008EE30E941F0663E08C2F90E0CF910C94FA
:10303000BF0A1F93CF93DF938091A6049091A704BA
:1030400001969093A7048093A60465E080E00E9417
:10305000E7058091A6049091A704C1E0803891050E
:1030600088F0DF91CF911F910C94BB0A8091A60448
:103070009091A70401969093A7048093A6048038AA
:10308000910578F78091A604C0939A058093BC05BA
:1030900010929B051092BD0581E00E944708182FF1
:1030A000882311F0843011F780E791E00E94B30685
:1030B000C091A604D091A704DD27C031D10518F432
:1030C00080E30E941F0660E170E0CE010E9463076A
:1030D00080E2143009F48FE3DF91CF911F910C94BB
:1030E0001F060E94481063E084E50E94E70580E225
:1030F0000E941F0666E671E084E00E94541082ED93
:1031000080930903089585E00E94431086E00E94A1
:10311000431087E00E94431064E08EE40E94E705BC
:1031200064E08091FD029091FE020E94BF0A64E576
:1031300071E085E00E9454108FE68093090380912E
:10314000FC0290E09093A7048093A60466E080E0E0
:103150000E94E70580910803882319F08EE30E94FE
:103160001F0682E40E941F066AE070E08091A604B8
:103170009091A7040C94630763E08AE20E94E7053C
:1031800080E20E941F060E94481067E471E084E01C
:103190000E9454108EE68093090381E08093080317
:1031A0006091FD027091FE027093A7046093A604E3
:1031B00085E00C94F2170E94481062E086E60E94B7
:1031C000E7056AE070E0809102030E9416076AE357
:1031D00071E085E00E9454108AE580930903109203
:1031E0000803089586E00E94431087E00E94431080
:1031F00069EF70E085E00E9454108DE4809309032C
:1032000080910003909101039093A7048093A604FA
:1032100066E080E00E94E70580910803882319F0AA
:103220008EE30E941F0664E08091A6049091A7049B
:103230000C94BF0A83E00E9443100E94481061E092
:1032400086E60E94E7056AE070E0809103030E9431
:10325000160769ED70E082E00E9454108BE48093C1
:10326000090360910203862F90E09093A704809356
:10327000A60483E00C94061882E00E94431083E0C9
:103280000E9443100E9448106BEB70E081E00E94A6
:10329000541087E48093090381E0809308036091D0
:1032A0000303862F90E09093A7048093A60482E006
:1032B0000C9406180F931F93CF93DF9391E0909394
:1032C0001A06CCE1D6E088830DE116E085E0F8012E
:1032D000808345E166E080E00E94EF0FF8016081A5
:1032E0006F5F88810E9419068FEA0E941F06F8010D
:1032F00060818881DF91CF911F910F910C94190605
:10330000FF920F931F93CF93DF93CDB7DEB76297F2
:103310000FB6F894DEBF0FBECDBFF82E10921A067E
:1033200060911D066F5F45E180E00E94EF0F64E051
:103330008CE00E94E70580E20E941F0664E082E1C3
:103340000E94E705009109031DEE100F1A3018F4D2
:1033500080E20E941F066AE070E0812F0E9416073B
:1033600004514FE064E086E00E94EF0F64E084E2E5
:103370000E94E7058CED91E09A83898386ED91E0C8
:103380009C838B838DEC91E09E838D8384EC91E014
:1033900098878F838BEB91E09A87898782EB91E006
:1033A0009C878B878AEA91E09E878D8784EA91E0EB
:1033B000988B8F878BE991E09A8B898B87E991E0D5
:1033C000093040F4E02FF0E0EE0FFF1FEC0FFD1F7F
:1033D000818192810E94B30685E00E94431065E0DE
:1033E00080E00E94E70510910803112319F08EE395
:1033F0000E941F06093050F589E0089FF001112452
:10340000E258FE4F8781823009F58F2D0E94CA0B4A
:10341000111109C089E0089FF0011124E258FE4F04
:10342000808581111CC080910703882309F1809158
:10343000040362960FB6F894DEBF0FBECDBFDF91D6
:10344000CF911F910F91FF900C945A196AE070E090
:103450008F2D0E9416071111E6CF0930D8F265E0D2
:1034600084E50E94E70585EE91E00E94B306DBCF7C
:1034700062960FB6F894DEBF0FBECDBFDF91CF913D
:103480001F910F91FF900895CF93DF93EEEBF5E03E
:103490001382128288EE93E0A0E0B0E084839583EB
:1034A000A683B78387EF91E091838083C2E2D6E061
:1034B00086E0888380E8898388E08A831B821C8277
:1034C0001D821E8261E086E00E9498040E94EE0444
:1034D0006B837C838D839E8389E390E09093CB05FF
:1034E0008093CA05EDECF5E01382128289E092E048
:1034F0009183808314821582168217828AE090E07D
:1035000091878087128613861486158616861786FD
:10351000108A928B818B138A148A158A168A178ACD
:10352000108E118E938F828F148E158E168E178E9D
:1035300010A211A212A294A383A315A216A217A2ED
:1035400010A611A612A613A695A784A716A617A6BD
:1035500010AA11AA12AA13AA14AA96AB85AB17AA8D
:1035600010AE11AE12AE13AE14AE15AE97AF86AF5D
:1035700010920D0610920E0610920F061092100671
:1035800010921106109212061092130690931506CF
:1035900080931406109216061092170610921806C1
:1035A0001092190610921A0610921B0610921E060F
:1035B00010921F06109220061092210610921C06EF
:1035C00010921D068CE18093CC05DF91CF91089578
:1035D000CF93DF9300D01F92CDB7DEB7789484B538
:1035E000826084BD84B5816084BD85B5826085BDFF
:1035F00085B5816085BD80916E00816080936E008D
:10360000109281008091810082608093810080917E
:10361000810081608093810080918000816080932F
:1036200080008091B10084608093B1008091B000EF
:1036300081608093B00080917A00846080937A00EA
:1036400080917A00826080937A0080917A00816014
:1036500080937A0080917A00806880937A0010923B
:10366000C10023E031E03B832A8302E010E0C8017F
:103670000E94072AF82EC80101960E94072A2F2DC2
:1036800030E0322F2227820F932F911DAA81BB8118
:103690008D939D93BB83AA830E5F1F4F0431110549
:1036A00031F780910F0190911001089728F468E09C
:1036B00070E086E00E942B1480911101909112011C
:1036C000069711F00E945F140E942B0F0E94510C6C
:1036D00061E089E00E949804E7EBF4E08FE8DF0105
:1036E0001D928A95E9F761E087E00E949804EFE96E
:1036F000F7E02491EBE8F7E0E491F0E0EE0FFF1F34
:10370000E059F84F4591549180E091E031E029175C
:1037100041F08F5F932F082E01C0990F0A94EAF7AA
:10372000F6CF5093B2044093B1048093B00487EB7A
:1037300094E09093A9048093A8042098E091B104A8
:10374000F091B20420813091B00481E090E001C09A
:10375000880F3A95EAF78095822380831092800043
:1037600081E0809381001092B404B59A80916F003B
:10377000806280936F0080918100887F8160809358
:10378000810022242394312C88248A94982CAA2402
:10379000A394B12C612C58E0752E98E0492E512C41
:1037A0000E94EE040091250610912606209127061E
:1037B00030912806601B710B820B930B65317105EC
:1037C0008105910508F460C00E94EE04609325060F
:1037D000709326068093270690932806B0912306BF
:1037E000B98380912406B13C20F081958093240612
:1037F00003C0E981E032C8F380912406F981F80F13
:10380000F983F0932306209122062A8361E0822F18
:103810000E9498043981311105C060E08A810E94BC
:103820006A0432C049814F3F11F461E0F7CF5A81F9
:10383000E52FF0E0E455F84FE491E33009F4E1C0FE
:1038400048F4E130E1F0E23009F4D5C0498147FDA8
:10385000ECCFE3CFE73009F4E1C0E83009F4E7C08A
:10386000E430A1F780918000806280938000F9812C
:10387000EF2FF0E0F0938B00E0938A0005C084B551
:10388000806884BD798177BD0E94EE040091F102C9
:103890001091F2022091F3023091F402601B710B3F
:1038A000820B930B6E3771058105910528F10E94FB
:1038B000EE046093F1027093F2028093F30290930E
:1038C000F4029091F00281E098279093F0029923FE
:1038D00099F09091EF0298279093EF02992361F06D
:1038E0009091EE0298279093EE02992329F09091FF
:1038F000ED0289278093ED020E94510C0E942B0F4C
:1039000050910A035983513009F49AC080E00E9413
:10391000440C709199047983872F8F7B39F10E9431
:10392000EE0400910D0310910E0320910F033091CE
:103930001003601B710B820B930B69387341810577
:103940009105A0F0B981B03811F40C942E26809125
:103950000B0390910C039B2B90930C0380930B0310
:103960001092990460E089E00E946A0487EB94E079
:103970000E94BE11FC0190939B0480939A04892BB2
:1039800011F40C943E2980919904882311F40C942D
:103990003E297181272F30E06281462F50E0CA0115
:1039A0009695982F88279795879580789770872B7D
:1039B000932BA081A23B11F40C9445260196A13BC8
:1039C00011F40C94512910F00C943326A33811F4FF
:1039D0000C944829A03B11F40C945129A23811F001
:1039E0000C94522680E090E0892B11F40C9452261E
:1039F00080E00C944E2984B5806284BD898188BDA5
:103A000043CF80918000806880938000B981AB2F84
:103A1000B0E0B0938900A093880036CF8091B000C9
:103A200080688093B00029812093B3002DCF8091CE
:103A3000B00080628093B00039813093B40024CF0D
:103A40000E94EE0400911E0610911F062091200690
:103A500030912106601B710B820B930B653F714007
:103A60008105910580F00E94EE0460931E0670931C
:103A70001F06809320069093210680911B06B98132
:103A8000B827B0931B0680911906882399F18F5FA0
:103A90000E944F050E94270594E99093BC00182FBF
:103AA000109500910903073439F14EE750E00B34CB
:103AB00009F462C00C3429F10D3409F453C00E36F8
:103AC00009F455C0EFEFF0E0FB83EA8322E030E039
:103AD0000F36A1F041E050E0003709F44DC0073D3A
:103AE000A1F411112AC010910603112331F1109293
:103AF00006030FCF8FEFD3CF2FE730E03B832A832E
:103B000004C080E190E09B838A83F0900803FF204B
:103B100049F080910703811104C0FF24F3940E340F
:103B200009F4F12C8091F6028823D9F20E94A30CAB
:103B30008823B9F2833219F5116080910503811150
:103B400008C0112309F472C790910603911709F474
:103B50006DC710930603011152C012FFDACE0E9406
:103B60004911D7CEA0E0B8E0BB83AA83CECFE0E076
:103B7000F8E0FB83EA83C9CF5B834A83C6CF8A32EE
:103B800011F41064DACFFF2009F4ABCF40ED480FF9
:103B9000423199F48091A6049091A70470E060E00E
:103BA0008B30910520F06AE070E00E941D2A70932E
:103BB000A7046093A6041068C0CF433129F4109283
:103BC000A7041092A604F7CF4A30A8F72091A604C4
:103BD0003091A7045AE0529FC001539F900D1124C9
:103BE000840F911D47FD9A95AA81BB81A817B9073B
:103BF00008F09C013093A7042093A604DCCF013089
:103C0000F9F413FF03C00E94581183CE12FF03C0C2
:103C10000E9470117ECE11FF7CCE63E084E20E9490
:103C2000E70580E20E941F0664E080E00E94E7054D
:103C300085EB96E00E94B30685E08093090369CE88
:103C4000023051F413FF03C00E947B1162CE11FFBA
:103C500060CE0E9465105DCE053019F414FF59CE78
:103C6000F3CF063061F512FDCECF13FF03C00E94E3
:103C70003C114FCE11FF4DCE0E94EB0D84E6809398
:103C800009031092A7041092A60410921103109237
:103C90009204E2E1F3E082E994E08E179F0729F0B5
:103CA0001182108212823396F8CF10920C03109278
:103CB0000B0380E40E94440C0E94940E2ACE07302D
:103CC00061F412FDC1CF13FF03C00E94651121CE24
:103CD00011FF1FCE0E94BC181CCE043108F46AC12B
:103CE0009091CC05901708F465C117FF05C080912D
:103CF000A6040E9480190DCE10FF52C0B091080397
:103D0000B983BB2309F405CE6091A6047091A70482
:103D100077278CEE800F863059F5672B19F50E94B6
:103D20005F14E0910903E4518FEFE93030F4F0E0E3
:103D3000EE0FFF1FED5FFE4F80810E94801965E04E
:103D40008CE30E94E70539818FE597E0311102C0CD
:103D500088E597E00E94B30661E0809104030E9429
:103D60001906D7CD68E070E086E00E942B14D9CF09
:103D700029E0829FF0011124E258FE4F2381348113
:103D80006217730758F0258136812617370730F000
:103D90009085911103C00E945A14C3CF1982C1CFDC
:103DA00014FF17C080910803882309F452CF1092A2
:103DB00007031092080304518FEF093038F4E02F05
:103DC000F0E0EE0FFF1FED5FFE4F80810E94801933
:103DD000A0CD11FF40C08091080381110EC0045195
:103DE000093058F4A02FB0E049E0049FF0011124FD
:103DF000E258FE4F80858823A1F080910703882335
:103E000009F487CD809104038F5F80930403893088
:103E100019F481E080930403809104030E945A19ED
:103E200078CDAA0FBB1FAD5FBE4F8C9111969C91B0
:103E30008093A6049093A70491E0909308032781B0
:103E4000223009F090E09093070391E090930403EF
:103E50000E9480195ECD13FF58C08091080388230B
:103E6000E9F12091A6043091A704809107038823EB
:103E700071F180910403D201A81BB109F10102C0C4
:103E8000EE0FFF1FAA95E2F7CF0180959095822350
:103E900093239093A7048093A6048091A6048F3F58
:103EA00089F404518FEF9FEF093040F429E0029F1D
:103EB000F0011124E258FE4F858196819093A7046A
:103EC0008093A6048091A6040E94801922CD2150DF
:103ED00031093093A7042093A604DFCF015000934B
:103EE0000903043118F484E180930903E091090384
:103EF000E4518FEFE93030F4F0E0EE0FFF1FED5F9B
:103F0000FE4F80810E94801904CD12FF02CD809166
:103F100008038823C9F18091A6049091A7042091F9
:103F20000703222379F120910403A201421B5109C6
:103F3000D10102C0AA0FBB1F4A95E2F79D018A2B4F
:103F4000932B9093A7048093A60404518FEF9FEFC7
:103F5000093040F4B9E00B9FF0011124E258FE4F04
:103F6000858196812091A6043091A704821793073A
:103F700020F41092A7041092A6048091A6040E9437
:103F80008019C7CC0196DDCF0F5F00930903091795
:103F900010F090930903E0910903E4518FEFE930A9
:103FA00030F4F0E0EE0FFF1FED5FFE4F80810E94C6
:103FB0008019AFCC063471F412FD59CE13FF05C041
:103FC0000E941F0E10920903A4CC11FFA2CC0E94E4
:103FD0003C199FCC073409F061C017FF06C06091FF
:103FE000A60482E00E94061894CC14FF0AC08091B7
:103FF000030390E09093A7048093A6040E944911C4
:1040000088CC10FF15C02091A6042093030312163C
:104010000CF07FCC203509F47CCC80910501909187
:1040200006012817190609F474CC0E941A1971CCDC
:1040300080910803882309F46CCC13FF15C080918C
:10404000A6049091A70401979093A7048093A604D7
:10405000892B21F4B092A704A092A6046091A60433
:1040600082E00E94061855CC12FF53CC8091A60422
:104070009091A70401969093A7048093A60480389A
:10408000910530F0EFE7F0E0F093A704E093A60489
:104090006091A60482E00E9406183BCC083409F027
:1040A00049C012FF06C080E00E94440C0E946511C6
:1040B00030CC13FD9CCF11FF2CCC61E089E00E9435
:1040C0006A041092110310929204E2E1F3E080E09E
:1040D0001082118212828F5F33968038C9F7109256
:1040E0000C0310920B030E94440C00E020E040E01F
:1040F00060E080E00E94731363E084E50E94E705BE
:1041000080E20E941F066EEB76E084E00E9454106D
:1041100083E5809309030E94EE046093F702709395
:10412000F8028093F9029093FA021092A704109279
:10413000A604EFCB093409F052C014FF0BC00E9453
:10414000200F81E00E94431082E00E9443100E94F1
:104150003C11DFCB13FF3EC00E94EB0D8091A60403
:104160009091A704009729F001979093A70480935A
:10417000A6041B821A826A8180E00E941206809146
:10418000A6049091A7042A813B81820F931F803857
:10419000910510F00C94032A209192042817190617
:1041A00009F010F40C94032AFC01EE0FFF1FE80F36
:1041B000F91FEE5EFC4F4281618180810E94AF0B4E
:1041C0004A815B814F5F5F4F5B834A834830510573
:1041D00091F69FCB12FF9DCB0E94E70E9ACB0B343A
:1041E00009F074C017FF06C06091A60483E00E9426
:1041F00006188FCB14FDEBCE10FF2DC05091A604F6
:10420000598350930203852F81508E3708F081CB5C
:1042100081E0809302018091130187FD15C083E046
:104220000E94431062E086E60E94E7056AE070E0C3
:1042300089810E9416070E94771041E06981809170
:1042400003030E94051465CB0E944604892B39F7AD
:104250000E94DB185ECB8091130187FF02C016FD20
:10426000F7CF80910803882309F453CB13FF14C0C0
:104270008091A6049091A70401979093A70480933E
:10428000A604892B21F4B092A704A092A604609101
:10429000A60483E00E94061812FF3BCB8091A6047F
:1042A0009091A70401969093A7048093A6048F375A
:1042B000910530F08EE790E09093A7048093A604D8
:1042C0006091A60483E00E94061823CB0C3409F009
:1042D00053C014FF0AC08091020390E09093A7049A
:1042E0008093A6040E941A1914CB10FF11C00E94DB
:1042F0000B048091A60480930201809100039091A9
:1043000001039093A7048093A6040E94F21801CBA6
:1043100080910803882309F4FCCA17FD12C080911C
:10432000A6049091A704019713FD07C012FFF1CADC
:104330008091A6049091A70401969093A70480937E
:10434000A6040E940B049091A60499839093020105
:1043500063E08EE10E94E70563E0A9818A2F90E087
:104360000E94BF0A0E9477104981609102038091E8
:1043700003030E940514CDCA0D3409F06DC014FF6B
:1043800003C00E94A610C5CA10FF32C08091A604C7
:104390009091A70490930103809300038091FF0202
:1043A00090E09093A7048093A60465E08EE40E94B9
:1043B000E7056AE070E080910003909101030E949C
:1043C00063076DEC76E086E00E9454108EE48093E3
:1043D000090381E0809308036091FF02862F90E03B
:1043E0009093A7048093A60487E00E94E10A91CAF3
:1043F00080910803882309F48CCA13FF17C08091A9
:10440000A6049091A70401979093A7048093A60413
:10441000892B21F4B092A704A092A6046091A6046F
:104420007091A70486E00E94F21773CA12FF11C0B0
:104430008091A6049091A70401969093A70480937D
:10444000A6048130984050F37092A7046092A604AD
:10445000E5CF17FF5ECAE2CF0E3409F05BC014FF50
:104460000BC080910003909101039093A704809367
:10447000A6040E94F2184DCA10FF1CC08091A60429
:104480008093FF02833208F044CA66E08CE30E9406
:10449000E7056AE070E08091FF020E941607109223
:1044A000080367ED76E087E00E9454108FE4809364
:1044B00009032FCA80910803882309F42ACA13FF2D
:1044C00015C08091A6049091A70401979093A7042A
:1044D0008093A6048F3F21F41092A7041092A604A3
:1044E0006091A60487E00E94E10A13CA12FF11CA74
:1044F0008091A6049091A70401969093A7048093BD
:10450000A604839768F3E2E2F0E0F093A704E09357
:10451000A604E6CF0F3409F086C010FF86C0E090F5
:10452000FF0220910003309101033B832A83009115
:104530000201F09002031091030361E089E00E9400
:104540006A0410920C0310920B0381E00E94440C49
:1045500010929304109294041092950432E23E1546
:1045600098F04A815B81452B79F02E2D30E0C9010E
:10457000880F991FFC01E20FF31FEB5EFE4F428193
:104580004423C1F04130E9F110939804F09297046C
:10459000402F440F400F4093960401E02091950472
:1045A0006F2D812F0E94731380E5809309030E9471
:1045B0007710AFC9AA81BB811197BB83AA8360E042
:1045C000820F931FFC01EB5EFE4F80818093950468
:1045D0008A818F77809394042A813B81220F232F35
:1045E000221F330B31953B832A838181280F298336
:1045F00080E2611101C080E03981380F309393046B
:10460000C3CF4A815B8140955095642F6170EA81E8
:10461000FB81319741705527E41BF50BF695E79523
:10462000FB83EA83CDCF013521F4112309F471C94D
:10463000A8CE0A35B9F414FDA4CE10FF6AC963E010
:1046400077E085E00E94541064EF76E086E00E94F7
:10465000541065EE76E087E00E9454108BE580935D
:10466000090357C90B3571F514FD8BCE10FF51C9E5
:1046700087E00E94431060E177E086E00E945410DA
:104680008CE58093090361E089E00E946A0410923E
:104690000C0310920B0381E00E94440C10929604CC
:1046A00010929504809198048093940480919704CB
:1046B0008093930401E020E040E060E080E00E940D
:1046C000731327C9043609F041C012FF13C080914B
:1046D000A6049091A70401969093A7048093A60442
:1046E0008038910520F01092A7041092A6040E9431
:1046F000940E0FC913FF16C08091A6049091A704D1
:10470000892B31F440E850E05093A7044093A6046D
:104710008091A6049091A70401979093A704809399
:10472000A604E5CF14FF0EC080E00E94440C0E9456
:10473000200F81E00E94431082E00E9443100E94FB
:104740006511E7C8882309F4E4C8D1CF0E3609F013
:1047500043C014FD58CA10FF0BC08091A60490916D
:10476000A7049093FE028093FD020E948318D1C893
:1047700080910803882309F4CCC813FF17C08091E7
:10478000A6049091A70401979093A7048093A60490
:10479000892B21F4B092A704A092A6046091A604EC
:1047A0007091A70485E00E94F217B3C812FF11C0F0
:1047B0008091A6049091A70401969093A7048093FA
:1047C000A6048130984050F37092A7046092A6042A
:1047D000E5CF17FF9EC8E2CF0F3609F064C014FD85
:1047E00079CA70910803798310FF2FC08091A604C5
:1047F0008A838093FC0265E084E50E94E70582E4F9
:104800000E941F066AE070E08A810E9416076EE22D
:1048100077E086E00E94541080E78093090367E008
:1048200080E00E94E7059981992319F08EE30E94A8
:104830001F068091FB02882329F08AE297E00E94FC
:10484000B30667C886E297E0FACFA981AA2309F4E4
:1048500060C813FF1AC08091A6049091A704009726
:1048600029F001979093A7048093A60466E080E066
:104870000E94E7058EE30E941F0682E40E941F0645
:104880008091A6040E941F0644C812FF09C08091AF
:10489000A6049091A7048230910540F70196E2CFDB
:1048A00017FF37C8E3CF003709F060C014FF03C01B
:1048B0000E9483182EC810FF30C0B091FC02BA834A
:1048C000E091FB02E9834B2F40556E2F8091FD0252
:1048D0009091FE020E94A017FA81F111FBC9298173
:1048E000222309F4F7C98091130180FFF3C9809155
:1048F000070190910801892B09F4ECC981E78093A5
:1049000009030E94EE046093F7027093F80280930B
:10491000F9029093FA020C94891C80910803882371
:1049200011F40C94891C13FF13C01092FB0267E072
:1049300080E00E94E7058EE30E941F068091FB0243
:10494000882389F084E597E00E94B3060C94891CC3
:1049500012FF04C081E08093FB02E9CF17FD02C083
:104960000C94891CE4CF80E597E0EECF083CA9F4D5
:1049700012FF04C00E9471180C94891C14FD48C9D0
:1049800011FD02C00C94891C84E18093090380917D
:1049900003010E9480190C94891C023D99F513FDB6
:1049A00058C912FF17C08091F602882311F40C94A5
:1049B000891C63E084E50E94E70580E20E941F06EF
:1049C0006DE377E084E00E94541087ED8093090343
:1049D0000C94891C14FD1CC911FD02C00C94891C87
:1049E00083ED8093090364E080E30E94E70580E2A1
:1049F0000E941F069092A7048092A6040E94191894
:104A00000C94891C033D51F414FDB4CF12FD02C077
:104A10000C94891C0E9419180C94891C073D09F0FC
:104A200061C013FD02C00C94891CA4CF053009F0AD
:104A300059C040910B0350910C035B834A838091D2
:104A40000001909101014817590771F0509301013D
:104A50004093000165E080E00E94E7058B810E94A1
:104A6000CA0B8A810E94CA0B80910903873D11F00D
:104A70000C94891C8091F602882361F00E94A30C9B
:104A80008983882339F066E080E00E94E705898108
:104A90000E941F060E944604892B79F48091F5023A
:104AA00081110BC081E08093F50266E082E10E94F3
:104AB000E7058BE497E00E94B3060E944604019745
:104AC00011F00C94891C8091F502882311F40C9448
:104AD000891C1092F50244E066E083E00E94EF0F2B
:104AE0000C94891C90920101809200010035A1F480
:104AF00080910B0390910C03892B09F459C085E038
:104B00000E94431086E00E94431081E580930903D0
:104B10000E9480100C94891C013511F00A3521F493
:104B20000E9480100C94891C023511F3033509F0A2
:104B300045C00E94EE040091F7021091F802209106
:104B4000F9023091FA02601B710B820B930B693EE4
:104B5000734081059105D8F00E94EE046093F7023E
:104B60007093F8028093F9029093FA028091A60460
:104B70009091A7049C012F5F3F4F3093A70420938F
:104B8000A60465E00E9419068EE20E941F0680912D
:104B90001103882311F40C94891C89E48093090380
:104BA0009092A7048092A6040E94E70E0C94891CA0
:104BB0008091990481110C94891CE3CB0C35F1F49C
:104BC00080910B0390910C03892B09F098CF809171
:104BD000990481110C94891C0E947710B092A7044B
:104BE000A092A60481E08093020141E0609102035B
:104BF000809103030E9405140C94891C013709F06D
:104C000033CF0E94EE040091F7021091F802209138
:104C1000F9023091FA02AB01BC01401B510B620B4F
:104C2000730B2091070130910801EAE0E29FC00177
:104C3000E39F900D1124B0E0A0E084179507A6072C
:104C4000B70708F011CF40EB60E08091FD02909132
:104C5000FE020E94A0170E94BC1806CF81E080933C
:104C600011030C94B01CAC3B09F421C3A03D09F422
:104C700028C3A43BB9F47C33A9F480E090E0892BED
:104C800089F08CE30E9400000DC0880F991F22E07C
:104C900030E065FD02C021E030E06071820F931FBB
:104CA0000E94320C80919A0490919B049B838A838A
:104CB0000E94E509803109F0E1C2AA81BB818C9193
:104CC000853E09F0DBC214968C911497813009F06F
:104CD000CBC013962C9113978091050190910601FA
:104CE0002817190609F0CAC212961C9112978091D2
:104CF0009804181372C0F09097041A968C91B0E83B
:104D00008B9FC0011124EA81FB8193859F77890FD6
:104D1000F81263C08681813009F5F781F9838091AB
:104D20009604F8131BC080919904813009F03AC3AE
:104D3000109299040E94360C9091950489132EC309
:104D400082E00E94440C2091940449814F5F40937B
:104D5000960401E06F2D812F0E94731320919A0415
:104D600030919B043B832A83D90116968C91169728
:104D7000823009F079C017969C911797809196041C
:104D8000981334C080919904883081F51092990469
:104D90001A968C911A9790E09C0146E0220F331FDF
:104DA0004A95E1F720781C963C911C973F77232B7E
:104DB0002093950455E0880F991F5A95E1F7807864
:104DC0001D969C919F77892B809394040E94360CAA
:104DD0008093930480E00E94F50BE0919A04F09197
:104DE0009B04FB83EA8386818230F1F5AA81BB8133
:104DF00017968C911797811137C08091990480384C
:104E000099F5F0909204F7FCEEC28F2D90E08C01A2
:104E1000000F111F080F191F0E5E1C4F1A968C9160
:104E2000B0E28B9FC00111248078EA81FB819585D7
:104E30009F77892BD8018C930E94360CF8018183CF
:104E4000AA81BB8115968C91B0E28B9FC001112481
:104E50008078EA81FB8190859F77892BD801129613
:104E60008C93F394F0929204E0919A04F0919B0455
:104E70008481823009F002C22681809103019091E1
:104E800004012817190609F0E0C12781809111015A
:104E9000909112012817190609F0D7C1858190E079
:104EA0009C01B4E0220F331FBA95E1F72078C1844A
:104EB000E894C7F82C2930E0322F222705E0880F2C
:104EC000991F0A95E1F78078C084E894C7F8C82A4A
:104ED000C20ED32ED11C9601215031093B832A8367
:104EE0001A81193058F439E0239FD0011124A258B7
:104EF000BE4F21E017968C91813009F020E083812C
:104F00008130E9F54A815B8149305105C0F58285E0
:104F100090E033853F77BC017695762F66277795AD
:104F20006795630F222309F467C276E0880F991F03
:104F30007A95E1F7807894859F77892B90E0982F78
:104F40008827680F792F711D8A810E945A14E09179
:104F50009A04F0919B048381806483834FEF19301E
:104F600038F4EA81FB81EE0FFF1FED5FFE4F4081B9
:104F7000E12C00E020E060E08C2D0E94BA12E0916C
:104F80009A04F0919B0483818230B9F48A819B81D9
:104F9000099798F482E483834FEF193038F4EA815B
:104FA000FB81EE0FFF1FED5FFE4F4081E12C00E023
:104FB00020E060E08C2D0E94BA12E0919A04F091FA
:104FC0009B048381833009F04BC0AA81BB81A93047
:104FD000B10508F045C0628570E09B013695322F1F
:104FE000222737952795332783858F77820F932F35
:104FF000911D26E0660F771F2A95E1F760787727E5
:1050000024852F77622B2FEF3FEF193038F4FD0105
:10501000EE0FFF1FED5FFE4F208131818623972326
:10502000892B09F4EBC1622B732B8A810E945A14DD
:10503000E0919A04F0919B048381806483834FEF15
:10504000193038F4EA81FB81EE0FFF1FED5FFE4F50
:105050004081E12C00E020E060E08C2D0E94BA123B
:10506000E0919A04F0919B048381853009F083C01C
:105070002A813B812930310508F07DC0828590E08E
:10508000BC01B6E0660F771FBA95E1F7607824851A
:105090002F77F62EF22ABC0105E0660F771F0A95DE
:1050A000E1F7607805850F77062B9C0144E0220F1D
:1050B000331F4A95E1F7207866856F77262B298381
:1050C00063856F779695982F882797958795860F94
:1050D000682F70E08A810E945A14EA80E3946F2D51
:1050E00070E08E2D0E945A14FA80F394F394602F8E
:1050F00070E08F2D0E945A140A810D5F3981632F51
:1051000070E0802F0E945A14E0919A04F0919B0461
:105110008381806483834FEF193038F4EA81FB8107
:10512000EE0FFF1FED5FFE4F408158E02FEF5E1541
:1051300038F0EE2DF0E0EE0FFF1FED5FFE4F208107
:1051400078E08FEF7F1538F0EF2DF0E0EE0FFF1FC6
:10515000ED5FFE4F8081EE24EA94093038F4E02FB1
:10516000F0E0EE0FFF1FED5FFE4FE080082F60E0E4
:105170008C2D0E94BA12E0919A04F0919B048381D5
:105180008630C1F58A819B810997A0F586E48383E7
:105190004FEF193038F4EA81FB81EE0FFF1FED5F0E
:1051A000FE4F4081EA81EF5F2FEFE93030F4F0E00D
:1051B000EE0FFF1FED5FFE4F2081EA81EE5F0FEFE4
:1051C000E93030F4F0E0EE0FFF1FED5FFE4F00819D
:1051D0009A819D5F9983EE24EA94993038F4A92F3F
:1051E000B0E0AA0FBB1FAD5FBE4FEC9060E08C2D0E
:1051F0000E94BA12E0919A04F0919B048381883056
:1052000061F488E4838340911101E42E009103014D
:1052100020E06DE08AE30E94BA12E0919A04F091D6
:105220009B0483818F3089F40E945F14E0919A047B
:10523000F0919B04838180648383E12C00E020E073
:1052400040E06D2D8C2D0E94BA12E0919A04F091ED
:105250009B048681811112C0878181110FC08381D7
:10526000873061F487E4838340911101E42E00913B
:10527000030120E06DE08AE30E94BA1280E090E032
:10528000892B11F40C94D01B0E9400000C94CD1BB0
:1052900080E090E0892B09F405CD81E00E940000B8
:1052A00001CD462F407260710E94050CFBCC20E0BE
:1052B00030E0232B09F4F6CC407260710E940000AC
:1052C000F1CC7076703221F07036B1F17111EACC08
:1052D00080E090E0892B09F4E5CCC9019695982FE0
:1052E00088279795879580789F70840F951FA5E0F4
:1052F00035952795AA95E1F7217001963381448170
:1053000050E03D3731F070E8379FF00111244E0F27
:105310005F1F6F7099F1623099F1643099F16630D6
:1053200099F1683099F16A3099F16C3099F16E30E9
:1053300099F10E940000B6CC80E090E0892B09F43E
:10534000B1CC23812A83822F807D803109F0AACCC1
:10535000048111E031E0398341E08A81812309F041
:1053600040E0202F2123110F698180E80E94000076
:1053700049814F5F4983453079F794CC61E4D9CFB7
:1053800062E4D7CF63E4D5CF64E4D3CF65E4D1CF73
:1053900066E4CFCF67E4CDCF68E4CBCF81E00E9455
:1053A000F50BDCCC823081F4109299040E94360C0B
:1053B00090919404891306C083E00E94440C2091CC
:1053C0009304C3CC82E0EBCF833009F0C7CC1092BA
:1053D00099040E94360C90919304891302C080E0D6
:1053E000DECF84E0DCCF81E080931103109299043A
:1053F00080E00E94F50B38CD80E0A0CD60957095DF
:105400006223732312CE0E94BB0A0C94891CF99963
:10541000FECF92BD81BDF89A992780B50895262FB9
:10542000F999FECF1FBA92BD81BD20BD0FB6F89489
:10543000FA9AF99A0FBE01960895AA1BBB1B51E177
:1054400007C0AA1FBB1FA617B70710F0A61BB70BF4
:10545000881F991F5A95A9F780959095BC01CD0199
:105460000895A1E21A2EAA1BBB1BFD010DC0AA1FA5
:10547000BB1FEE1FFF1FA217B307E407F50720F0BD
:10548000A21BB30BE40BF50B661F771F881F991F38
:105490001A9469F760957095809590959B01AC0181
:1054A000BD01CF010895EE0FFF1F0590F491E02D8F
:1054B00009946817790768F4FB01DC01E40FF51F14
:1054C000A40FB51F02C002900E9241505040D8F771
:1054D00008950C94722ADC0101C06D934150504034
:1054E000E0F70895FB01DC0102C001900D924150EC
:0A54F0005040D8F70895F894FFCF5C
:1054FA00FFFF01FFFFFFFFFFFFFFFFFFFFFFFFFFB0
:10550A00FFFFFFFFFF1F10011B10015F00015B007F
:10551A00010F10000710002F10012710016F000162
:10552A00670001177000377000376000C00001D0B3
:10553A000001811000911000A11000B1100080102C
:10554A0000901000A01000B01000813000913000CF
:10555A00A13000B13000803000903000A03000B09F
:10556A0030008820008C20008800008C0000005049
:10557A000001007E00000001500001007E000000D2
:10558A00020A000000FF0000000300000000000003
:10559A0000010400000000000000010500000000F6
:1055AA0000000001060800000008000000070600CD
:1055BA000600060000010800000000FF000200319A
:1055CA0032334100343536420037383943002A3005
:1055DA002344001000200040008000FE00FD00FB74
:1055EA0000F7000000000090096309D30939095C3B
:1055FA000949093A0900000000DD07FA04D309E065
:02560A00070097
:00000001FF
