:100000000C948B020C94B3020C94B3020C94B302C4
:100010000C94B3020C94B3020C94B3020C94B3028C
:100020000C94B3020C94B3020C94DF160C94581584
:100030000C94B3020C94B3020C94B3020C94B3026C
:100040000C94EF130C94B3020C94B3020C94B3020F
:100050000C94B3020C94B3020C94B3020C94B3024C
:100060000C9439140C94B3025374657565726E3F29
:100070000053562D456469746F723F004D6F64756F
:100080006C2D41647265737365004D6F64756C2DE2
:10009000416472657373656E3F004D6F64756C2DBE
:1000A00053756241647265737365003F3F3F004161
:1000B00064723A00506F72743A004E657565204163
:1000C000647265737365004B6F6D6D756E696B61FE
:1000D00074696F6E21004665686C6572206265699F
:1000E000007769726420676573656E6465742E2E8F
:1000F0002E00506F72742D416472657373650054E5
:10010000656C656772616D6D2D41727400307800A9
:100110002056006665727469670056657273696F70
:100120006E20004C6F636F494F2D53562D45646907
:10013000746F72003F3F3F00436F6E666967203106
:100140000053572D49440056657273696F6E006EF7
:100150006F742075736564006E6F742075736564C9
:10016000006E6F7420757365640044656C6179205E
:100170004230004F776E49440044657669636549B3
:100180004400726F0043560050756C733220486112
:10019000726452657365740050756C733220536FCE
:1001A000667452657365740050756C7331204861D4
:1001B000726452657365740050756C733120536FAF
:1001C00066745265736574004669782E6F75743273
:1001D000206F6620626C34004669782E6F75743229
:1001E000206F6620202034004669782E6F757432A7
:1001F000206F6620626C20004669782E6F7574321D
:10020000206F6620202020004669782E6F7574329A
:10021000206F6E20626C34004669782E6F757432E0
:10022000206F6E20202034004669782E6F7574325E
:10023000206F6E20626C20004669782E6F757432D4
:10024000206F6E20202020004669782E6F75743153
:10025000206F6620626C34004669782E6F757431A9
:10026000206F6620202034004669782E6F75743127
:10027000206F6620626C20004669782E6F7574319D
:10028000206F6620202020004669782E6F7574311B
:10029000206F6E20626C34004669782E6F75743161
:1002A000206F6E20202034004669782E6F757431DF
:1002B000206F6E20626C20004669782E6F75743155
:1002C000206F6E20202020004F7574707574206F91
:1002D000636375702E626C004F7574707574206F57
:1002E000636375702E202000436F6E74322E506E43
:1002F000742E466565646200436F6E74312E506ED5
:10030000742E466565646200537769746368506E45
:10031000742E4665656462005075736842746E2E73
:1003200068696720696E64005075736842746E2E48
:1003300068696720202020005075736842746E2E13
:100340006C6F7720696E64005075736842746E2E0E
:100350006C6F772020202000546F67676C652053F6
:100360007769742E696E6400546F67676C652053FB
:100370007769742E20202000426C636B4465742ED4
:100380006869672064656C00426C636B4465742E19
:100390006869672020202000426C636B4465742EDE
:1003A0006C6F772064656C00426C636B4465742EDF
:1003B0006C6F7720202020003F3F3F00206F6E2091
:1003C00000206F66660020420053746F6572756E80
:1003D00067005374617475733F00416266726167B0
:1003E00065206C6165756674004C6F636F494F2DB5
:1003F000496E69743F004E657565722054797000CE
:10040000202D3E2073706569636865726E3F0061E0
:100410006E67657363686C6F7373656E3F006E75AE
:10042000722065696E204C6F636F494F00696E6979
:100430007469616C6973696572742E2E2E004C6F3D
:10044000636F494F20776972640042656F62616330
:100450006874656E3F006175730065696E00417573
:100460007367616E67737374617475730043563F8D
:100470000054617374617475722D5465737400490E
:100480006E626574726965626E61686D653F004990
:1004900032432D5363616E3F0020202020004374BF
:1004A000726C006175730065696E006661696C65E8
:1004B000640073746F7265640000000000240027FC
:1004C000002A0000000000250028002B000000008A
:1004D0000023002600290004040404040404040288
:1004E00002020202020303030303030102040810D1
:1004F000204080010204081020010204081020009E
:1005000000000800020100000304070000000000D2
:1005100000000000351911241FBECFEFD8E0DEBF68
:10052000CDBF12E0A0E0B1E0EEEEF2E502C0059032
:100530000D92A432B107D9F726E0A4E2B2E001C0DF
:100540001D92AB32B207E1F712E0CBE8D2E004C073
:100550002197FE010E945429CA38D107C9F70E9489
:10056000BC190C9475290C94000091E09093A70598
:100570008093C9051092A8051092CA0508950895A0
:10058000089580914D0590914E05009739F481E0D2
:1005900090E090934E0580934D0508954197E8F3C0
:1005A00080E190E0F6CF833081F028F4813099F03B
:1005B0008230A9F008958730A9F08830C9F08430DE
:1005C000B1F4809180008F7D03C0809180008F778F
:1005D00080938000089584B58F7784BD089584B595
:1005E0008F7DFBCF8091B0008F778093B00008950E
:1005F0008091B0008F7DF9CFCF93DF93E4E0F5E0F9
:100600008491E0EFF4E0D491ECEDF4E0C491CC23DC
:10061000A1F081110E94D302EC2FF0E0EE0FFF1F3A
:10062000E353FB4FA591B491EC91ED2381E090E071
:1006300009F480E0DF91CF91089580E090E0FACF57
:100640001F93CF93DF93282F30E0F901E150FB4F48
:100650008491F901E551FB4FD491F901E952FB4F27
:10066000C491CC23A9F0162F81110E94D302EC2F44
:10067000F0E0EE0FFF1FED53FB4FA591B4918FB744
:10068000F894EC91111108C0D095DE23DC938FBF54
:10069000DF91CF911F910895DE2BF8CFCF93DF9399
:1006A00090E0FC01E551FB4F249189529B4FFC01E6
:1006B00084918823D1F090E0880F991FFC01E754C2
:1006C000FB4FA591B491FC01ED53FB4FC591D49123
:1006D000623071F49FB7F8943C91822F8095832308
:1006E0008C93E8812E2B28839FBFDF91CF910895B3
:1006F0008FB7F894EC912E2B2C938FBFF6CF3FB78A
:10070000F8948091AB049091AC04A091AD04B091A9
:10071000AE0426B5A89B05C02F3F19F00196A11D78
:10072000B11D3FBFBA2FA92F982F8827BC01CD013B
:10073000620F711D811D911D42E0660F771F881F9A
:10074000991F4A95D1F708952FB7F8946091A7049F
:100750007091A8048091A9049091AA042FBF0895D4
:10076000AF92BF92CF92DF92EF92FF920F931F93BF
:10077000CF93DF936C017B018B01040F151FEB01FD
:100780005E01AE18BF08C017D10759F06991D601B4
:10079000ED91FC910190F081E02DC6010995892B26
:1007A00079F7C501DF91CF911F910F91FF90EF90E5
:1007B000DF90CF90BF90AF9008952091D502260F83
:1007C0003327331F21323105ECF42091A105FC01C0
:1007D00090E080E0243069F082E00895A091D50295
:1007E0002191AC014B545D4FA40FB52FB11D2C933B
:1007F0000196861798F38091D502680F6093D50211
:1008000080E0089581E008951092A10581E0809331
:10081000A00510927B0561E082E10E94200361E067
:1008200083E10E942003E9EBF0E080818E7F8083EA
:1008300080818D7F808388E48093B80085E48093F5
:10084000BC00089510925805109257051092A80503
:100850001092CA050E9404048FEB92E09093520517
:100860008093510580EC92E09093500580934F0562
:100870000895CF93DF9391E09093B4028823B9F069
:10088000C091B800D091BA008091BC008A7B80935F
:10089000BC0060E082E10E94200360E083E10E94EE
:1008A00020030E940404D093BA00C093B800DF91E3
:1008B000CF910895CF92DF92EF92FF920F931F9303
:1008C000CF93DF93D091CA0581E0D13208F09CC06C
:1008D000C091C9050E947F036B017C018091A10535
:1008E00081116CC082E08093A10581E08093A00516
:1008F0008FEF80939F0510929E05D0939D05A9EAE6
:10090000B5E0EDE7F5E080E0D8138DC010927C05EE
:1009100080917C05CC0FC82BC0937C0580917B0512
:10092000813009F084C010927B050E947F036B0127
:100930007C0180917C058093BB008091A305909100
:10094000A405A091A505B091A605892B8A2B8B2B18
:10095000A1F00E947F030091A3051091A4052091AE
:10096000A5053091A6056C197D098E099F0906170A
:1009700017072807390708F442C08091BC0083FD9F
:10098000D8CF85EC8093BC000E947F036B017C0173
:100990008091A105823009F44CC080919F058F3F62
:1009A00009F469C080919F05803209F466C0809186
:1009B0009F05803309F463C084E026C08091A305BD
:1009C0009091A405A091A505B091A605892B8A2B2D
:1009D0008B2B09F483CF0E947F030091A305109114
:1009E000A4052091A5053091A6056C197D098E09F5
:1009F0009F09061717072807390708F06FCF80915E
:100A0000A2050E94390485E01092A8051092CA053B
:100A10001092A705DF91CF911F910F91FF90EF905A
:100A2000DF90CF9008959D9191938F5F6DCF85EE6C
:100A3000A9CF8091A3059091A405A091A505B0919F
:100A4000A605892B8A2B8B2B09F4A2CF0E947F034A
:100A50000091A3051091A4052091A5053091A6054C
:100A60006C197D098E099F09061717072807390792
:100A700008F08ECFC4CF80E0C7CF82E0C5CF83E03F
:100A8000C3CF0895E091580580915705E81730F4D9
:100A9000F0E0E75AFA4F808190E008958FEF9FEFE2
:100AA000089590915805809157052FEF3FEF9817C3
:100AB00048F4E92FF0E0E75AFA4F208130E09F5FD9
:100AC00090935805C9010895809157059091580554
:100AD000891B990B0895CF92DF92EF92FF920F93AB
:100AE0001F93CF93DF937C01CB018A012091A7054F
:100AF000222389F0EB016B01C40ED51ECC15DD0558
:100B000069F06991D701ED91FC910190F081E02DA0
:100B1000C7010995F3CF642F0E94DD03C801DF915F
:100B2000CF911F910F91FF90EF90DF90CF9008959C
:100B3000CF93DF931F92CDB7DEB769832091A705CE
:100B40002223F9F02091CA05203258F021E030E04C
:100B5000FC013383228390E080E00F90DF91CF91FE
:100B600008958091A805E82FF0E0E755FA4F9981A4
:100B700090838F5F8093A8058093CA0581E090E001
:100B8000ECCF61E0CE0101960E94DD03F7CFCF9359
:100B9000C62F6093790570937A050E94B5026C2F79
:100BA0008BEC95E00E949805CF910C945A04682F25
:100BB0008BEC95E00C949805CF93DF93EC011882B1
:100BC0000E942204888180620E94B50280E00E9417
:100BD000D7058FEF0E94D7050E945A048881806252
:100BE0000E94B50281E00E94D7058FEF0E94D705D1
:100BF000DF91CF910C945A04CF93DF93D62FC72F58
:100C0000FC01808180620E94B50282E10E94D705CA
:100C10008D2F0E94D7058C2F0E94D705DF91CF9191
:100C20000C945A049C01DC01A058BF4FEC9191E058
:100C30009E0F9C93E20FF32FF11D608397FD1C9292
:100C40000895FC0180818076803611F481810895B9
:100C50008081829586708E5F0895CF92DF92EF92A9
:100C6000FF920F931F93CF93DF93EC0109E11EE2F4
:100C7000EE24E394F12C93E0D92ECC24C394CE013E
:100C80000E9421068093BD04E091BD04E1501092C2
:100C9000BC048FEF9091BC049E1768F4A091BC0433
:100CA000AC0FBD2FB11D9C9189279091BC049F5F13
:100CB0009093BC04EFCFEC0FFD2FF11D8083F894CF
:100CC0008091BB04813059F48091BA04811738F0C7
:100CD0001092BB0480916F008D7F80936F00789499
:100CE0008091BB04813031F48091BA04843138F2B0
:100CF000C12CC5CF8091BB0481110EC0F8948091A6
:100D00006F008F7D80936F00B59B09C080916F004D
:100D1000806280936F007894C110B1CF56C0E0918B
:100D2000B804F091B90480819091B704970101C093
:100D3000220F9A95EAF7822B80838091840090910C
:100D400085008A5A9C4F9093B6048093B504809195
:100D5000B5049091B60490938900809388007894AC
:100D6000D093B404C093B3041092BC041092B204A4
:100D700088818093B104D092BB041092BA04B19AD6
:100D800080916F00826080936F008091BB048330FC
:100D9000E1F38091B2048823B1F0E091AF04F091C7
:100DA000B004E757FF4F8081918101969183808342
:100DB00083E090E0DF91CF911F910F91FF90EF9032
:100DC000DF90CF9008958091BB041B3108F0115043
:100DD000015009F052CF8091490590914A05019642
:100DE00090934A058093490586E090E0E3CFCF9346
:100DF000DF93CDB7DEB760970FB6F894DEBF0FBEB6
:100E0000CDBF0197811528E0920708F03FC020E58B
:100E1000240F2330D8F5413BF9F0423B59F19C01B6
:100E2000220F232F221F330B31958F77611112C0B0
:100E3000206190EB99838A832B83CE0101960E94D7
:100E40002D0660960FB6F894DEBF0FBECDBFDF91C2
:100E5000CF9108952063EDCF9C01220F232F221FF5
:100E6000330B31958F77611103C0206191EBE2CF95
:100E70002063FCCF292FAC01569547954F7780FD15
:100E8000206282EB89834A832061D6CF85E090E09F
:100E9000D8CFD9011C92FA011082DB011C92803854
:100EA0009105B8F4E0919C04E817190691F088F0D8
:100EB000FC01EE0FFF1FE80FF91FE45EFC4F80817D
:100EC0008C938181DA018C938281F901808381E0A6
:100ED000089580E00895811108C0109216031092C1
:100EE000150360E089E00C94200390E090931603D2
:100EF00080931503F6CFCF93DF93EC018091A30489
:100F0000803401F56623F1F081E080931003909125
:100F10009C04E92FF0E09F01220F331FD901AE0F8F
:100F2000BF1FA45EBC4FCD93DC93411140E1E20FA3
:100F3000F31FE45EFC4F428381E0890F87FD05C00B
:100F400080939C04DF91CF91089510929C04FACF76
:100F5000462F60E10C947B07E091A404F091A50476
:100F6000828520E1829FC0011124807896859F7739
:100F7000892B08958093A3040E94A4036093170310
:100F8000709318038093190390931A0308950E9495
:100F9000220489E30E94B5020E945A04882311F1B9
:100FA00081E20E94B5020E945A0481111DC081E0B5
:100FB00090910103911114C0882331F081E290E0F7
:100FC0009093D8058093D7056FEF70E08091D70597
:100FD0009091D8050E94C7051092560510925505AC
:100FE00081E003C080E0E4CF80E0809301030895B6
:100FF000089590E080E008958F929F92AF92BF9203
:10100000CF92DF92EF92FF921F93CF93DF93D82F6F
:10101000162F0E947F036B017C018091A105811135
:1010200066C0C12F81E08093A1058093A0059FEF4A
:1010300090939F0510929E05910F90939D0580932C
:101040007C0580917C05DD0FD82BD0937C058091A9
:101050007B05813009F082C010927B050E947F03DE
:101060006B017C0180917C058093BB008091A3057E
:101070009091A405A091A505B091A605892B8A2B76
:101080008B2BA1F00E947F038090A3059090A40574
:10109000A090A505B090A6056C197D098E099F0941
:1010A00086169706A806B90608F442C08091BC00CF
:1010B00083FDD8CF85EC8093BC000E947F036B0139
:1010C0007C018091A105813009F44AC080919E0580
:1010D000811710F4C0919E05ADE7B5E0E9E5F5E0B4
:1010E00080E08C1751F19D9191938F5FFACF8091A1
:1010F000A3059091A405A091A505B091A605892B03
:101100008A2B8B2B09F489CF0E947F038090A30543
:101110009090A405A090A505B090A6056C197D0936
:101120008E099F0986169706A806B90608F075CF9E
:101130008091A2050E943904C0E010925805C09326
:1011400057058C2FDF91CF911F91FF90EF90DF908B
:10115000CF90BF90AF909F908F90089585EEABCFCA
:101160008091A3059091A405A091A505B091A60535
:10117000892B8A2B8B2B09F4A4CF0E947F038090AC
:10118000A3059090A405A090A505B090A6056C19A4
:101190007D098E099F0986169706A806B90608F0EC
:1011A00090CFC6CFCF92DF92EF92FF920F931F9313
:1011B000CF93DF93C0915505D0915605E090D705A8
:1011C000F090D805FE01EE0FFF1FE350FE4F608147
:1011D0007181C7010E94C70595EFC92E91E0D92EF4
:1011E00010E000E061E070E0C7010E94FC078BECBA
:1011F00095E00E945105F601419151916F012091B6
:10120000790530917A058227932784179507A1F4F1
:1012100085E08C9FF0018D9FF00D1124EF51FE4F62
:10122000E00FF11F8081082E000C990B909354055C
:101230008093530580E00FC00F5F1F4F04301105EE
:1012400089F68091530590915405009769F01092AA
:10125000540510925305DF91CF911F910F91FF908C
:10126000EF90DF90CF9008956FEF70E0C7010E947C
:10127000C7052196C430D10529F0D0935605C093F7
:101280005505D8CF1092560510925505D3CFFF9231
:101290000F931F93CF93DF938C01C62FDCE0683050
:1012A00010F0C850DDE0F801808180620E94B50234
:1012B0008D2F0E94D7050E945A04F8018081806218
:1012C00061E070E090E00E94FC078BEC95E00E94EA
:1012D0005105F82EF801808180620E94B5028D2FA1
:1012E0000E94D70581E090E001C0880FCA95EAF717
:1012F0008F290E94D705DF91CF911F910F91FF9009
:101300000C945A040F931F93CF93DF938C01C62F35
:10131000D2E1683010F0C850D3E1F80180818062DA
:101320000E94B5028D2F0E94D7050E945A04F80131
:101330008081806261E070E090E00E94FC078BECAD
:1013400095E00E945105992702C095958795CA9509
:10135000E2F78170DF91CF911F910F910895FF9275
:101360000F931F93CF93DF931F92CDB7DEB78C01FE
:101370006983F42EF8014783608785E090E09583C8
:101380008483642FCE0101960E948209F80116829F
:101390006F2DCE0101960E948209882319F083E007
:1013A000F80186830E94A403F8016083718382831D
:1013B00093830F90DF91CF911F910F91FF9008952C
:1013C000EF92FF920F931F93CF93DF938C01C62F61
:1013D000E42E84E1F82ED2E1683020F0C85095E187
:1013E000F92ED3E1F801808180620E94B5028F2D31
:1013F0000E94D7050E945A04F8018081806261E052
:1014000070E090E00E94FC078BEC95E00E94510593
:1014100021E030E001C0220FCA95EAF7F1E0C82FC1
:10142000C22BEF1619F02095C22FC823F801808136
:1014300080620E94B5028D2F0E94D7058C2F0E94DA
:10144000D705DF91CF911F910F91FF90EF900C94F2
:101450005A04FC01962F828D8F3F31F0603140F4A9
:10146000CF014B960C94E009642F892F0C94200334
:1014700008950F931F93CF93DF93C62F8C01055EC2
:101480001F4FD1E062FB442740F94D2768E0C801B7
:101490000E94E009C1FB442740F94D2767E0C801DD
:1014A0000E94E0094C2F4095417066E0C801DF9131
:1014B000CF911F910F910C94E009FF920F931F930E
:1014C000CF93DF938C01C62FF42ED0E0683010F05C
:1014D000C850D1E0F801808180620E94B5028D2F52
:1014E0000E94D7050E945A04F8018081806261E061
:1014F00070E090E00E94FC078BEC95E00E945105A3
:1015000021E030E001C0220FCA95EAF7C82FC22BB4
:10151000FF2019F02095C22FC823F8018081806236
:101520000E94B5028D2F0E94D7058C2F0E94D705EF
:10153000DF91CF911F910F91FF900C945A0460316D
:1015400010F40C945D0A0895CF93DF93EC0140E012
:101550006E810E94290A41E06E81CE010E94290A13
:1015600040E06E81CE010E94290A8BE891E001974C
:10157000F1F7DF91CF910895AF92BF92CF92DF92B2
:10158000EF92FF920F931F93CF93DF93EC018A8D1D
:101590008E01095F1F4FC62ED12C8F3F09F480C0EA
:1015A0007E018BE1E80EF11C8B8D80620E94B502FA
:1015B00082E10E94D7050E945A048B8D806262E00E
:1015C00070E090E00E94FC078BEC95E00E945105D2
:1015D000B82E8BEC95E00E94510560E0782FCB018E
:1015E0008B29F80130E020E001E010E04191B801E2
:1015F000042E02C0660F771F0A94E2F7609570957B
:1016000086239723B601022E02C0759567950A942A
:10161000E2F76170772702C0660F771F4A95E2F7FD
:10162000862B972B2F5F3F4F24303105F9F62E8103
:10163000680102C0CC0CDD1C2A95E2F7C094D0945E
:10164000C822D922B601C7010E94FC058E81B801CB
:1016500002C0660F771F8A95E2F7C62AD72AB6011D
:10166000C7010E94FC058E81B80102C0660F771F7A
:101670008A95E2F7609570956C217D21C7010E94E3
:10168000FC058BE891E00197F1F7DF91CF911F9175
:101690000F91FF90EF90DF90CF90BF90AF900895A3
:1016A000F12CE12C5E01EBE1AE0EB11CF801819151
:1016B0008F019A8D9F3F39F141E0682FC5010E944B
:1016C0009F0AA6010E2C02C0559547950A94E2F791
:1016D0004170F80131976081CE010E94290AFFEF25
:1016E000EF1AFF0A84E0E816F10401F7CE01DF915A
:1016F000CF911F910F91FF90EF90DF90CF90BF900F
:10170000AF900C94A40A61E00E944E03DACFAF922E
:10171000BF92CF92DF92EF92FF920F931F93CF93DE
:10172000DF93EC01F62E6C810E94290A6D816F3FD8
:1017300021F040E0CE010E94290A0F2D10E08C8993
:1017400084FF3BC06E0187E0C80ED11CF12CE12C58
:101750005E01EBE1AE0EB11CF60181916F019A8D35
:101760009F3F39F141E0682FC5010E949F0AA801FF
:101770000E2C02C0559547950A94E2F74170F60188
:1017800031976081CE010E94290AFFEFEF1AFF0A0C
:1017900088E0E816F10401F7CE01DF91CF911F91A7
:1017A0000F91FF90EF90DF90CF90BF90AF900C948F
:1017B000A40A61E00E944E03DACFB80184E0759577
:1017C00067958A95E1F7CE010E94BC0A6F2DCE0184
:1017D000DF91CF911F910F91FF90EF90DF90CF900D
:1017E000BF90AF900C94BC0A41E00E94870B81E04F
:1017F00090E008950F931F93CF93DF938C01D0E077
:10180000C0E0F801EC0FFD1F6491662339F041E060
:101810008AED95E00E94870B2196F3CFCE01DF91F0
:10182000CF911F910F91089583E191E00C94FA0BF1
:1018300041E0682F8AED95E00E94870B81E090E0FF
:10184000089540E00C94870BCF93DF93CDB7DEB7BC
:1018500028970FB6F894DEBF0FBECDBF98E0E5E144
:10186000F1E0DE01119601900D929A95E1F79091C9
:10187000F205961708F46FEF262F30E0220F331F82
:1018800041E050E04C0F5D1F240F351FF9016081CE
:10189000680F60688AED95E028960FB6F894DEBF71
:1018A0000FBECDBFDF91CF910C94210C1F93CF932E
:1018B000DF93CDB7DEB7C654D1090FB6F894DEBFBB
:1018C0000FBECDBF182F61E080E00E94240C8091F4
:1018D0001203882319F08EE30E94180C88EB93E022
:1018E000133208F09CC088EA93E09A83898388E9E0
:1018F00093E09C838B8388E893E09E838D8388E7C5
:1019000093E098878F8388E693E09A87898788E5B4
:1019100093E09C878B8788E493E09E878D8788E39C
:1019200093E0988B8F8788E293E09A8B898B88E18C
:1019300093E09C8B8B8B88E093E09E8B8D8B88EF64
:1019400092E0988F8F8B88EE92E09A8F898F88ED46
:1019500092E09C8F8B8F88EC92E09E8F8D8F88EB2E
:1019600092E098A38F8F88EA92E09AA389A388E9EE
:1019700092E09CA38BA388E892E09EA38DA388E7C6
:1019800092E098A78FA388E692E09AA789A788E5B6
:1019900092E09CA78BA788E492E09EA78DA788E39E
:1019A00092E098AB8FA788E292E09AAB89AB88E18E
:1019B00092E09CAB8BAB88E092E09EAB8DAB88EF66
:1019C00091E098AF8FAB88EE91E09AAF89AF88ED48
:1019D00091E09CAF8BAF88EC91E09EAF8DAF88EB30
:1019E00091E021969FAF8EAF219788EA91E02396F0
:1019F0009FAF8EAF239788E991E025969FAF8EAF7A
:101A0000259788E891E027969FAF8EAF2797E12F23
:101A1000F0E0EE0FFF1FEC0FFD1F81819281CA5B8A
:101A2000DF4F0FB6F894DEBF0FBECDBFDF91CF9171
:101A30001F910C94FA0BCF93DF93EC0161E080E0EF
:101A40000E94240CCE01DF91CF910C94FA0B61E03F
:101A50000E94210C8BE39FE10197F1F70895CF934A
:101A6000DF93EC018AED95E00E94270D60E080E0B5
:101A70000E94240CCE01DF91CF910C94FA0B81EEE1
:101A800090E00E942F0D82E580931303089586ED68
:101A900090E00E942F0D81E58093130361E080E0C8
:101AA0000E94240C87EC90E00C94FA0B8AE890E0FA
:101AB0000E942F0D88E4809313031092120308955F
:101AC00081E790E00E942F0D86E48093130310922B
:101AD0001203089588E690E00E942F0D87E080931E
:101AE00013031092120308958F929F92AF92BF92A8
:101AF0000F931F93CF93DF93CDB7DEB7A1970FB6A8
:101B0000F894DEBF0FBECDBF19A2423008F44AE000
:101B10008E010F5D1F4F842E912CB12CA12CA5019D
:101B200094010E943229E62FB901CA01EA3044F536
:101B3000E05DD801EE938D01232B242B252B79F723
:101B400090E080E0109769F0FD0101900020E9F736
:101B50003197AF014A1B5B0BBD018AED95E00E94F6
:101B6000B003A1960FB6F894DEBF0FBECDBFDF91D4
:101B7000CF911F910F91BF90AF909F908F9008953C
:101B8000E95CD7CFCF93C82F87FD21C080E30E94A7
:101B9000180CC034E0F480E30E94180CC032B8F492
:101BA00080E30E94180CC03190F480E30E94180C6E
:101BB000C83068F480E30E94180CC43040F480E31D
:101BC0000E94180CC23018F480E30E94180C6C2F8D
:101BD00070E090E080E042E0CF910C94740DCF93E0
:101BE000DF93EC016530D8F0C03187E2D80750F4BC
:101BF00080E30E94180CC83E83E0D80718F480E305
:101C00000E94180CC436D10518F480E30E94180C09
:101C1000CA30D10550F480E30E94180C06C064302D
:101C200051F3633079F3623099F3BE0190E080E0C4
:101C30004AE0DF91CF910C94740D0F931F93CF93D3
:101C40008B01C42F63E090E00E94EF0D86EC93E0DF
:101C50000E94FA0B8C2F8770805D0E94180C80E226
:101C60000E94180C64E0C8010E94EF0D8CEB93E019
:101C7000C4FD02C081EC93E0CF911F910F910C94B1
:101C8000FA0B8AED95E00E94270D60E080E00E944B
:101C9000240C80914D0590914E05109210038038D0
:101CA000910560F5FC01EE0FFF1FE80FF91FE45EE0
:101CB000FC4F608171816115710501F142810E94C3
:101CC0001D0E61E080E00E94240C80914D059091F2
:101CD0004E050196109210038038910578F4FC01AE
:101CE000EE0FFF1FE80FF91FE45EFC4F608171816A
:101CF0006115710519F042810C941D0E63E090E0AE
:101D00000C94EF0DCF93DF93D62FC42F63E090E0B8
:101D10000E94EF0D8FE20E94180C63E08D2F90E07F
:101D20000E94EF0D80E191E00E94FA0B63E08C2F9E
:101D300090E0DF91CF910C94EF0DCF93DF9300D023
:101D40001F92CDB7DEB78AED95E00E94270D60E0C7
:101D500080E00E94240C80914D0590914E050196E3
:101D600090934E0580934D059E012D5F3F4FAE0130
:101D70004E5F5F4FBE016F5F7F4F0E944907882310
:101D800031F14B816A8189810E94820E61E080E09D
:101D90000E94240C80914D0590914E059E012D5F6F
:101DA0003F4FAE014E5F5F4FBE016F5F7F4F0196A9
:101DB0000E944907882359F04B816A8189810E94DA
:101DC000820E0F900F900F90DF91CF9108950E9497
:101DD000140CF7CF82EF90E00E942F0D8EE68093D7
:101DE000130381E08093120380910803909109030B
:101DF00090934E0580934D0561E080E00E94240C95
:101E00008EE30E94180C64E080914D0590914E0580
:101E10000C94EF0DCF93DF9384EB90E00E942F0D95
:101E20008CE48093130320919D0450919E04709143
:101E30009F0410920A0310920C0310920B0330E0DF
:101E4000E7E2F1E040E08081781361C0628180EFD9
:101E500090E0613011F480ED90E082239323A18122
:101E6000A817190609F053C0C9019695982F88271D
:101E700097958795807897705F77852B662321F0FB
:101E80006130C9F1C0E008C0019690930C038093C3
:101E90000B0340930A03C1E08091020190E090930C
:101EA0004E0580934D050E94C10280914D0562E070
:101EB00090E00E94EF0D60E088E00E94240C8FEA21
:101EC00090E00E94FA0BCC2341F164E080910B0377
:101ED00090910C030E94EF0D1092120380910A035F
:101EE000C11101C08FEF0E94560C81E08093120354
:101EF000DF91CF91089525FB552750F9C52F20E09C
:101F0000D22F2196880F991F8C0F9D1FBECF4F5F38
:101F10003396433209F097CFB5CF8BEA90E00E9419
:101F2000FA0BDACF83E291E00E942F0D8AE191E073
:101F30000E941B0D60910F017091100190E080E0F4
:101F40004AE00C94740D0F931F93CF93DF930E947C
:101F5000220480E20E94B5020E945A04811143C10A
:101F600080911403811121C162E085E00E944E033B
:101F700083E296E00E94DC058091F4058F3F09F42E
:101F800057C00E94220485EF95E00E94DC0541E0E5
:101F900068E085EF95E00E945D0A41E066E085EF2C
:101FA00095E00E945D0A41E067E085EF95E00E94C0
:101FB0005D0A67E08AED95E00E94390A6091DF05CD
:101FC000662329F041E085EF95E00E949F0A41E0F9
:101FD0006091DE0585EF95E00E949F0A41E06091E7
:101FE000E00585EF95E00E949F0A01EE15E0CAED3D
:101FF000D5E0F80161918F0141E085EF95E00E9405
:102000009F0AF5E0053E1F07A1F70FED15E040E040
:102010006F8585EF95E00E949F0A6F85603120F4FF
:1020200085EF95E00E94470921960C171D0779F767
:102030008091EE0588608093EE0582E08093F20542
:102040001092F3058BE39DE00197F1F740E060917A
:10205000DE058AED95E00E94290A40E06091E005E6
:102060008AED95E00E94290A6091DF056F3F29F013
:1020700040E08AED95E00E94290A6091EE0564FD3A
:1020800096C063E08AED95E00E94BC0ACBE4D6E4FA
:10209000CE010197F1F763E08AED95E00E94BC0A5A
:1020A0002197F1F763E08AED95E00E94BC0A83E591
:1020B00092E00197F1F762E08AED95E00E94BC0A98
:1020C0006091EE0560628AED95E00E94210C84E04B
:1020D0008093EF056CE08AED95E00E94210C8AED7B
:1020E00095E00E94270D82E08093F00566E08AED7E
:1020F00095E00E94210C40E065E083E296E00E94BA
:102100005D0A65E083E296E00E94470944E050E002
:102110006091230686EF95E00E94AF0943E050E00E
:102120006091230688E096E00E94AF0942E050E00B
:102130006091230681E196E00E94AF0941E050E002
:10214000609123068FEF95E00E94AF0950E040E0D8
:10215000609123068AE196E00E94AF098091110107
:1021600090911201069711F40E94920F109213039E
:102170001092110310924E0510924D0510920F030C
:1021800010920A0310920E0310920D0310920C038A
:1021900010920B0381E0809302018FEF9FEF9093E9
:1021A0000101809300011092120381E01DC0606262
:1021B0008AED95E00E94210C8BE496E40197F1F7FB
:1021C0006091EE0560628AED95E00E94210C83E546
:1021D00092E00197F1F76091EE0560628AED95E07B
:1021E0000E94210C6DCF80E080931403DF91CF918A
:1021F0001F910F91089585ED8093BC008091A305F8
:102200009091A405A091A505B091A6050796A11DE2
:10221000B11D23E0B695A795979587952A95D1F797
:102220002091BC0024FD03C01092A10508954091A7
:10223000A3055091A4056091A5057091A605452BB5
:10224000462B472B69F30097A105B10541F02AE21F
:102250002A95F1F700C00197A109B109E1CF80915A
:10226000A2050C9439042F923F924F925F926F9285
:102270007F928F929F92AF92BF92CF92DF92EF9216
:10228000FF920F931F93CF93DF9300D000D0CDB771
:10229000DEB79C838B837C0141E8E40EF11C6C016A
:1022A00050E8C50ED11C8C010E571F4F8D579F4F04
:1022B0002C018B819C818C579F4F4C0122242A94A6
:1022C000AB80BC8097E8A90EB11CEB81FC81EB5779
:1022D000FF4FFA83E983F7018081F6019081891726
:1022E00009F4BAC0EB81FC81E80FF11D308037FEA4
:1022F0006DC0F8019081891739F0F5012081318195
:102300002F5F3F4F31832083F8018083F2012082C9
:10231000832D8076F401803609F441C0832D8295A7
:1023200086708E5F8083F8012081F4018081820FA6
:102330009927991F813891059CF180E8682E621ACF
:10234000F894F6014081F8018081841708F044C0B8
:10235000F42FF81B8F2FF60180837894F8016081A9
:102360004617E8F5712C50E06B817C81CB01860D1E
:10237000971D0E945A29F80160814B815C81460FAC
:10238000511DBA01A3018B819C810E945A29F7013A
:102390008081F8019081891BF7018083F801108208
:1023A000F70190819F5F9083F8018081392F381B5E
:1023B00097FF02C0F7011082F2012081F4019081A1
:1023C0009317A9F03226F201308285CFF401808183
:1023D0008111E6CF3082A7CF862D840FBCCF461B5C
:1023E00050E08B819C81860F911DBC01CCCF3212B5
:1023F0002AC04B815C81480F511DCA01E981FA81D5
:10240000408151814F5F5F4F51834083F70130819D
:10241000F80130830097B1F20F900F900F900F905A
:10242000DF91CF911F910F91FF90EF90DF90CF90B0
:10243000BF90AF909F908F907F906F905F904F90E4
:102440003F902F900895F5018081918101969183AD
:10245000808390E080E0DACF90E080E0DDCF6F9283
:102460007F928F929F92AF92BF92CF92DF92EF9224
:10247000FF920F931F93CF93DF93E091A404F09109
:10248000A504D581D3709780868073806280A82E42
:10249000E894A7F887FD9AC0D061B62EE894B7F803
:1024A00067FDD860C42EE894C7F811E147FF10E13A
:1024B000D22EE894D7F827FD1260F02EE894F7F8B2
:1024C00007FD14600E2D0F77E7FC1860C92DC82595
:1024D00088E0C827C725C625C027CF25CD25CC2510
:1024E000CB25CA25CD27C12765EE84E292E00E9464
:1024F000120660E184E292E00E941206662D84E2F8
:1025000092E00E941206672D84E292E00E94120679
:1025100062E084E292E00E9412066D2F84E292E073
:102520000E941206682D84E292E00E941206692D34
:1025300084E292E00E9412066A2D84E292E00E94F8
:1025400012066B2D84E292E00E941206612F84E253
:1025500092E00E9412066C2D84E292E00E94120624
:102560006D2D84E292E00E9412066F2D84E292E0CB
:102570000E941206602F84E292E00E9412066C2FE5
:102580006F7784E292E00E9412066FEF84E292E09D
:102590000E94120684E292E00E9433119093A504F7
:1025A0008093A404009711F00E942D0681E0DF9132
:1025B000CF911F910F91FF90EF90DF90CF90BF9040
:1025C000AF909F908F907F906F900895D46165CF6A
:1025D000CF92DF92EF92FF920F931F93CF93DF93EF
:1025E000D82EF62EE42EC0900501122F12951870E9
:1025F000011175C002E0D22FDF77CBE0CC25CF25CB
:10260000CE25CD25CD27C127C02765EE84E292E0F7
:102610000E94120660E184E292E00E9412066C2D94
:1026200084E292E00E9412066D2D84E292E00E9404
:10263000120661E084E292E00E941206612F84E2B9
:1026400092E00E941206602F84E292E00E9412063D
:102650006E2D84E292E00E94120660E084E292E035
:102660000E9412066D2F84E292E00E94120660E042
:1026700084E292E00E9412066F2D84E292E00E94B2
:10268000120660E084E292E00E94120660E084E2BA
:1026900092E00E94120660E084E292E00E9412063C
:1026A0006C2F6F7784E292E00E9412066FEF84E253
:1026B00092E00E94120684E292E00E94331190930D
:1026C000A5048093A404009761F0DF91CF911F913E
:1026D0000F91FF90EF90DF90CF900C942D0601E0CA
:1026E0008ACFDF91CF911F910F91FF90EF90DF90F4
:1026F000CF9008950F931F93CF93DF93C82FD62FBA
:10270000142F61E089E00E942003109216031092BA
:10271000150388E00E94BA07C093A204D093A104D5
:10272000412F440F410F4093A00400E020E06D2FA3
:102730008C2F0E94E812DF91CF911F910F91089585
:102740000F931F93CF93DF93E82FF0E099E0899FD9
:10275000D0011124A057BE4F15962D913C912617FC
:102760003707C0F08B01C82FEE0FFF1FED5FFE4F44
:1027700071836083CF5FCC0FD0E0612FCE010E94C8
:102780001029602FCE010196DF91CF911F910F91FB
:102790000C941029DF91CF911F910F9108958930EA
:1027A00010F40C94A0130895CF93DF936DE490E0A0
:1027B00080E00E9410296AE581E090E00E941029E3
:1027C000C0E9D1E069817A8188810E94CF1329967E
:1027D00081E0C13ED807B1F7DF91CF9108951F92F4
:1027E0000F920FB60F9211242F933F938F939F93C5
:1027F000AF93BF938091A7049091A804A091A904DE
:10280000B091AA043091A60423E0230F2D3758F588
:102810000196A11DB11D2093A6048093A704909357
:10282000A804A093A904B093AA048091AB0490914A
:10283000AC04A091AD04B091AE040196A11DB11DF0
:102840008093AB049093AC04A093AD04B093AE041A
:10285000BF91AF919F918F913F912F910F900FBE9C
:102860000F901F90189526E8230F0296A11DB11D09
:10287000D2CF1F920F920FB60F9211242F933F9336
:102880004F935F936F937F938F939F93AF93BF9378
:10289000EF93FF938091B900887F803609F44AC096
:1028A000F0F5883209F4A7C018F5803109F49BC00F
:1028B000B8F4882309F4F9C0883009F494C0FF9172
:1028C000EF91BF91AF919F918F917F916F915F91A8
:1028D0004F913F912F910F900FBE0F901F90189521
:1028E000883109F488C0803251F780939F0514C065
:1028F000803409F49DC040F48033B9F38833F9F68D
:1029000080939F0585ECB0C0803509F485C088357B
:1029100009F496C0883499F60E94FB10D0CF88390C
:1029200009F48CC038F5883729F050F4883611F056
:10293000803729F683E08093A1051092F70257C0F3
:10294000883809F47BC0803919F0803809F0B7CF96
:102950008091F702803208F071C0E091F70281E0C7
:102960008E0F8093F7028091BB00F0E0E952FD4F9B
:1029700080833DC0803B39F0E0F4803A09F479C0AF
:10298000883A09F09CCF84E08093A1051092D6028A
:102990001092D502E0915105F09152050995809170
:1029A000D50281110FC081E08093D5021092B5024B
:1029B00009C0803C09F4A6CF883C09F4A3CF883B2A
:1029C00009F07DCFE091D60281E08E0F8093D60290
:1029D000F0E0EB54FD4F80818093BB009091D602D4
:1029E0008091D50229C080917C058093BB0085EC45
:1029F0008093BC0064CF90919E0580919D059817AF
:102A000058F5E0919E0581E08E0F80939E05F0E0E1
:102A1000E358FA4F8081E9CFE0919E0581E08E0F67
:102A200080939E058091BB00F0E0E358FA4F8083CD
:102A300090919E0580919D059817C8F285E8D8CFA2
:102A4000E0919E0581E08E0F80939E058091BB00F2
:102A5000F0E0E358FA4F80838091A00581115CCFAC
:102A600081E080937B0584EA8093BC001092A105ED
:102A700026CF85EC8093BC001092A1058091F702CF
:102A8000803230F4E091F702F0E0E952FD4F10821D
:102A90006091F70270E0E0914F05F091500587EDED
:102AA00092E009951092F7020ACF10929F0534CF59
:102AB0001F920F920FB60F921124DF92EF92FF92A6
:102AC0000F931F932F933F934F935F936F937F9336
:102AD0008F939F93AF93BF93CF93DF93EF93FF9326
:102AE000B19A8091B5049091B60480549C4F909314
:102AF000B6048093B5048091B5049091B604909388
:102B00008900809388008091B302882371F010922D
:102B1000B302189B26C081E08093BB04B59A8091D4
:102B20006F00806280936F001CC08091BA048F5F39
:102B30008093BA048091BB04843009F043C0809133
:102B4000BA04893030F58091B10490E0959587956D
:102B50008093B104189B05C08091B1048068809374
:102B6000B104FF91EF91DF91CF91BF91AF919F9110
:102B70008F917F916F915F914F913F912F911F9115
:102B80000F91FF90EF90DF900F900FBE0F901F906E
:102B90001895B59A80916F00806280936F00809144
:102BA000AF049091B004189929C0FC01E957FF4F78
:102BB000808191810196918380831092BA0481E093
:102BC0008093BB048091BB048330E9F5E091B804A5
:102BD000F091B90480812091B70433B190E0022EC6
:102BE00002C0959587950A94E2F7832780FD11C06E
:102BF0001092BA0482E08093BB0425C06091B104B6
:102C00000E94120680E090E0892BB9F20E94000039
:102C1000D4CF8091BA04893008F043C03091B10418
:102C200081E090E001C0880F2A95EAF7908130FF9B
:102C300036C08095892380838091B10490E095957A
:102C400087958093B1048091BB04823099F4809180
:102C5000BA0481118EC0E091B804F091B90480816A
:102C60009091B70421E030E001C0220F9A95EAF775
:102C7000822B80838091BB04813009F072CF8091D8
:102C8000BA04882309F44ACF8091BA04883308F43F
:102C900068CF1092BB0480916F008D7F43CF892B4A
:102CA000CACF8091BA04893059F4308181E090E034
:102CB00001C0880F2A95EAF7809583238083C3CFCC
:102CC0008091BC048F5F8093BC049091BD048917F0
:102CD00050F51092BA048091B3049091B404A0917D
:102CE000BC04A80FB92FB11D8C918093B1048081D1
:102CF00041E050E001C0440F2A95EAF7842B80831D
:102D000080918400909185008A5A9C4F9093B604DC
:102D10008093B5048091B5049091B6049093890096
:102D20008093880090CF81E08093B2040091B30437
:102D30001091B404E090AF04F090B004C8010E9478
:102D40002106D82ED0E0C0E0CD1548F4F801EC0FF4
:102D5000FD1F6081C7010E9412062196F5CF80E019
:102D600090E0892B11F00E9400001092BA0481E0DB
:102D700042CF8091BA048F3008F47CCFE091B80440
:102D8000F091B90420813091B70481E090E001C056
:102D9000880F3A95EAF78095822380831092BA04CF
:102DA00081E08093BB04E091AF04F091B004E3575D
:102DB000FF4F808191810196918380835BCF1F9229
:102DC0000F920FB60F9211248F939F93EF93FF935F
:102DD000B59AEFE6F0E080818F7D80838091860058
:102DE0009091870080529E4F9093B6048093B504D3
:102DF0008091B5049091B6049093890080938800E7
:102E0000B19A80818260808384E08093BB041092B9
:102E1000BA0481E08093B302FF91EF919F918F916B
:102E20000F900FBE0F901F901895893028F529E05C
:102E3000829FF0011124E057FE4F858196818031F9
:102E400027E29207C8F4883E23E09207B8F484365C
:102E50009105B0F40A97B0F481E090910F03891BBB
:102E6000990B8530910580F4880F991FFC01E35E72
:102E7000FE4F80819181089585E0EFCF84E0EDCF12
:102E800083E0EBCF82E0E9CF90E080E008958930E5
:102E9000B8F429E0829FF0011124E057FE4F8581AC
:102EA0009681803127E2920758F4883E23E092070A
:102EB00048F48436910540F40A9740F481E008957F
:102EC00085E0089584E0089583E0089582E0089500
:102ED000EF92FF920F931F93CF93DF93CDB7DEB79F
:102EE00062970FB6F894DEBF0FBECDBF082FF92E44
:102EF0006091EF056D7F6093EF0568608AED95E066
:102F00000E94210C8AED95E00E94270D60E080E090
:102F10000E94240C85E891E00E94FA0B60E083E0B7
:102F20000E94240CE09013031DEE1E0D1A3018F4BD
:102F300080E20E94180C612F70E090E080E04AE08F
:102F40000E94740D1CEE1E0D60E086E00E94240CB1
:102F500089E791E09A83898383E791E09C838B835F
:102F60008AE691E09E838D8381E691E098878F8346
:102F700088E591E09A8789878FE491E09C878B8729
:102F800087E491E09E878D8781E491E0988B8F871D
:102F900088E391E09A8B898B84E391E0193040F4C7
:102FA000E12FF0E0EE0FFF1FEC0FFD1F81819281FA
:102FB0000E94FA0B61E080E00E94240C80911203D1
:102FC000882319F08EE30E94180C193080F589E0EF
:102FD000189FF0011124E057FE4F8781823039F5A8
:102FE000802F0E94C20D8091120381114EC01930B2
:102FF00050F489E0189FF0011124E057FE4F8085BE
:10300000882309F444C061E08EE00E94240C82E829
:1030100091E062960FB6F894DEBF0FBECDBFDF9190
:10302000CF911F910F91FF90EF900C94FA0B812F8D
:103030000E944717682F802F9F2D0E94EF0DD3CF3E
:1030400089E0189FF0011124E057FE4F808581111F
:103050001EC061E080910F030E94240C6091EF0577
:10306000862F82608093EF056A608AED95E0629614
:103070000FB6F894DEBF0FBECDBFDF91CF911F9189
:103080000F91FF90EF900C94210C1930C8F26296CA
:103090000FB6F894DEBF0FBECDBFDF91CF911F9169
:1030A0000F91FF90EF900895CF93DF93EC0161E0D3
:1030B00080E00E94240C80911203882319F08EE393
:1030C0000E94180C64E0CE01DF91CF910C94EF0DBB
:1030D000CF93C82F61E080E00E94240C80911203FE
:1030E000882319F08EE30E94180C63E08C2F90E087
:1030F000CF910C94EF0D8AE990E00E942F0D8BE4A4
:103100008093130380910D03282F30E030934E05F8
:1031100020934D050C9468188CE790E00E942F0DC9
:1031200087E48093130381E08093120380910E0360
:10313000282F30E030934E0520934D050C946818ED
:103140008AEB90E00E942F0D8DE480931303809111
:103150000B0390910C0390934E0580934D0561E015
:1031600080E00E94240C80911203882319F08EE3E2
:103170000E94180C64E080914D0590914E050C94CE
:10318000EF0D1F93CF93DF9380914D0590914E05E6
:10319000019690934E0580934D0561E080E00E947A
:1031A000240C80914D0590914E058038910528F0B2
:1031B000DF91CF911F910C94140C80914D050E94CA
:1031C000B5020E945A04182F882311F08430F1F4BC
:1031D0008DE091E00E94FA0BC0914D05D0914E0513
:1031E000DD27C031D10518F480E30E94180CBE0120
:1031F00090E080E040E10E94740D80E2143009F418
:103200008FE3DF91CF911F910C94180C80914D05A5
:1032100090914E05019690934E0580934D05C5CF34
:103220008FEF90E00E942F0D8FE680931303809123
:10323000070390E090934E0580934D0561E080E098
:103240000E94240C80911203882319F08EE30E94BF
:10325000180C82E40E94180C60914D0570914E0587
:1032600090E080E04AE00C94740DCF93DF93EBEC98
:10327000F5E01382128288EE93E0A0E0B0E0848350
:103280009583A683B78389E092E091838083C4E22B
:10329000D6E086E0888380E8898388E08A831B8281
:1032A0001C821D821E8261E086E00E944E030E9405
:1032B000A4036B837C838D839E8389E390E090934A
:1032C000D8058093D705EAEDF5E013821282128EBD
:1032D000148A8FE084838EE085838DE086838CE082
:1032E00087838BE080878AE0818789E082871786E1
:1032F00081E0808B82E0818B83E0828B84E0838B12
:103300008BE192E091838083148E158E168E178E3A
:103310008AE090E091A380A312A213A215A216A2A4
:1033200017A210A692A781A713A614A616A617A6E1
:1033300010AA11AA93AB82AB14AA15AA17AA10AEB1
:1033400011AE12AE94AF83AF15AE16AE10921A0640
:1033500010921B0610921C0610921D0690931F06D9
:1033600080931E0610922006109221068CE1809315
:10337000D905DF91CF910895CF93DF9300D000D08E
:103380001F92CDB7DEB7789484B5826084BD84B5D2
:10339000816084BD85B5826085BD85B5816085BD50
:1033A00080916E00816080936E0010928100809108
:1033B0008100826080938100809181008160809390
:1033C0008100809180008160809380008091B100B5
:1033D00084608093B1008091B00081608093B000E0
:1033E00080917A00846080937A0080917A00826074
:1033F00080937A0080917A00816080937A00809136
:103400007A00806880937A001092C10013E0E12E68
:1034100011E0F12E02E0C02ED12CC6010E94082935
:10342000182FC60101960E940829212F30E0322F63
:103430002227820F932F911DD7018D939D937D019C
:10344000B2E0CB0ED11CE4E1CE16D10431F780916D
:103450000F0190911001089728F468E070E086E071
:103460000E94A0138091110190911201069711F012
:103470000E94D4130E94A30F0E94C70761E089E055
:103480000E944E03EEEBF4E08FE8DF011D928A9577
:10349000E9F761E087E00E944E03E2EFF4E0249157
:1034A000EEEDF4E0E491F0E0EE0FFF1FED53FB4F83
:1034B0004591549180E091E031E0291741F08F5F10
:1034C000932F082E01C0990F0A94EAF7F6CF509374
:1034D000B9044093B8048093B7048EEB94E09093C2
:1034E000B0048093AF042098E091B804F091B9043F
:1034F00020813091B70481E090E001C0880F3A95B7
:10350000EAF78095822380831092800081E0809387
:1035100081001092BB04B59A80916F008062809305
:103520006F0080918100887F8160809381002224D8
:103530002394312C88248394912C66246A94762CCD
:10354000412C68E0562E0E94A4030091270610919A
:1035500028062091290630912A06601B710B820BE8
:10356000930B653171058105910508F455C00E94E2
:10357000A4036093270670932806809329069093EE
:103580002A061091250680912606113C20F081958F
:103590008093260602C01032D0F380912606180FC1
:1035A000109325060091240661E0802F0E944E03AF
:1035B000111105C060E0802F0E9420032DC01F3F25
:1035C00011F461E0F8CFE02FF0E0E150FB4FE4911F
:1035D000E33009F4DAC040F4E130D1F0E23009F42C
:1035E000CFC017FDEECFE6CFE73009F4DAC0E83000
:1035F00009F4DFC0E430A9F78091800080628093F5
:103600008000812F90E090938B0080938A0004C00B
:1036100084B5806884BD17BD0E94A4030091FC029C
:103620001091FD022091FE023091FF02601B710B90
:10363000820B930B6E3771058105910528F10E946D
:10364000A4036093FC027093FD028093FE029093AA
:10365000FF029091FB0281E098279093FB0299234F
:1036600099F09091FA0298279093FA02992361F0C9
:103670009091F90298279093F902992329F090915B
:10368000F80289278093F8020E94C7070E94A30FBF
:1036900080911403813009F494C080E00E94BA073D
:1036A0001091A304812F8F7B31F10E94A403C0905D
:1036B0001703D0901803E0901903F0901A036C19C7
:1036C0007D098E099F09693873418105910598F03C
:1036D000103811F40C941D25809115039091160358
:1036E000912B90931603809315031092A30460E02E
:1036F00089E00E9420038EEB94E00E943311FC01CC
:103700009093A5048093A404892B11F40C9412289F
:103710008091A304882311F40C9412287181272F1F
:1037200030E06281462F50E0CA019695982F882795
:103730009795879580789770872B932BA081A23BD4
:1037400011F40C9434250196A13B11F40C94252816
:1037500010F00C942225A33811F40C941C28A03BE3
:1037600011F40C942528A23811F00C94412580E026
:1037700090E0892B11F40C94412580E00C942228D0
:1037800084B5806284BD18BD47CF80918000806879
:1037900080938000812F90E090938900809388002F
:1037A0003BCF8091B00080688093B0001093B3004D
:1037B00033CF8091B00080628093B0001093B4004A
:1037C0002BCF65E083E296E00E948209B0E28B9FF6
:1037D000C00111248095909561E085FD60E08AED3F
:1037E00095E00E94390A49EEC42E45E0D42E10E03F
:1037F00000E05FE1A52EF02EF60161916F0180E0FF
:10380000603120F485EF95E00E94820990E002C0CB
:10381000880F991FFA94E2F780959095A8220F5F80
:103820001F4F0530110539F710911303173421F19B
:103830009EE7E92EF12C1B3411F180E1E82EF12CEA
:103840001C34E9F01D3409F443C01E3609F440C0AD
:10385000EE24EA94F12C1F3609F43EC0103709F427
:103860003FC0173D61F4A1101EC0A0901103AA2013
:10387000D1F01092110314CF2FE7E22EF12C00911A
:103880001203002321F001E01E3409F400E08091CE
:103890000103882341F30E94D208882321F3833255
:1038A00019F56894A0F890911003911108C0AA200E
:1038B00009F4BAC7809111038A1509F4B5C7A0921B
:1038C0001103111150C0A2FEEBCE0E94600DE8CE94
:1038D000E12C08E0F02ED3CFB2E0EB2EF12CCFCFCD
:1038E000EE24E394F12CCBCF8A3219F46894A6F835
:1038F000DACF002309F4B7CF80538231A1F480914D
:103900004D0590914E0570E060E08B30910520F000
:103910006AE070E00E941E2970934E0560934D0589
:103920006894A7F8C0CF833129F410924E05109205
:103930004D05F6CF8A30A0F740914D0550914E05C8
:103940009AE0949F9001959F300D1124280F311D0E
:1039500087FD3A95E216F30608F0A90150934E054B
:1039600040934D05DDCF113009F5A3FE03C00E9441
:103970006A0D96CEA2FE08C08FE794E00E942F0D3C
:1039800082E0809313038CCEA1FE8ACE8AED95E06F
:103990000E94270D60E080E00E94240C89EC93E0F7
:1039A0000E94FA0B85E0809313037ACE1230A1F4C3
:1039B000A3FE08C082ED93E00E942F0D81E080936A
:1039C00013036ECEA1FE6CCE8DE694E00E942F0D07
:1039D00088EC8093130364CE153019F4A4FE60CEF6
:1039E000E9CF163071F5A2FCC2CFA3FE03C00E943E
:1039F000560D56CEA1FE54CE8AED95E00E94270DBD
:103A000084E68093130310924E0510924D05109298
:103A10001B0310929C04ECE1F3E08CE994E08E1718
:103A20009F0729F01182108212823396F8CF1092EC
:103A300016031092150380E40E94BA070E94410EFB
:103A40002FCE173089F4A2FCB5CFA3FE08C08AE4BC
:103A500094E00E942F0D86E08093130321CEA1FEF7
:103A60001FCE0E94EA0E1CCE143108F4DAC18091F8
:103A7000D905811708F4D5C1FCEEBF2EB10EA0FE0A
:103A800056C0F0901203FF2009F40ACE60914D0554
:103A900070914E050B2D10E0F6E0BF121FC0672B92
:103AA000B9F40E94D413000F111FF801ED5FFE4F0F
:103AB000808191810E94681761E08AE00E94240C55
:103AC000FF2011F40C94E32882EB94E00C94E52899
:103AD00068E070E086E00E94A013E5CF89E0809F57
:103AE000F001819FF00D1124E057FE4F83819481F6
:103AF0006817790710F40C94EE2885819681861753
:103B0000970710F40C94EE28808581110C94EE2810
:103B10008B2D0E94CF1328E02B1528F68FEF9FEFF7
:103B20000E94681761E08AE00E94240CCDCFA4FEB9
:103B300017C080911203882309F446CF1092120314
:103B400038E08FEF9FEF3B1540F0EB2DF0E0EE0FEC
:103B5000FF1FED5FFE4F808191810E946817A0CD0D
:103B6000A1FE59C080911203811120C078E07B151D
:103B7000E8F0EB2DF0E089E0B89ED0011124A057C9
:103B8000BE4F18968C91811111C0EE0FFF1FED5F93
:103B9000FE4F8081918190934E0580934D0521E0E9
:103BA0002093120310920F030E9468178091120352
:103BB000882309F475CD10910F031F5F10930F0335
:103BC00098E09B1548F0A9E0BA9EF0011124E05757
:103BD000FE4F8781823061F08B2D0E94471790E065
:103BE00001961817190631F481E080930F0302C083
:103BF0001930D1F361E080910F030E94240C609191
:103C0000EF05862F82608093EF056A608AED95E06C
:103C10000E94210C45CDA3FE7AC0909112039923F6
:103C200009F45BC000914D0510914E05B8E08FEF8F
:103C30009FEFBB1508F43FC0CB2CD12C29E0B29EDE
:103C4000F0011124E057FE4FF78031E03F1580F07E
:103C50008B2D0E941517800F911F90934E05809316
:103C60004D058017910720F410934E0500934D05E4
:103C700040914D0550914E0582E0F81212C080919E
:103C80000F0328E030E0281B3109C10102C0880F72
:103C9000991F2A95E2F7842B952B90934E058093DC
:103CA0004D0589E08C9DF0018D9DF00D1124E057AC
:103CB000FE4F8581968120914D0530914E058217EA
:103CC000930720F410934E0500934D0580914D0508
:103CD00090914E050E946817E3CCFF24F394F10EF7
:103CE000F0921303F81610F080931303E09113037E
:103CF000E4518FEF9FEFE93038F4F0E0EE0FFF1F53
:103D0000ED5FFE4F808191810E946817C9CCA2FCB3
:103D100002C00C94F42880911203882309F468C02F
:103D200000914D0510914E0578E090E080E07B1504
:103D300008F442C0CB2CD12C89E0B89EF0011124AC
:103D4000E057FE4FF78091E09F1588F08B2D0E9481
:103D50001517D801A81BB90BB0934E05A0934D05BC
:103D60000A171B0720F410934E0500934D05409150
:103D70004D0550914E0592E0F91214C080910F0349
:103D800028E030E0281B3109C10102C0880F991FCB
:103D90002A95E2F7809590958423952390934E057C
:103DA00080934D0589E08C9DF0018D9DF00D1124CF
:103DB000E057FE4F8381948120914D0530914E054F
:103DC0002817390720F410934E0500934D05809174
:103DD0004D0590914E05019621F410934E050093E8
:103DE0004D0580914D0590914E050E94681758CC65
:103DF000115010931303143118F484E180931303CA
:103E0000E0911303E4518FEF9FEFE93038F4F0E0D5
:103E1000EE0FFF1FED5FFE4F808191810E946817BA
:103E20003FCC163411F00C94F828A2FCE0CDA3FE90
:103E300005C00E94920F1092130332CCA1FE30CC29
:103E40000E948C182DCCA4FE0AC080910E0390E035
:103E500090934E0580934D050E94600D21CCA0FEED
:103E600015C080914D0580930E0318160CF018CCE8
:103E7000803509F415CC2091050130910601821797
:103E8000130609F40DCC0E947B180ACC8091120312
:103E9000882309F405CCA3FE14C080914D059091B0
:103EA0004E05019790934E0580934D05892B21F483
:103EB00090924E0580924D0580914D050E946818A4
:103EC000EFCBA2FEEDCB80914D0590914E05019672
:103ED00090934E0580934D058038910530F08FE723
:103EE00090E090934E0580934D0580914D050E9482
:103EF0006818D6CB183409F046C0A2FE0BC080E08B
:103F00000E94BA078AE494E00E942F0D86E0809315
:103F10001303C6CBA3FC99CFA1FEC2CB61E089E01D
:103F20000E94200310921B0310929C04ECE1F3E02A
:103F300080E01082118212828F5F33968038C9F739
:103F400010921603109215030E94BA0700E020E0B9
:103F500040E060E080E00E94E8128AED93E00E9479
:103F60002F0D83E5809313030E94A4036093020343
:103F700070930303809304039093050310924E05FE
:103F800010924D058DCB193409F051C0A4FC2FCDF2
:103F9000A3FE48C08AED95E00E94270D60E080E016
:103FA0000E94240C80914D0590914E05009729F0B8
:103FB000019790934E0580934D059E012F5F3F4FD3
:103FC000AE014E5F5F4FBE016D5F7F4F80914D052B
:103FD00090914E050E944907882309F149816A8121
:103FE0008B810E94820E61E080E00E94240C80910F
:103FF0004D0590914E059E012F5F3F4FAE014E5FE4
:104000005F4FBE016D5F7F4F01960E944907882375
:1040100031F049816A818B810E94820E41CB0E94DE
:10402000140C3ECBA2FE3CCB0E949D0E39CB1B3420
:1040300009F068C0A7FE02C00C940029A4FC00CFC0
:10404000A0FE27C010914D0510930D038FEF810F37
:104050008E3708F025CB81E0809302018091130117
:1040600087FD09C00E943F0D41E0612F80910E0342
:104070000E947A1315CB0E94FC02892B99F789EED6
:1040800093E00E942F0D8AE5809313031092120390
:1040900007CB8091130187FF02C0A6FCF0CF80916F
:1040A0001203882309F4FCCAA3FE13C080914D05B6
:1040B00090914E05019790934E0580934D05892B65
:1040C00021F490924E0580924D0580914D050E94FD
:1040D0006818A2FEE5CA80914D0590914E050196A3
:1040E00090934E0580934D058F37910530F0EEE7A4
:1040F000F0E0F0934E05E0934D0580914D050E9450
:104100006818CECA1C3409F052C0A4FE0AC08091BF
:104110000D0390E090934E0580934D050E947B180F
:10412000BFCAA0FE11C00E94C10280914D058093BC
:10413000020180910B0390910C0390934E058093A4
:104140004D050E94A018ACCA80911203882309F47F
:10415000A7CAA7FC12C080914D0590914E0501970A
:10416000A3FC07C0A2FE9CCA80914D0590914E050C
:10417000019690934E0580934D050E94C1021091C7
:104180004D051093020160E085E00E94240C62E07E
:10419000812F90E00E94EF0D0E943F0D409102019F
:1041A00060910D0380910E030E947A1379CA1D3429
:1041B00009F05EC0A4FE03C00E940A0F71CAA0FEEF
:1041C00024C080914D0590914E0590930C038093EF
:1041D0000B0380910A0390E090934E0580934D0568
:1041E00086EF93E00E942F0D8EE48093130381E00D
:1041F0008093120380910A03282F30E030934E05FC
:1042000020934D050E94560C4BCA809112038823BF
:1042100009F446CAA3FE16C080914D0590914E0543
:10422000019790934E0580934D05892B21F4909230
:104230004E0580924D0580914D0590914E050E944E
:1042400054182ECAA2FE11C080914D0590914E05C2
:10425000019690934E0580934D058130984058F318
:1042600050924E0540924D05E6CFA7FE19CAE3CF06
:104270001E3409F083C0A4FE0BC080910B03909103
:104280000C0390934E0580934D050E94A01808CA18
:10429000A0FE45C080914D0580930A03833208F04B
:1042A000FFC9109212038AED95E00E94270D60E08D
:1042B00080E00E94240C80910E0363E090E00E9455
:1042C000EF0D8EE20E94180C80910D0363E090E0E8
:1042D0000E94EF0D8AE30E94180C8091020162E0B7
:1042E00090E00E94EF0D8DE30E94180C64E0809135
:1042F0000B0390910C030E94EF0D61E080E00E949F
:10430000240C80910A0362E090E00E94EF0D80E0AF
:1043100094E00E94FA0B8FE480931303C1C980914B
:104320001203882309F4BCC9A3FE14C080914D0573
:1043300090914E05019790934E0580934D058F3FC8
:1043400021F410924E0510924D0580914D050E946A
:10435000560CA6C9A2FEA4C980914D0590914E05A8
:10436000019690934E0580934D05839770F322E25A
:1043700030E030934E0520934D05E7CF1F3409F010
:1043800076C0A0FE76C0F0900A0300910B03109156
:104390000C03C0900201D0900D03E0900E0361E089
:1043A00089E00E942003109216031092150381E009
:1043B0000E94BA0710929D0410929E0410929F04CE
:1043C00032E23F1590F00115110579F04F2D50E0C4
:1043D000CA01880F991FFC01E40FF51FE95DFE4F2C
:1043E00022812223C1F02130A1F1E092A204D092D7
:1043F000A1044C2D440F4C0D4093A00401E02091EA
:104400009F046D2D8E2D0E94E81280E5809313038A
:104410000E943F0D45C90150110960E0840F951FAE
:10442000FC01E95DFE4F808180939F04802F8F7790
:1044300080939E04000F012F001F110B11958181A5
:10444000080F80E2611101C080E0080F00939D0415
:10445000CCCF980120953095622F617001501109E1
:1044600021703327021B130B16950795D7CF1135F3
:1044700021F4AA2009F414C99FCE1A3581F4A4FCB2
:104480009BCEA0FE0DC98EE194E00E942F0D8FE01F
:1044900094E00E941B0D8BE58093130301C91B352B
:1044A00071F5A4FC89CEA0FEFBC88EE394E00E94C7
:1044B0002F0D8DE294E00E941B0D8CE58093130379
:1044C00061E089E00E942003109216031092150308
:1044D00081E00E94BA071092A00410929F0480917C
:1044E000A20480939E048091A10480939D0401E026
:1044F00020E040E060E080E00E94E812D1C814367D
:1045000099F5A2FE13C080914D0590914E0501963C
:1045100090934E0580934D058038910520F01092C0
:104520004E0510924D050E94410EBAC8A3FE16C05A
:1045300080914D0590914E05892B31F480E890E0F3
:1045400090934E0580934D0580914D0590914E05B9
:10455000019790934E0580934D05E5CFA4FCCFCCF9
:10456000992309F49DC8DFCF1E3609F042C0A4FC90
:10457000FEC9A0FE0BC080914D0590914E05909311
:104580000903809308030E9410198AC880911203BE
:10459000882309F485C8A3FE16C080914D0590912B
:1045A0004E05019790934E0580934D05892B21F47C
:1045B00090924E0580924D0580914D0590914E054B
:1045C0000E9454186DC8A2FE11C080914D059091B3
:1045D0004E05019690934E0580934D05813098408D
:1045E00058F350924E0540924D05E6CFA7FE58C8AD
:1045F000E3CF1F3609F05AC0A4FC33CA109112034E
:10460000A0FE20C080914D05809307038EE594E0C5
:104610000E942F0D80E78093130361E080E00E94E9
:10462000240C112319F08EE30E94180C80910603CC
:10463000882329F08AE594E00E94FA0B31C886E5C8
:1046400094E0FACF112309F42BC8A3FE1FC0809178
:104650004D0590914E05009729F0019790934E05D6
:1046600080934D0561E080E00E94240C8EE30E945F
:10467000180C82E40E94180C60914D0570914E0553
:1046800090E080E04AE00E94740D0AC8A2FE09C0D2
:1046900080914D0590914E058230910518F7019655
:1046A000DDCFA7FC02C00C94501BDCCF103709F003
:1046B0005DC0A4FE04C00E9410190C94501BA0FE03
:1046C0002CC0009107031091060340EB400F612FAF
:1046D00080910803909109030E94F7060111C1C956
:1046E000112309F4BEC98091130180FFBAC98091DA
:1046F000070190910801892B09F4B3C981E78093E0
:1047000013030E94A4036093020370930303809336
:104710000403909305030C94501B8091120388238B
:1047200011F40C94501BA3FE13C01092060361E019
:1047300080E00E94240C8EE30E94180C80910603F6
:10474000882389F087EA94E00E94FA0B0C94501BAE
:10475000A2FE04C081E080930603E9CFA7FC02C05B
:104760000C94501BE4CF83EA94E0EECF183CE1F4C4
:10477000A2FE09C08FE894E00E942F0D82ED809385
:1047800013030C94501BA4FCF7C8A1FC02C00C94AA
:10479000501B84E1809313038091030190910401E5
:1047A0000E9468170C94501B123D59F5A3FC0CC9CC
:1047B000A2FE0FC080910103882311F40C94501BBA
:1047C00081E794E00E942F0D87ED809313030C94F2
:1047D000501BA4FCD1C8A1FC02C00C94501B83ED5B
:1047E0008093130360E088E00E94240C80E20E9422
:1047F000180C70924E0560924D050E94C1180C94E1
:10480000501B133D51F4A4FCB5CFA2FC02C00C9484
:10481000501B0E94C1180C94501B173D79F5A3FC46
:1048200002C00C94501BA6CF153041F50091150322
:10483000109116038091000190910101081719074A
:1048400071F0109301010093000161E080E00E948B
:10485000240C812F0E94C20D802F0E94C20D8091D6
:104860001303803581F48091150390911603892BF1
:1048700009F44DC00E94470D0C94501B7092010129
:1048800060920001ECCF823571F3833509F045C0A9
:104890000E94A403009102031091030320910403DA
:1048A00030910503601B710B820B930B693E7340C3
:1048B00081059105D8F00E94A403609302037093D0
:1048C0000303809304039093050380914D05909119
:1048D0004E059C012F5F3F4F30934E0520934D05B1
:1048E00061E00E94240C8EE20E94180C80911B0350
:1048F000882311F40C94501B89E480931303709265
:104900004E0560924D050E949D0E0C94501B8091A7
:10491000A30481110C94501B4FCC8C35F1F4809181
:10492000150390911603892B09F0A4CF8091A3045D
:1049300081110C94501B0E943F0D90924E05809265
:104940004D0581E08093020141E060910D0380916B
:104950000E030E947A130C94501B813769F50E9454
:10496000A4030091020310910303209104033091EA
:104970000503AB01BC01401B510B620B730B209173
:10498000070130910801EAE0E29FC001E39F900D2A
:104990001124B0E0A0E084179507A607B70710F030
:1049A0000C94501B40EB60E0809108039091090348
:1049B0000E94F7060E94EA0E80911303873D11F0D2
:1049C0000C94501B80910103882361F00E94D2084F
:1049D000182F882339F061E080E00E94240C812F99
:1049E0000E94180C0E94FC02892B79F4809100032C
:1049F00081110BC081E08093000361E083E00E949D
:104A0000240C8EE994E00E94FA0B0E94FC020197AC
:104A100011F00C94501B80910003882311F40C9426
:104A2000501B1092000361E083E00E94240C89E98E
:104A300094E00E94FA0B0C94501B81E080931B03BE
:104A40000C94751BAC3B09F406C3A03D09F40DC3DF
:104A5000A43BB9F47C33A9F480E090E0892B89F081
:104A60008CE30E9400000DC0880F991F22E030E007
:104A700065FD02C021E030E06071820F931F0E944B
:104A8000A8070091A4041091A504C8010E94210662
:104A9000803109F0C7C2D8018C91853E09F0C2C2AD
:104AA00014968C911497813009F0B8C013962C910C
:104AB000139780910501909106012817190609F0B6
:104AC000B1C21296FC9012978091A204F81265C0B0
:104AD000E090A1041A968C91B0E88B9F900111246C
:104AE000F80183858F77820FE81257C08681813065
:104AF00001F517818091A00418131BC08091A304B5
:104B0000813009F022C31092A3040E94AC07909157
:104B10009F04891316C382E00E94BA0720919E0465
:104B200041E0410F4093A00401E06E2D8F2D0E94C3
:104B3000E812E091A404F091A5048681823009F086
:104B40006DC097818091A004981360C38091A304E5
:104B5000883009F05BC31092A304828590E09C0129
:104B600046E0220F331F4A95E1F7207834853F77DE
:104B7000232B20939F0455E0880F991F5A95E1F746
:104B8000807895859F77892B80939E040E94AC073F
:104B900080939D0480E00E946B07C090A404D09095
:104BA000A504D60116968C918230C1F5F601878155
:104BB000811134C08091A304803881F5F0909C0469
:104BC000F7FCE4C28F2D90E08C01000F111F080F3D
:104BD000191F045E1C4F8285F0E28F9FC0011124D3
:104BE0008078D6011D969C919F77892BF801808350
:104BF0000E94AC07D80111968C93F6018581F0E2F2
:104C00008F9FC00111248078D60118969C919F77C0
:104C1000892BF8018283F394F0929C04E091A40420
:104C2000F091A5048481823009F0FCC12681809135
:104C30000301909104012817190609F0DAC12781B0
:104C400080911101909112012817190609F0D1C124
:104C5000858190E09C01A4E0220F331FAA95E1F723
:104C60002078A184E894A7F82A2930E0322F22275F
:104C700015E0880F991F1A95E1F78078A084E894D1
:104C8000A7F8A82AA20EB32EB11C650121E0C21A12
:104C9000D108CC823C2D393058F479E0C79ED00140
:104CA0001124A057BE4F31E017968C91813009F046
:104CB00030E083818130E9F589E0C816D104C8F578
:104CC000828590E063856F77AC015695542F442719
:104CD00057954795262F240F332309F460C236E0F9
:104CE000880F991F3A95E1F7807864856F77862B56
:104CF000682F70E0762F6627620F711D8C2D0E9441
:104D0000CF13E091A404F091A50483818064838390
:104D10009C814FEF993030F4F601EE0FFF1FED5FED
:104D2000FE4F4081E12C00E020E060E08A2D0E94EF
:104D30002F12E091A404F091A50483818230B9F48C
:104D4000A9E0CA16D10498F482E48383BC814FEFB2
:104D5000B93030F4F601EE0FFF1FED5FFE4F4081DA
:104D6000E12C00E020E060E08A2D0E942F12E0910B
:104D7000A404F091A5048381833009F04AC029E09E
:104D8000C216D10408F045C0628570E0CB0196954B
:104D9000982F882797958795992723852F77280F10
:104DA000392F311D16E0660F771F1A95E1F76078ED
:104DB000772784858F77682B8C81893008F0F1C143
:104DC000F601EE0FFF1FED5FFE4F808191812623DC
:104DD0003723232B09F4E8C1682B792B8C2D0E94F3
:104DE000CF13E091A404F091A504838180648383B0
:104DF0009C814FEF993030F4F601EE0FFF1FED5F0D
:104E0000FE4F4081E12C00E020E060E08A2D0E940E
:104E10002F12E091A404F091A5048381853009F05C
:104E200080C0A9E0CA16D10408F07BC0828590E05A
:104E3000BC01B6E0660F771FBA95E1F7162F107820
:104E400064856F77162B9C0105E0220F331F0A95AE
:104E5000E1F7207865856F77262B2D839C0144E050
:104E6000220F331F4A95E1F7207866856F77F22E7F
:104E7000F62A63856F779695982F8827979587955B
:104E8000680F70E08C2D0E94CF13EE24E394EC0C9D
:104E9000612F70E08E2D0E94CF1302E00C0DBD81BA
:104EA0006B2F70E0802F0E94CF1313E01C0D6F2D2D
:104EB00070E0812F0E94CF13E091A404F091A5042B
:104EC000838180648383EC814FEFE93030F4F60115
:104ED000EE0FFF1FED5FFE4F4081F8E02FEFFE1554
:104EE00038F0EE2DF0E0EE0FFF1FED5FFE4F20815A
:104EF000093008F05EC1E02FF0E0EE0FFF1FED5F1C
:104F0000FE4F0081EE24EA94193038F4E12FF0E0EE
:104F1000EE0FFF1FED5FFE4FE08060E08A2D0E94E4
:104F20002F12E091A404F091A50483818630B1F59D
:104F300029E0C216D10490F586E483833C814FEFCB
:104F4000393030F4F601EE0FFF1FED5FFE4F408168
:104F5000E1E0EC0D2FEFE93030F4F0E0EE0FFF1F51
:104F6000ED5FFE4F2081E2E0EC0D0FEFE93030F411
:104F7000F0E0EE0FFF1FED5FFE4F0081E3E0EC0D70
:104F8000EE24EA94E93030F4F0E0EE0FFF1FED5F1D
:104F9000FE4FE08060E08A2D0E942F12E091A40471
:104FA000F091A5048381883061F488E48383409183
:104FB0001101E42E0091030120E06DE08AE30E94DC
:104FC0002F12E091A404F091A50483818F3089F41D
:104FD0000E94D413E091A404F091A504838180641D
:104FE0008383E12C00E020E040E06B2D8A2D0E94BD
:104FF0002F12E091A404F091A5048681811112C0C2
:10500000878181110FC08381873061F487E48383B6
:1050100040911101E42E0091030120E06DE08AE34C
:105020000E942F1280E090E0892B11F40C94A31AB7
:105030000E9400000C94A01A80E090E0892B09F4F3
:1050400020CD81E00E9400001CCD462F407260718F
:105050000E947B0716CD20E030E0232B09F411CD10
:10506000407260710E9400000CCD7076703221F0A9
:105070007036C1F1711105CD80E090E0892B09F403
:1050800000CDC9019695982F8827979587958078A8
:105090009F70840F951FA5E035952795AA95E1F798
:1050A0002170019633814481E42FF0E0AF013D3758
:1050B00031F070E8379FA00111244E0F5F1F6F7011
:1050C00081F1623081F1643081F1663081F16830C4
:1050D00081F16A3081F16C3081F16E3081F10E9492
:1050E0000000CFCC80E090E0892B09F4CACC03818A
:1050F000802F807D803109F0C4CCE480FF24F394BC
:1051000011E041E0802F8F2109F040E02E2D2F216A
:10511000FF0C612F80E80E9400001F5F153089F7A7
:10512000B0CC61E4DCCF62E4DACF63E4D8CF64E4EE
:10513000D6CF65E4D4CF66E4D2CF67E4D0CF68E4BD
:10514000CECF81E00E946B07F4CC823081F41092C4
:10515000A3040E94AC0790919E04891306C083E0CB
:105160000E94BA0720919D04DBCC82E0EBCF833014
:1051700009F0DFCC1092A3040E94AC0790919D042B
:10518000891302C080E0DECF84E0DCCF81E0809331
:105190001B031092A30480E00E946B073FCD80E0C8
:1051A000A7CD8FEF9FEF13CE60957095682379237D
:1051B00015CE0FEFA7CE8FEF9FEF0E94681761E02B
:1051C0008AE00E94240C8BEA94E00E94FA0B61E0D2
:1051D00080910F030E94240C0C94501B78E07B15E7
:1051E00050F3F12C0C94531D163411F40C94171F2A
:1051F000173411F00C947A1FA7FC02C00C94231FE3
:1052000080914D050E9468180C94501B6F01CECC04
:10521000F999FECF92BD81BDF89A992780B508957E
:10522000262FF999FECF1FBA92BD81BD20BD0FB6C2
:10523000F894FA9AF99A0FBE01960895AA1BBB1B1F
:1052400051E107C0AA1FBB1FA617B70710F0A61B86
:10525000B70B881F991F5A95A9F780959095BC01A7
:10526000CD010895A1E21A2EAA1BBB1BFD010DC0A2
:10527000AA1FBB1FEE1FFF1FA217B307E407F50706
:1052800020F0A21BB30BE40BF50B661F771F881FE2
:10529000991F1A9469F760957095809590959B0178
:1052A000AC01BD01CF010895EE0FFF1F0590F491F1
:1052B000E02D09946817790768F4FB01DC01E40F1D
:1052C000F51FA40FB51F02C002900E92415050402E
:1052D000D8F708950C946C29FB01DC0102C0019001
:0E52E0000D9241505040D8F70895F894FFCF3A
:1052EE00FFFF01FFFFFFFFFFFFFFFFFFFFFFFFFFBE
:1052FE00FFFFFFFFFF000040001400540001000AF2
:10530E00006400E80310271F10011B10015F00014D
:10531E005B00010F10000710002F10012710016F06
:10532E000001670001177000377000376000C00081
:10533E0001D00001811000911000A11000B11000E9
:10534E00801000901000A01000B01000813000916D
:10535E003000A13000B13000803000903000A0301D
:10536E0000B030008820008C20008800008C0000E7
:10537E0000500001007E00000001500001007E0080
:10538E000000020A000000FF000000030000000001
:10539E0000000001040000000000000001050000F4
:1053AE0000000000000106080000000800000007D1
:1053BE0006000600060000010800000000FF0002C3
:1053CE00003132334100343536420037383943002C
:1053DE002A302344001000200040008000FE00FD13
:1053EE0000FB00F7000000000098056B05F907416F
:1053FE000564055105420500000000F40BB003F9E9
:04540E0007F8070094
:00000001FF
