:100000000C948C020C94B4020C94B4020C94B402C0
:100010000C94B4020C94B4020C94B4020C94B40288
:100020000C94B4020C94B4020C94D3160C944C159A
:100030000C94B4020C94B4020C94B4020C94B40268
:100040000C94E3130C94B4020C94B4020C94B40218
:100050000C94B4020C94B4020C94B4020C94B40248
:100060000C942D140C94B4025374657565726E3F34
:100070000053562D456469746F723F004D6F64756F
:100080006C2D41647265737365004D6F64756C2DE2
:10009000416472657373656E3F004D6F64756C2DBE
:1000A00053756241647265737365003F3F3F004161
:1000B00064723A00506F72743A004E657565204163
:1000C000647265737365004B6F6D6D756E696B61FE
:1000D00074696F6E21004665686C6572206265699F
:1000E000007769726420676573656E6465742E2E8F
:1000F0002E00506F72742D416472657373650054E5
:10010000656C656772616D6D2D41727400307800A9
:100110002056006665727469670056657273696F70
:100120006E20004C6F636F494F2D53562D45646907
:10013000746F72003F3F3F00436F6E666967203106
:100140000053572D49440056657273696F6E006EF7
:100150006F742075736564006E6F742075736564C9
:10016000006E6F7420757365640044656C6179205E
:100170004230004F776E49440044657669636549B3
:100180004400726F0043560050756C733220486112
:10019000726452657365740050756C733220536FCE
:1001A000667452657365740050756C7331204861D4
:1001B000726452657365740050756C733120536FAF
:1001C00066745265736574004669782E6F75743273
:1001D000206F6620626C34004669782E6F75743229
:1001E000206F6620202034004669782E6F757432A7
:1001F000206F6620626C20004669782E6F7574321D
:10020000206F6620202020004669782E6F7574329A
:10021000206F6E20626C34004669782E6F757432E0
:10022000206F6E20202034004669782E6F7574325E
:10023000206F6E20626C20004669782E6F757432D4
:10024000206F6E20202020004669782E6F75743153
:10025000206F6620626C34004669782E6F757431A9
:10026000206F6620202034004669782E6F75743127
:10027000206F6620626C20004669782E6F7574319D
:10028000206F6620202020004669782E6F7574311B
:10029000206F6E20626C34004669782E6F75743161
:1002A000206F6E20202034004669782E6F757431DF
:1002B000206F6E20626C20004669782E6F75743155
:1002C000206F6E20202020004F7574707574206F91
:1002D000636375702E626C004F7574707574206F57
:1002E000636375702E202000436F6E74322E506E43
:1002F000742E466565646200436F6E74312E506ED5
:10030000742E466565646200537769746368506E45
:10031000742E4665656462005075736842746E2E73
:1003200068696720696E64005075736842746E2E48
:1003300068696720202020005075736842746E2E13
:100340006C6F7720696E64005075736842746E2E0E
:100350006C6F772020202000546F67676C652053F6
:100360007769742E696E6400546F67676C652053FB
:100370007769742E20202000426C636B4465742ED4
:100380006869672064656C00426C636B4465742E19
:100390006869672020202000426C636B4465742EDE
:1003A0006C6F772064656C00426C636B4465742EDF
:1003B0006C6F7720202020003F3F3F00206F6E2091
:1003C00000206F66660020420053746F6572756E80
:1003D00067005374617475733F00416266726167B0
:1003E00065206C6165756674004C6F636F494F2DB5
:1003F000496E69743F004E657565722054797000CE
:10040000202D3E2073706569636865726E3F0061E0
:100410006E67657363686C6F7373656E3F006E75AE
:10042000722065696E204C6F636F494F00696E6979
:100430007469616C6973696572742E2E2E004C6F3D
:10044000636F494F20776972640042656F62616330
:100450006874656E3F006175730065696E00417573
:100460007367616E67737374617475730043563F8D
:100470000054617374617475722D5465737400490E
:100480006E626574726965626E61686D653F004990
:1004900032432D5363616E3F0020202020004374BF
:1004A000726C006175730065696E006661696C65E8
:1004B000640073746F7265640000000000240027FC
:1004C000002A0000000000250028002B000000008A
:1004D0000023002600290004040404040404040288
:1004E00002020202020303030303030102040810D1
:1004F000204080010204081020010204081020009E
:1005000000000800020100000304070000000000D2
:10051000000000003319712911241FBECFEFD8E06D
:10052000DEBFCDBF26E0ACE2B2E001C01D92A33435
:10053000B207E1F712E0A0E0B1E0E8E3F8E502C0BD
:1005400005900D92AC32B107D9F712E0CBE8D2E0BA
:1005500004C02197FE010E94052ACA38D107C9F7B5
:100560000E942E1A0C940F2C0C94000091E0909392
:10057000AF058093D1051092B0051092D205089571
:10058000089508958091550590915605009739F486
:1005900081E090E09093560580935505089541972A
:1005A000E8F380E190E0F6CF833081F028F48130E9
:1005B00099F08230A9F008958730A9F08830C9F009
:1005C0008430B1F4809180008F7D03C080918000E1
:1005D0008F7780938000089584B58F7784BD0895C8
:1005E00084B58F7DFBCF8091B0008F778093B00072
:1005F00008958091B0008F7DF9CFCF93DF93E4E031
:10060000F5E08491E0EFF4E0D491ECEDF4E0C491F6
:10061000CC23A1F081110E94D402EC2FF0E0EE0F68
:10062000FF1FE353FB4FA591B491EC91ED2381E0C3
:1006300090E009F480E0DF91CF91089580E090E0B0
:10064000FACF1F93CF93DF93282F30E0F901E150C9
:10065000FB4F8491F901E551FB4FD491F901E95227
:10066000FB4FC491CC23A9F0162F81110E94D40214
:10067000EC2FF0E0EE0FFF1FED53FB4FA591B4916F
:100680008FB7F894EC91111108C0D095DE23DC935C
:100690008FBFDF91CF911F910895DE2BF8CFCF93BD
:1006A000DF9390E0FC01E551FB4F249189529B4F71
:1006B000FC0184918823D1F090E0880F991FFC0100
:1006C000E754FB4FA591B491FC01ED53FB4FC5914D
:1006D000D491623071F49FB7F8943C91822F809549
:1006E00083238C93E8812E2B28839FBFDF91CF91AA
:1006F00008958FB7F894EC912E2B2C938FBFF6CFE3
:100700003FB7F8948091B3049091B404A091B504DC
:10071000B091B60426B5A89B05C02F3F19F00196ED
:10072000A11DB11D3FBFBA2FA92F982F8827BC014B
:10073000CD01620F711D811D911D42E0660F771F73
:10074000881F991F4A95D1F708952FB7F8946091A3
:10075000AF047091B0048091B1049091B2042FBFA6
:100760000895AF92BF92CF92DF92EF92FF920F93D4
:100770001F93CF93DF936C017B018B01040F151F37
:10078000EB015E01AE18BF08C017D10759F069919F
:10079000D601ED91FC910190F081E02DC601099503
:1007A000892B79F7C501DF91CF911F910F91FF90B0
:1007B000EF90DF90CF90BF90AF9008952091DD0231
:1007C000260F3327331F21323105ECF42091A90580
:1007D000FC0190E080E0243069F082E00895A0916F
:1007E000DD022191AC0143545D4FA40FB52FB11D23
:1007F0002C930196861798F38091DD02680F609321
:10080000DD0280E0089581E008951092A90581E05D
:100810008093A8051092830561E082E10E94210384
:1008200061E083E10E942103E9EBF0E080818E7FAB
:10083000808380818D7F808388E48093B80085E405
:100840008093BC0008951092600510925F0510928D
:10085000B0051092D2050E94050480EC92E09093BE
:100860005A058093590581EC92E090935805809346
:1008700057050895CF93DF9391E09093BC028823AE
:10088000B9F0C091B800D091BA008091BC008A7BC9
:100890008093BC0060E082E10E94210360E083E17C
:1008A0000E9421030E940504D093BA00C093B800AF
:1008B000DF91CF910895CF92DF92EF92FF920F9345
:1008C0001F93CF93DF93D091D20581E0D13208F00E
:1008D0009CC0C091D1050E9480036B017C01809176
:1008E000A90581116CC082E08093A90581E0809305
:1008F000A8058FEF8093A7051092A605D093A505B4
:10090000A1EBB5E0E5E8F5E080E0D8138DC01092EA
:10091000840580918405CC0FC82BC09384058091F9
:100920008305813009F084C0109283050E94800302
:100930006B017C01809184058093BB008091AB05A5
:100940009091AC05A091AD05B091AE05892B8A2B95
:100950008B2BA1F00E9480030091AB051091AC0598
:100960002091AD053091AE056C197D098E099F0966
:10097000061717072807390708F442C08091BC0002
:1009800083FDD8CF85EC8093BC000E9480036B016F
:100990007C018091A905823009F44CC08091A705A3
:1009A0008F3F09F469C08091A705803209F466C0C1
:1009B0008091A705803309F463C084E026C080914C
:1009C000AB059091AC05A091AD05B091AE05892B1A
:1009D0008A2B8B2B09F483CF0E9480030091AB05F7
:1009E0001091AC052091AD053091AE056C197D09D3
:1009F0008E099F09061717072807390708F06FCFD8
:100A00008091AA050E943A0485E01092B0051092E8
:100A1000D2051092AF05DF91CF911F910F91FF90FA
:100A2000EF90DF90CF9008959D9191938F5F6DCF60
:100A300085EEA9CF8091AB059091AC05A091AD0555
:100A4000B091AE05892B8A2B8B2B09F4A2CF0E9483
:100A500080030091AB051091AC052091AD0530915C
:100A6000AE056C197D098E099F090617170728071F
:100A7000390708F08ECFC4CF80E0C7CF82E0C5CF62
:100A800083E0C3CF0895E091600580915F05E8178A
:100A900030F4F0E0EF59FA4F808190E008958FEF45
:100AA0009FEF08959091600580915F052FEF3FEFD4
:100AB000981748F4E92FF0E0EF59FA4F208130E021
:100AC0009F5F90936005C901089580915F059091A3
:100AD0006005891B990B0895CF92DF92EF92FF92E8
:100AE0000F931F93CF93DF937C01CB018A01209159
:100AF000AF05222389F0EB016B01C40ED51ECC1586
:100B0000DD0569F06991D701ED91FC910190F081CB
:100B1000E02DC7010995F3CF642F0E94DE03C801C1
:100B2000DF91CF911F910F91FF90EF90DF90CF90C9
:100B30000895CF93DF931F92CDB7DEB769832091DD
:100B4000AF052223F9F02091D205203258F021E0A0
:100B500030E0FC013383228390E080E00F90DF914E
:100B6000CF9108958091B005E82FF0E0EF54FA4F4F
:100B7000998190838F5F8093B0058093D20581E047
:100B800090E0ECCF61E0CE0101960E94DE03F7CF4A
:100B9000CF93C62F60938105709382050E94B602A1
:100BA0006C2F83ED95E00E949905CF910C945B0426
:100BB000682F83ED95E00C949905CF93DF93EC01BA
:100BC00018820E942304888180620E94B60280E01D
:100BD0000E94D8058FEF0E94D8050E945B0488818F
:100BE00080620E94B60281E00E94D8058FEF0E94C9
:100BF000D805DF91CF910C945B04CF93DF93D62F70
:100C0000C72FFC01808180620E94B60282E10E94AF
:100C1000D8058D2F0E94D8058C2F0E94D805DF9112
:100C2000CF910C945B049C01DC01A058BF4FEC9168
:100C300091E09E0F9C93E20FF32FF11D608397FDCF
:100C40001C920895FC0180818076803611F48181A8
:100C500008958081829586708E5F0895CF92DF928D
:100C6000EF92FF920F931F93CF93DF93EC0109E173
:100C70001EE2EE24E394F12C93E0D92ECC24C3940D
:100C8000CE010E9422068093C504E091C504E15084
:100C90001092C4048FEF9091C4049E1768F4A09141
:100CA000C404AC0FBD2FB11D9C9189279091C40441
:100CB0009F5F9093C404EFCFEC0FFD2FF11D808355
:100CC000F8948091C304813059F48091C204811753
:100CD00038F01092C30480916F008D7F80936F0075
:100CE00078948091C304813031F48091C2048431BE
:100CF00038F2C12CC5CF8091C30481110EC0F89485
:100D000080916F008F7D80936F00B59B09C08091AB
:100D10006F00806280936F007894C110B1CF56C08D
:100D2000E091C004F091C10480819091BF049701CB
:100D300001C0220F9A95EAF7822B8083809184006C
:100D4000909185008A5A9C4F9093BE048093BD0475
:100D50008091BD049091BE04909389008093880097
:100D60007894D093BC04C093BB041092C404109236
:100D7000BA0488818093B904D092C3041092C2044B
:100D8000B19A80916F00826080936F008091C3045C
:100D90008330E1F38091BA048823B1F0E091B70485
:100DA000F091B804E757FF4F8081918101969183BC
:100DB000808383E090E0DF91CF911F910F91FF90AE
:100DC000EF90DF90CF9008958091C3041B3108F01D
:100DD0001150015009F052CF809151059091520568
:100DE0000196909352058093510586E090E0E3CF01
:100DF000CF93DF93CDB7DEB760970FB6F894DEBF21
:100E00000FBECDBF0197811528E0920708F03FC0C3
:100E100020E5240F2330D8F5413BF9F0423B59F14E
:100E20009C01220F232F221F330B31958F776111E5
:100E300012C0206190EB99838A832B83CE010196A7
:100E40000E942E0660960FB6F894DEBF0FBECDBF8F
:100E5000DF91CF9108952063EDCF9C01220F232FC6
:100E6000221F330B31958F77611103C0206191EB05
:100E7000E2CF2063FCCF292FAC01569547954F77E1
:100E800080FD206282EB89834A832061D6CF85E092
:100E900090E0D8CFD9011C92FA011082DB011C929C
:100EA00080389105B8F4E091A404E817190691F090
:100EB00088F0FC01EE0FFF1FE80FF91FEC5DFC4FFF
:100EC00080818C938181DA018C938281F901808306
:100ED00081E0089580E00895811108C010921E03FA
:100EE00010921D0360E089E00C94210390E0909340
:100EF0001E0380931D03F6CFCF93DF93EC01809107
:100F0000AB04803401F56623F1F081E0809309039E
:100F10009091A404E92FF0E09F01220F331FD90123
:100F2000AE0FBF1FAC5DBC4FCD93DC93411140E1D0
:100F3000E20FF31FEC5DFC4F428381E0890F87FDD8
:100F400005C08093A404DF91CF9108951092A4046A
:100F5000FACF462F60E10C947C07E091AC04F0914D
:100F6000AD04828520E1829FC0011124807896859E
:100F70009F77892B08958093AB040E94A50360930B
:100F80001F037093200380932103909322030895FD
:100F90000E94230489E3809315010E94B6020E94F7
:100FA0005B04811106C080910A03882379F081E0F7
:100FB0000AC081E2809315010E94B6020E945B0480
:100FC000882389F380E080930A03089580911501B6
:100FD00090E09093E0058093DF056FEF70E00E9452
:100FE000C80510925E0510925D05E1CF089590E06E
:100FF00080E008958F929F92AF92BF92CF92DF923E
:10100000EF92FF921F93CF93DF93D82F162F0E945A
:1010100080036B017C018091A905811166C0C12FFD
:1010200081E08093A9058093A8059FEF9093A70581
:101030001092A605910F9093A50580938405809149
:101040008405DD0FD82BD0938405809183058130F2
:1010500009F082C0109283050E9480036B017C011D
:10106000809184058093BB008091AB059091AC0585
:10107000A091AD05B091AE05892B8A2B8B2BA1F0E9
:101080000E9480038090AB059090AC05A090AD05C8
:10109000B090AE056C197D098E099F0986169706DA
:1010A000A806B90608F442C08091BC0083FDD8CFE1
:1010B00085EC8093BC000E9480036B017C018091D1
:1010C000A905813009F44AC08091A605811710F462
:1010D000C091A605A5E8B5E0E1E6F5E080E08C1753
:1010E00051F19D9191938F5FFACF8091AB059091D3
:1010F000AC05A091AD05B091AE05892B8A2B8B2B49
:1011000009F489CF0E9480038090AB059090AC05D4
:10111000A090AD05B090AE056C197D098E099F09B0
:1011200086169706A806B90608F075CF8091AA051D
:101130000E943A04C0E010926005C0935F058C2FB6
:10114000DF91CF911F91FF90EF90DF90CF90BF90F4
:10115000AF909F908F90089585EEABCF8091AB05B7
:101160009091AC05A091AD05B091AE05892B8A2B6D
:101170008B2B09F4A4CF0E9480038090AB05909044
:10118000AC05A090AD05B090AE056C197D098E0937
:101190009F0986169706A806B90608F090CFC6CF15
:1011A000CF92DF92EF92FF920F931F93CF93DF9333
:1011B000C0915D05D0915E05E090DF05F090E005FF
:1011C000FE01EE0FFF1FEC5FFD4F60817181C701D3
:1011D0000E94C8059CEFC92E91E0D92E10E000E0D6
:1011E00061E070E0C7010E94FA0783ED95E00E947C
:1011F0005205F601419151916F0120918105309185
:1012000082058227932784179507A1F485E08C9F98
:10121000F0018D9FF00D1124E851FE4FE00FF11FFA
:101220008081082E000C990B90935C0580935B05E0
:1012300080E00FC00F5F1F4F0430110589F68091C9
:101240005B0590915C05009769F010925C05109227
:101250005B05DF91CF911F910F91FF90EF90DF9091
:10126000CF9008956FEF70E0C7010E94C8052196E6
:10127000C430D10529F0D0935E05C0935D05D8CF69
:1012800010925E0510925D05D3CFFF920F931F93CE
:10129000CF93DF938C01C62FDCE0683010F0C8508C
:1012A000DDE0F801808180620E94B6028D2F0E94ED
:1012B000D8050E945B04F8018081806261E070E0E3
:1012C00090E00E94FA0783ED95E00E945205F82E07
:1012D000F801808180620E94B6028D2F0E94D8059D
:1012E00081E090E001C0880FCA95EAF78F290E943B
:1012F000D805DF91CF911F910F91FF900C945B0463
:101300000F931F93CF93DF938C01C62FD2E16830E8
:1013100010F0C850D3E1F801808180620E94B602CB
:101320008D2F0E94D8050E945B04F80180818062A5
:1013300061E070E090E00E94FA0783ED95E00E9482
:101340005205992702C095958795CA95E2F7817055
:10135000DF91CF911F910F910895FF920F931F93EB
:10136000CF93DF931F92CDB7DEB78C016983F42E44
:10137000F8014783608785E090E095838483642F3C
:10138000CE0101960E948009F80116826F2DCE01D0
:1013900001960E948009882319F083E0F801868372
:1013A0000E94A503F80160837183828393830F9069
:1013B000DF91CF911F910F91FF900895EF92FF92CF
:1013C0000F931F93CF93DF938C01C62FE42E84E1FC
:1013D000F82ED2E1683020F0C85095E1F92ED3E123
:1013E000F801808180620E94B6028F2D0E94D8058C
:1013F0000E945B04F8018081806261E070E090E00F
:101400000E94FA0783ED95E00E94520521E030E04A
:1014100001C0220FCA95EAF7F1E0C82FC22BEF16E0
:1014200019F02095C22FC823F801808180620E94A4
:10143000B6028D2F0E94D8058C2F0E94D805DF910F
:10144000CF911F910F91FF90EF900C945B04FC01E2
:10145000962F828D8F3F31F0603140F4CF014B9653
:101460000C94DE09642F892F0C94210308950F93A7
:101470001F93CF93DF93C62F8C01055E1F4FD1E0E2
:1014800062FB442740F94D2768E0C8010E94DE094D
:10149000C1FB442740F94D2767E0C8010E94DE09DF
:1014A0004C2F4095417066E0C801DF91CF911F91AC
:1014B0000F910C94DE09FF920F931F93CF93DF934C
:1014C0008C01C62FF42ED0E0683010F0C850D1E067
:1014D000F801808180620E94B6028D2F0E94D8059B
:1014E0000E945B04F8018081806261E070E090E01E
:1014F0000E94FA0783ED95E00E94520521E030E05A
:1015000001C0220FCA95EAF7C82FC22BFF2019F09D
:101510002095C22FC823F801808180620E94B60204
:101520008D2F0E94D8058C2F0E94D805DF91CF9176
:101530001F910F91FF900C945B04603110F40C9498
:101540005B0A0895CF93DF93EC0140E06E810E9427
:10155000270A41E06E81CE010E94270A40E06E8199
:10156000CE010E94270A8BE891E00197F1F7DF9105
:10157000CF910895AF92BF92CF92DF92EF92FF92F8
:101580000F931F93CF93DF93EC018A8D8E01095F38
:101590001F4FC62ED12C8F3F09F480C07E018BE1F6
:1015A000E80EF11C8B8D80620E94B60282E10E94DF
:1015B000D8050E945B048B8D806262E070E090E051
:1015C0000E94FA0783ED95E00E945205B82E83ED44
:1015D00095E00E94520560E0782FCB018B29F8013D
:1015E00030E020E001E010E04191B801042E02C09B
:1015F000660F771F0A94E2F760957095862397230C
:10160000B601022E02C0759567950A94E2F76170E3
:10161000772702C0660F771F4A95E2F7862B972B34
:101620002F5F3F4F24303105F9F62E81680102C04B
:10163000CC0CDD1C2A95E2F7C094D094C822D922A4
:10164000B601C7010E94FD058E81B80102C0660F78
:10165000771F8A95E2F7C62AD72AB601C7010E94EA
:10166000FD058E81B80102C0660F771F8A95E2F7EB
:10167000609570956C217D21C7010E94FD058BE866
:1016800091E00197F1F7DF91CF911F910F91FF90BA
:10169000EF90DF90CF90BF90AF900895F12CE12CA8
:1016A0005E01EBE1AE0EB11CF80181918F019A8DC4
:1016B0009F3F39F141E0682FC5010E949D0AA601B4
:1016C0000E2C02C0559547950A94E2F74170F80137
:1016D00031976081CE010E94270AFFEFEF1AFF0ABF
:1016E00084E0E816F10401F7CE01DF91CF911F915C
:1016F0000F91FF90EF90DF90CF90BF90AF900C9440
:10170000A20A61E00E944F03DACFAF92BF92CF925C
:10171000DF92EF92FF920F931F93CF93DF93EC0131
:10172000F62E6C810E94270A6D816F3F21F040E008
:10173000CE010E94270A0F2D10E08C8984FF3BC048
:101740006E0187E0C80ED11CF12CE12C5E01EBE1AB
:10175000AE0EB11CF60181916F019A8D9F3F39F158
:1017600041E0682FC5010E949D0AA8010E2C02C00D
:10177000559547950A94E2F74170F60131976081DB
:10178000CE010E94270AFFEFEF1AFF0A88E0E81651
:10179000F10401F7CE01DF91CF911F910F91FF90DE
:1017A000EF90DF90CF90BF90AF900C94A20A61E0D1
:1017B0000E944F03DACFB80184E0759567958A954A
:1017C000E1F7CE010E94BA0A6F2DCE01DF91CF91D1
:1017D0001F910F91FF90EF90DF90CF90BF90AF904F
:1017E0000C94BA0A41E00E94850B81E090E00895D4
:1017F0000F931F93CF93DF938C01D0E0C0E0F801EB
:10180000EC0FFD1F6491662339F041E08EEE95E008
:101810000E94850B2196F3CFCE01DF91CF911F91CE
:101820000F91089583E191E00C94F80B41E0682F4B
:101830008EEE95E00E94850B81E090E0089540E0F7
:101840000C94850BCF93DF93CDB7DEB728970FB6F7
:10185000F894DEBF0FBECDBF98E0ECE1F1E0DE0111
:10186000119601900D929A95E1F7909106069617C0
:1018700008F46FEF262F30E0220F331F41E050E0D5
:101880004C0F5D1F240F351FF9016081680F6068E0
:101890008EEE95E028960FB6F894DEBF0FBECDBF52
:1018A000DF91CF910C941F0C1F93CF93DF93CDB793
:1018B000DEB7C654D1090FB6F894DEBF0FBECDBF58
:1018C000182F61E080E00E94220C80911A03882387
:1018D00019F08EE30E94160C88EB93E0133208F0A7
:1018E0009CC088EA93E09A83898388E993E09C838B
:1018F0008B8388E893E09E838D8388E793E09887C5
:101900008F8388E693E09A87898788E593E09C87B0
:101910008B8788E493E09E878D8788E393E0988B9C
:101920008F8788E293E09A8B898B88E193E09C8B88
:101930008B8B88E093E09E8B8D8B88EF92E0988F65
:101940008F8B88EE92E09A8F898F88ED92E09C8F42
:101950008B8F88EC92E09E8F8D8F88EB92E098A31E
:101960008F8F88EA92E09AA389A388E992E09CA3EA
:101970008BA388E892E09EA38DA388E792E098A7C6
:101980008FA388E692E09AA789A788E592E09CA7B2
:101990008BA788E492E09EA78DA788E392E098AB9E
:1019A0008FA788E292E09AAB89AB88E192E09CAB8A
:1019B0008BAB88E092E09EAB8DAB88EF91E098AF67
:1019C0008FAB88EE91E09AAF89AF88ED91E09CAF44
:1019D0008BAF88EC91E09EAF8DAF88EB91E02196C4
:1019E0009FAF8EAF219788EA91E023969FAF8EAF8D
:1019F000239788E991E025969FAF8EAF259788E8D9
:101A000091E027969FAF8EAF2797E12FF0E0EE0F82
:101A1000FF1FEC0FFD1F81819281CA5BDF4F0FB664
:101A2000F894DEBF0FBECDBFDF91CF911F910C9414
:101A3000F80BCF93DF93EC0161E080E00E94220C71
:101A4000CE01DF91CF910C94F80B61E00E941F0C46
:101A50008BE39FE10197F1F70895CF93DF93EC01BA
:101A60008EEE95E00E94250D60E080E00E94220C41
:101A7000CE01DF91CF910C94F80B81EE90E00E94A3
:101A80002D0D82E580931B03089586ED90E00E9462
:101A90002D0D81E580931B0361E080E00E94220C04
:101AA00087EC90E00C94F80B81E790E00E942D0DFC
:101AB00086E480931B0310921A03089588E690E051
:101AC0000E942D0D87E080931B0310921A03089546
:101AD0008F929F92AF92BF920F931F93CF93DF93FA
:101AE000CDB7DEB7A1970FB6F894DEBF0FBECDBF5E
:101AF00019A2423008F44AE08E010F5D1F4F842E78
:101B0000912CB12CA12CA50194010E94E329E62F70
:101B1000B901CA01EA3044F5E05DD801EE938D01C8
:101B2000232B242B252B79F790E080E0109769F088
:101B3000FD0101900020E9F73197AF014A1B5B0BD3
:101B4000BD018EEE95E00E94B103A1960FB6F89408
:101B5000DEBF0FBECDBFDF91CF911F910F91BF9020
:101B6000AF909F908F900895E95CD7CFCF93C82F07
:101B700087FD21C080E30E94160CC034E0F480E3AE
:101B80000E94160CC032B8F480E30E94160CC031DB
:101B900090F480E30E94160CC83068F480E30E9441
:101BA000160CC43040F480E30E94160CC23018F4C6
:101BB00080E30E94160C6C2F70E090E080E042E021
:101BC000CF910C94680DCF93DF93EC016530D8F082
:101BD000C03187E2D80750F480E30E94160CC83E5B
:101BE00083E0D80718F480E30E94160CC436D105B0
:101BF00018F480E30E94160CCA30D10550F480E33B
:101C00000E94160C06C0643051F3633079F36230E1
:101C100099F3BE0190E080E04AE0DF91CF910C940F
:101C2000680D0F931F93CF938B01C42F63E090E057
:101C30000E94E30D86EC93E00E94F80B8C2F8770D6
:101C4000805D0E94160C80E20E94160C64E0C801C0
:101C50000E94E30D8CEB93E0C4FD02C081EC93E0A5
:101C6000CF911F910F910C94F80B8EEE95E00E948E
:101C7000250D60E080E00E94220C80915505909136
:101C80005605109209038038910560F5FC01EE0FAE
:101C9000FF1FE80FF91FEC5DFC4F6081718161153A
:101CA000710501F142810E94110E61E080E00E9405
:101CB000220C8091550590915605019610920903CA
:101CC0008038910578F4FC01EE0FFF1FE80FF91F33
:101CD000EC5DFC4F608171816115710519F04281E5
:101CE0000C94110E63E090E00C94E30DCF93DF931E
:101CF000D62FC42F63E090E00E94E30D8FE20E9494
:101D0000160C63E08D2F90E00E94E30D80E191E0DE
:101D10000E94F80B63E08C2F90E0DF91CF910C9440
:101D2000E30DCF93DF9300D01F92CDB7DEB78EEED9
:101D300095E00E94250D60E080E00E94220C8091D9
:101D4000550590915605019690935605809355053B
:101D50009E012D5F3F4FAE014E5F5F4FBE016F5F33
:101D60007F4F0E944A07882331F14B816A81898124
:101D70000E94760E61E080E00E94220C8091550561
:101D8000909156059E012D5F3F4FAE014E5F5F4F14
:101D9000BE016F5F7F4F01960E944A07882359F06A
:101DA0004B816A8189810E94760E0F900F900F906F
:101DB000DF91CF9108950E94120CF7CF82EF90E04F
:101DC0000E942D0D8EE680931B0381E080931A0301
:101DD00080911103909112039093560580935505BD
:101DE00061E080E00E94220C8EE30E94160C64E009
:101DF00080915505909156050C94E30DCF93DF9398
:101E000084EB90E00E942D0D8CE480931B032091C5
:101E1000A5045091A6047091A70410921303109288
:101E200015031092140330E0EEE2F1E040E080810F
:101E3000781361C0628180EF90E0613011F480ED31
:101E400090E082239323A181A817190609F053C0BB
:101E5000C9019695982F88279795879580789770D0
:101E60005F77852B662321F06130C9F1C0E008C09F
:101E70000196909315038093140340931303C1E0DC
:101E80008091020190E090935605809355050E9441
:101E9000C2028091550562E090E00E94E30D60E08F
:101EA00088E00E94220C8FEA90E00E94F80BCC237D
:101EB00041F164E080911403909115030E94E30DB9
:101EC00010921A0380911303C11101C08FEF0E9479
:101ED000540C81E080931A03DF91CF91089525FB84
:101EE000552750F9C52F20E0D22F2196880F991F32
:101EF0008C0F9D1FBECF4F5F3396433209F097CFB3
:101F0000B5CF8BEA90E00E94F80BDACF83E291E044
:101F10000E942D0D8AE191E00E94190D60910F0140
:101F20007091100190E080E04AE00C94680D0F93EE
:101F30001F93CF93DF930E94230480E20E94B60296
:101F40000E945B04811143C180911C03811121C156
:101F500062E085E00E944F0387E396E00E94DD0582
:101F6000809108068F3F09F457C00E94230489E03E
:101F700096E00E94DD0541E068E089E096E00E947D
:101F80005B0A41E066E089E096E00E945B0A41E07E
:101F900067E089E096E00E945B0A67E08EEE95E0DC
:101FA0000E94370A6091F305662329F041E089E039
:101FB00096E00E949D0A41E06091F20589E096E07A
:101FC0000E949D0A41E06091F40589E096E00E943C
:101FD0009D0A05EF15E0CEEED5E0F80161918F0185
:101FE00041E089E096E00E949D0AF5E0093F1F0765
:101FF000A1F703EF15E040E06F8589E096E00E94CD
:102000009D0A6F85603120F489E096E00E944509C1
:1020100021960C171D0779F780910206886080933E
:10202000020682E080930606109207068BE39DE08D
:102030000197F1F740E06091F2058EEE95E00E9485
:10204000270A40E06091F4058EEE95E00E94270A91
:102050006091F3056F3F29F040E08EEE95E00E941D
:10206000270A6091020664FD96C063E08EEE95E05B
:102070000E94BA0ACBE4D6E4CE010197F1F763E0FF
:102080008EEE95E00E94BA0A2197F1F763E08EEE9A
:1020900095E00E94BA0A83E592E00197F1F762E0C9
:1020A0008EEE95E00E94BA0A6091020660628EEEA2
:1020B00095E00E941F0C84E0809303066CE08EEE96
:1020C00095E00E941F0C8EEE95E00E94250D82E0A7
:1020D0008093040666E08EEE95E00E941F0C40E0BF
:1020E00065E087E396E00E945B0A65E087E396E09F
:1020F0000E94450944E050E0609137068AE096E08E
:102100000E94AD0943E050E0609137068CE196E013
:102110000E94AD0942E050E06091370685E296E00A
:102120000E94AD0941E050E06091370683E196E0FE
:102130000E94AD0950E040E0609137068EE296E0E3
:102140000E94AD098091110190911201069711F43E
:102150000E94860F10921B031092190310925605CD
:102160001092550510921803109213031092170342
:1021700010921603109215031092140381E08093BD
:1021800002018FEF9FEF9093010180930001109265
:102190001A0381E01DC060628EEE95E00E941F0C64
:1021A0008BE496E40197F1F76091020660628EEE8F
:1021B00095E00E941F0C83E592E00197F1F7609192
:1021C000020660628EEE95E00E941F0C6DCF80E0EB
:1021D00080931C03DF91CF911F910F91089585ED9E
:1021E0008093BC008091AB059091AC05A091AD05AA
:1021F000B091AE050796A11DB11D23E0B695A79538
:10220000979587952A95D1F72091BC0024FD03C0AE
:102210001092A90508954091AB055091AC056091CD
:10222000AD057091AE05452B462B472B69F3009702
:10223000A105B10541F02AE22A95F1F700C0019706
:10224000A109B109E1CF8091AA050C943A042F921B
:102250003F924F925F926F927F928F929F92AF9236
:10226000BF92CF92DF92EF92FF920F931F93CF9383
:10227000DF9300D000D0CDB7DEB79C838B837C0189
:1022800041E8E40EF11C6C0150E8C50ED11C8C0134
:102290000E571F4F8D579F4F2C018B819C818C5760
:1022A0009F4F4C0122242A94AB80BC8097E8A90E52
:1022B000B11CEB81FC81EB57FF4FFA83E983F701F7
:1022C0008081F6019081891709F4BAC0EB81FC8105
:1022D000E80FF11D308037FE6DC0F801908189173D
:1022E00039F0F501208131812F5F3F4F3183208309
:1022F000F8018083F2012082832D8076F4018036FC
:1023000009F441C0832D829586708E5F8083F80129
:102310002081F4018081820F9927991F81389105CE
:102320009CF180E8682E621AF894F6014081F80169
:102330008081841708F044C0F42FF81B8F2FF6011A
:1023400080837894F80160814617E8F5712C50E09D
:102350006B817C81CB01860D971D0E94F62BF801C5
:1023600060814B815C81460F511DBA01A3018B81B5
:102370009C810E94F62BF7018081F8019081891BD6
:10238000F7018083F8011082F70190819F5F9083AD
:10239000F8018081392F381B97FF02C0F7011082A6
:1023A000F2012081F40190819317A9F03226F20105
:1023B000308285CFF40180818111E6CF3082A7CFB2
:1023C000862D840FBCCF461B50E08B819C81860FED
:1023D000911DBC01CCCF32122AC04B815C81480FC9
:1023E000511DCA01E981FA81408151814F5F5F4FE0
:1023F00051834083F7013081F80130830097B1F2B7
:102400000F900F900F900F90DF91CF911F910F9130
:10241000FF90EF90DF90CF90BF90AF909F908F9004
:102420007F906F905F904F903F902F900895F501AF
:102430008081918101969183808390E080E0DACF62
:1024400090E080E0DDCF6F927F928F929F92AF926B
:10245000BF92CF92DF92EF92FF920F931F93CF9391
:10246000DF93E091AC04F091AD04D581D3709780F7
:10247000868073806280A82EE894A7F887FD9AC0B2
:10248000D061B62EE894B7F867FDD860C42EE89402
:10249000C7F811E147FF10E1D22EE894D7F827FDE5
:1024A0001260F02EE894F7F807FD14600E2D0F77F8
:1024B000E7FC1860C92DC82588E0C827C725C625B0
:1024C000C027CF25CD25CC25CB25CA25CD27C12793
:1024D00065EE8CE292E00E94130660E18CE292E0ED
:1024E0000E941306662D8CE292E00E941306672D6F
:1024F0008CE292E00E94130662E08CE292E00E947D
:1025000013066D2F8CE292E00E941306682D8CE278
:1025100092E00E941306692D8CE292E00E9413065D
:102520006A2D8CE292E00E9413066B2D8CE292E001
:102530000E941306612F8CE292E00E9413066C2D1C
:102540008CE292E00E9413066D2D8CE292E00E94D4
:1025500013066F2D8CE292E00E941306602F8CE22E
:1025600092E00E9413066C2F6F778CE292E00E943B
:1025700013066FEF8CE292E00E9413068CE292E069
:102580000E9427119093AD048093AC04009711F042
:102590000E942E0681E0DF91CF911F910F91FF9055
:1025A000EF90DF90CF90BF90AF909F908F907F90F3
:1025B0006F900895D46165CFCF92DF92EF92FF9232
:1025C0000F931F93CF93DF93D82EF62EE42EC09057
:1025D0000501122F12951870011175C002E0D22F5B
:1025E000DF77CBE0CC25CF25CE25CD25CD27C12744
:1025F000C02765EE8CE292E00E94130660E18CE257
:1026000092E00E9413066C2D8CE292E00E94130669
:102610006D2D8CE292E00E94130661E08CE292E064
:102620000E941306612F8CE292E00E941306602F35
:102630008CE292E00E9413066E2D8CE292E00E94E2
:10264000130660E08CE292E00E9413066D2F8CE28C
:1026500092E00E94130660E08CE292E00E94130672
:102660006F2D8CE292E00E94130660E08CE292E013
:102670000E94130660E08CE292E00E94130660E084
:102680008CE292E00E9413066C2F6F778CE292E04E
:102690000E9413066FEF8CE292E00E9413068CE218
:1026A00092E00E9427119093AD048093AC040097B0
:1026B00061F0DF91CF911F910F91FF90EF90DF902C
:1026C000CF900C942E0601E08ACFDF91CF911F911D
:1026D0000F91FF90EF90DF90CF9008950F931F938D
:1026E000CF93DF93C82FD62F142F61E089E00E948B
:1026F000210310921E0310921D0388E00E94BB0765
:10270000C093AA04D093A904412F440F410F4093D2
:10271000A80400E020E06D2F8C2F0E94DC12DF91D6
:10272000CF911F910F9108950F931F93CF93DF9334
:10273000E82FF0E099E0899FD0011124A956BE4FFF
:1027400015962D913C9126173707C0F08B01C82FA5
:10275000EE0FFF1FED5FFE4F71836083CF5FCC0FE5
:10276000D0E0612FCE010E948A29602FCE01019610
:10277000DF91CF911F910F910C948A29DF91CF9116
:102780001F910F910895893010F40C9494130895BB
:10279000CF93DF936DE490E080E00E948A296AE5A0
:1027A00081E090E00E948A29C7E9D1E069817A81BD
:1027B00088810E94C313299681E0C83ED807B1F7EB
:1027C000DF91CF9108951F920F920FB60F921124AF
:1027D0002F933F938F939F93AF93BF938091AF04B9
:1027E0009091B004A091B104B091B2043091AE04C4
:1027F00023E0230F2D3758F50196A11DB11D20931D
:10280000AE048093AF049093B004A093B104B0934E
:10281000B2048091B3049091B404A091B504B09136
:10282000B6040196A11DB11D8093B3049093B40426
:10283000A093B504B093B604BF91AF919F918F91CF
:102840003F912F910F900FBE0F901F90189526E883
:10285000230F0296A11DB11DD2CF1F920F920FB66A
:102860000F9211242F933F934F935F936F937F9316
:102870008F939F93AF93BF93EF93FF938091B90092
:10288000887F803609F44AC0F0F5883209F4A7C081
:1028900018F5803109F49BC0B8F4882309F4F9C015
:1028A000883009F494C0FF91EF91BF91AF919F914F
:1028B0008F917F916F915F914F913F912F910F90E9
:1028C0000FBE0F901F901895883109F488C0803290
:1028D00051F78093A70514C0803409F49DC040F4DB
:1028E0008033B9F38833F9F68093A70585ECB0C03F
:1028F000803509F485C0883509F496C0883499F686
:102900000E94EF10D0CF883909F48CC038F5883791
:1029100029F050F4883611F0803729F683E080934F
:10292000A9051092FF0257C0883809F47BC080398E
:1029300019F0803809F0B7CF8091FF02803208F09B
:1029400071C0E091FF0281E08E0F8093FF028091C1
:10295000BB00F0E0E152FD4F80833DC0803B39F089
:10296000E0F4803A09F479C0883A09F09CCF84E019
:102970008093A9051092DE021092DD02E0915905C4
:10298000F0915A0509958091DD0281110FC081E017
:102990008093DD021092BD0209C0803C09F4A6CFED
:1029A000883C09F4A3CF883B09F07DCFE091DE029B
:1029B00081E08E0F8093DE02F0E0E354FD4F8081D2
:1029C0008093BB009091DE028091DD0229C080914E
:1029D00084058093BB0085EC8093BC0064CF90910C
:1029E000A6058091A505981758F5E091A60581E008
:1029F0008E0F8093A605F0E0EB57FA4F8081E9CF68
:102A0000E091A60581E08E0F8093A6058091BB0022
:102A1000F0E0EB57FA4F80839091A6058091A505D1
:102A20009817C8F285E8D8CFE091A60581E08E0F0F
:102A30008093A6058091BB00F0E0EB57FA4F8083AE
:102A40008091A80581115CCF81E08093830584EAA1
:102A50008093BC001092A90526CF85EC8093BC0022
:102A60001092A9058091FF02803230F4E091FF02BC
:102A7000F0E0E152FD4F10826091FF0270E0E091C2
:102A80005705F09158058FED92E009951092FF02DD
:102A90000ACF1092A70534CF1F920F920FB60F9254
:102AA0001124DF92EF92FF920F931F932F933F9386
:102AB0004F935F936F937F938F939F93AF93BF9346
:102AC000CF93DF93EF93FF93B19A8091BD049091E0
:102AD000BE0480549C4F9093BE048093BD048091AB
:102AE000BD049091BE0490938900809388008091EA
:102AF000BB02882371F01092BB02189B26C081E0B4
:102B00008093C304B59A80916F00806280936F00B8
:102B10001CC08091C2048F5F8093C2048091C30463
:102B2000843009F043C08091C204893030F580912F
:102B3000B90490E0959587958093B904189B05C0DA
:102B40008091B90480688093B904FF91EF91DF917F
:102B5000CF91BF91AF919F918F917F916F915F9135
:102B60004F913F912F911F910F91FF90EF90DF9028
:102B70000F900FBE0F901F901895B59A80916F001F
:102B8000806280936F008091B7049091B804189987
:102B900029C0FC01E957FF4F808191810196918303
:102BA00080831092C20481E08093C3048091C304A7
:102BB0008330E9F5E091C004F091C1048081209157
:102BC000BF0433B190E0022E02C0959587950A9418
:102BD000E2F7832780FD11C01092C20482E0809347
:102BE000C30425C06091B9040E94130680E090E000
:102BF000892BB9F20E940000D4CF8091C2048930A1
:102C000008F043C03091B90481E090E001C0880F22
:102C10002A95EAF7908130FF36C08095892380831A
:102C20008091B90490E0959587958093B90480913F
:102C3000C304823099F48091C20481118EC0E09166
:102C4000C004F091C10480819091BF0421E030E084
:102C500001C0220F9A95EAF7822B80838091C304EA
:102C6000813009F072CF8091C204882309F44ACFE1
:102C70008091C204883308F468CF1092C304809115
:102C80006F008D7F43CF892BCACF8091C2048930DA
:102C900059F4308181E090E001C0880F2A95EAF76D
:102CA000809583238083C3CF8091C4048F5F8093FA
:102CB000C4049091C504891750F51092C204809104
:102CC000BB049091BC04A091C404A80FB92FB11DFE
:102CD0008C918093B904808141E050E001C0440FA1
:102CE0002A95EAF7842B8083809184009091850057
:102CF0008A5A9C4F9093BE048093BD048091BD047A
:102D00009091BE04909389008093880090CF81E0D9
:102D10008093BA040091BB041091BC04E090B70406
:102D2000F090B804C8010E942206D82ED0E0C0E07E
:102D3000CD1548F4F801EC0FFD1F6081C7010E941A
:102D400013062196F5CF80E090E0892B11F00E94C8
:102D500000001092C20481E042CF8091C2048F3003
:102D600008F47CCFE091C004F091C104208130913F
:102D7000BF0481E090E001C0880F3A95EAF78095A2
:102D8000822380831092C20481E08093C304E09187
:102D9000B704F091B804E357FF4F80819181019609
:102DA000918380835BCF1F920F920FB60F921124F5
:102DB0008F939F93EF93FF93B59AEFE6F0E08081B6
:102DC0008F7D8083809186009091870080529E4FF6
:102DD0009093BE048093BD048091BD049091BE0485
:102DE0009093890080938800B19A8081826080836B
:102DF00084E08093C3041092C20481E08093BB02FC
:102E0000FF91EF919F918F910F900FBE0F901F90A8
:102E10001895893028F529E0829FF0011124E956A0
:102E2000FE4F85819681803127E29207C8F4883E63
:102E300023E09207B8F484369105B0F40A97B0F411
:102E400081E090911803891B990B8530910580F4DE
:102E5000880F991FFC01EC5DFE4F808191810895E0
:102E600085E0EFCF84E0EDCF83E0EBCF82E0E9CFE8
:102E700090E080E008958930B8F429E0829FF00165
:102E80001124E956FE4F85819681803127E2920711
:102E900058F4883E23E0920748F48436910540F4C4
:102EA0000A9740F481E0089585E0089584E008954C
:102EB00083E0089582E008958AE890E00E942D0D55
:102EC00088E480931B0310921A030895EF92FF92F7
:102ED0000F931F93CF93DF93CDB7DEB762970FB6F3
:102EE000F894DEBF0FBECDBF082FF92E6091030608
:102EF0006D7F6093030668608EEE95E00E941F0C64
:102F00008EEE95E00E94250D60E080E00E94220C8C
:102F100085E891E00E94F80B60E083E00E94220CBB
:102F2000E0901B031DEE1E0D1A3018F480E20E9483
:102F3000160C612F70E090E080E04AE00E94680D7E
:102F40001CEE1E0D60E086E00E94220C89E791E0F5
:102F50009A83898383E791E09C838B838AE691E05F
:102F60009E838D8381E691E098878F8388E591E049
:102F70009A8789878FE491E09C878B8787E491E02B
:102F80009E878D8781E491E0988B8F8788E391E01D
:102F90009A8B898B84E391E0193040F4E12FF0E0C3
:102FA000EE0FFF1FEC0FFD1F818192810E94F80B35
:102FB00061E080E00E94220C80911A03882319F0BE
:102FC0008EE30E94160C193080F589E0189FF001FD
:102FD0001124E956FE4F8781823039F5802F0E94F7
:102FE000B60D80911A0381114EC0193050F489E05A
:102FF000189FF0011124E956FE4F8085882309F4BB
:1030000044C061E08EE00E94220C82E891E062966A
:103010000FB6F894DEBF0FBECDBFDF91CF911F91E9
:103020000F91FF90EF900C94F80B812F0E943B17AB
:10303000682F802F9F2D0E94E30DD3CF89E0189F2A
:10304000F0011124E956FE4F808581111EC061E018
:10305000809118030E94220C60910306862F8260E3
:10306000809303066A608EEE95E062960FB6F89440
:10307000DEBF0FBECDBFDF91CF911F910F91FF90AB
:10308000EF900C941F0C1930C8F262960FB6F894AA
:10309000DEBF0FBECDBFDF91CF911F910F91FF908B
:1030A000EF900895CF93DF93EC0161E080E00E9400
:1030B000220C80911A03882319F08EE30E94160CCB
:1030C00064E0CE01DF91CF910C94E30DCF93C82F34
:1030D00061E080E00E94220C80911A03882319F09D
:1030E0008EE30E94160C63E08C2F90E0CF910C943D
:1030F000E30D8AE990E00E942D0D8BE480931B0381
:1031000080911603282F30E0309356052093550503
:103110000C9466188CE790E00E942D0D87E4809354
:103120001B0381E080931A0380911703282F30E05E
:1031300030935605209355050C9466188AEB90E061
:103140000E942D0D8DE480931B03809114039091B8
:103150001503909356058093550561E080E00E9429
:10316000220C80911A03882319F08EE30E94160C1A
:1031700064E080915505909156050C94E30D1F93E2
:10318000CF93DF93809155059091560501969093CA
:1031900056058093550561E080E00E94220C8091E5
:1031A0005505909156058038910528F0DF91CF9113
:1031B0001F910C94120C809155050E94B6020E943A
:1031C0005B04182F882311F08430F1F48DE091E036
:1031D0000E94F80BC0915505D0915605DD27C031EE
:1031E000D10518F480E30E94160CBE0190E080E047
:1031F00040E10E94680D80E2143009F48FE3DF9112
:10320000CF911F910C94160C809155059091560505
:1032100001969093560580935505C5CF8FEF90E0AA
:103220000E942D0D8FE680931B038091100390E088
:10323000909356058093550561E080E00E94220C32
:1032400080911A03882319F08EE30E94160C82E401
:103250000E94160C609155057091560590E080E033
:103260004AE00C94680DCF93DF931092D60510922C
:10327000D50588EE93E0A0E0B0E08093D705909369
:10328000D805A093D905B093DA0580E192E0909338
:10329000D4058093D30586E08093380680E8809338
:1032A000390688E080933A0610923B0610923C065D
:1032B00010923D0610923E0661E086E00E944F03A8
:1032C0000E94A50360933B0670933C0680933D06E5
:1032D00090933E068091150190E09093E0058093D5
:1032E000DF051092F1051092F00510920806109279
:1032F00002068FE08093F2058EE08093F3058DE067
:103300008093F4058CE08093F5058BE08093F605BF
:103310008AE08093F70589E08093F8051092FD0517
:1033200081E08093FE0582E08093FF0583E0809337
:10333000000684E08093010682E292E09093EF051C
:103340008093EE0510920A0610920B0610920C065E
:1033500010920D068AE090E090930F0680930E067F
:103360001092100610921106109213061092140675
:103370001092150610921606909318068093170661
:103380001092190610921A0610921C0610921D0631
:1033900010921E0610921F0690932106809320061D
:1033A00010922206109223061092250610922606ED
:1033B000109227061092280690932A0680932906D9
:1033C00010922B0610922C0610922E0610922F06A9
:1033D0001092300610923106909333068093320695
:1033E00010923406109235068CE18093ED05C1EE03
:1033F000D5E0198218821B821A821D821C8261E02C
:1034000070E090E080E00E94302B009799F0998363
:1034100088831B821A822C813D81232B11F4FC01AD
:1034200010821D821C826AE272E0888199810E946A
:10343000082C0CC088819981009711F00E94A72A5E
:10344000198218821D821C821B821A822696F5E040
:10345000CD3EDF0771F6DF91CF910895CF93DF93D3
:1034600000D000D01F92CDB7DEB7789484B58260CB
:1034700084BD84B5816084BD85B5826085BD85B518
:10348000816085BD80916E00816080936E00109296
:103490008100809181008260809381008091810011
:1034A00081608093810080918000816080938000A2
:1034B0008091B10084608093B1008091B000816000
:1034C0008093B00080917A00846080937A0080912C
:1034D0007A00826080937A0080917A008160809384
:1034E0007A0080917A00806880937A001092C100FF
:1034F00013E0E12E11E0F12E02E0C02ED12CC60126
:103500000E948229182FC60101960E948229212F2C
:1035100030E0322F2227820F932F911DD7018D93F8
:103520009D937D01B2E0CB0ED11CE4E1CE16D10417
:1035300031F780910F0190911001099728F469E00B
:1035400070E086E00E949413809111019091120125
:10355000069711F00E94C8130E94970F0E94C80797
:1035600061E089E00E944F03E6ECF4E08FE8DF01C0
:103570001D928A95E9F761E087E00E944F03E2EF30
:10358000F4E02491EEEDF4E0E491F0E0EE0FFF1FA3
:10359000ED53FB4F4591549180E091E031E02917C4
:1035A00041F08F5F932F082E01C0990F0A94EAF71C
:1035B000F6CF5093C1044093C0048093BF0486ECBF
:1035C00094E09093B8048093B7042098E091C004ED
:1035D000F091C10420813091BF0481E090E001C0EE
:1035E000880F3A95EAF780958223808310928000B5
:1035F00081E0809381001092C304B59A80916F009E
:10360000806280936F0080918100887F81608093C9
:10361000810022242394312C88248394912C6624C5
:103620006A94762C412C68E0562E0E94A5030091E6
:103630003B0610913C0620913D0630913E06601BF2
:10364000710B820B930B653171058105910508F4AF
:1036500055C00E94A50360933B0670933C0680937F
:103660003D0690933E061091390680913A06113C32
:1036700020F0819580933A0602C01032D0F38091F9
:103680003A06180F109339060091380661E0802F32
:103690000E944F03111105C060E0802F0E9421039A
:1036A0002DC01F3F11F461E0F8CFE02FF0E0E150B2
:1036B000FB4FE491E33009F4DAC040F4E130D1F09B
:1036C000E23009F4CFC017FDEECFE6CFE73009F4C2
:1036D000DAC0E83009F4DFC0E430A9F78091800057
:1036E000806280938000812F90E090938B00809384
:1036F0008A0004C084B5806884BD17BD0E94A503FC
:1037000000910403109105032091060330910703F3
:10371000601B710B820B930B6E3771058105910550
:1037200028F10E94A503609304037093050380931E
:103730000603909307039091030381E098279093E9
:103740000303992399F09091020398279093020321
:10375000992361F090910103982790930103992395
:1037600029F0909100038927809300030E94C807E5
:103770000E94970F80911C03813009F494C080E06F
:103780000E94BB071091AB04812F8F7B31F10E9407
:10379000A503C0901F03D0902003E0902103F09078
:1037A00022036C197D098E099F09693873418105CF
:1037B000910598F0103811F40C94862580911D0322
:1037C00090911E03912B90931E0380931D031092E2
:1037D000AB0460E089E00E94210386EC94E00E9443
:1037E0002711FC019093AD048093AC04892B11F454
:1037F0000C947B288091AB04882311F40C947B28D3
:103800007181272F30E06281462F50E0CA019695E2
:10381000982F88279795879580789770872B932B7B
:10382000A081A23B11F40C949D250196A13B11F4BB
:103830000C948E2810F00C948B25A33811F40C9462
:103840008528A03B11F40C948E28A23811F00C941A
:10385000AA2580E090E0892B11F40C94AA2580E041
:103860000C948B2884B5806284BD18BD47CF8091AD
:103870008000806880938000812F90E09093890081
:10388000809388003BCF8091B00080688093B00027
:103890001093B30033CF8091B00080628093B0006A
:1038A0001093B4002BCF65E087E396E00E94800977
:1038B000B0E28B9FC00111248095909561E085FD59
:1038C00060E08EEE95E00E94370A4DEFC42E45E091
:1038D000D42E10E000E05FE1A52EF02EF6016191FC
:1038E0006F0180E0603120F489E096E00E94800959
:1038F00090E002C0880F991FFA94E2F780959095A6
:10390000A8220F5F1F4F0530110539F710911B03D7
:10391000173409F19EE7E92EF12C1B34F9F080E110
:10392000E82EF12C1C34D1F01D34D1F11E36C1F13A
:10393000EE24EA94F12C1F36B9F11037C9F1173D86
:1039400069F4A1101FC080911903882309F4CCC722
:103950001092190317CF2FE7E22EF12C00911A03D2
:10396000002321F001E01E3409F400E080910A03F5
:10397000882339F30E94D008882319F38332E1F4B5
:103980006894A0F8809119038A1509F4ADC7A09234
:103990001903111150C0A2FEF5CE0E94540DF2CEB3
:1039A000E12C08E0F02EDACFB2E0EB2EF12CD6CFEE
:1039B000EE24E394F12CD2CF8A3219F46894A6F85D
:1039C000E1CF002309F4BDCF80538231A1F480916F
:1039D00055059091560570E060E08B30910520F020
:1039E0006AE070E00E94CF297093560560935505F8
:1039F0006894A7F8C7CF833129F410925605109226
:103A00005505F6CF8A30A0F74091550550915605DF
:103A10009AE0949F9001959F300D1124280F311D3D
:103A200087FD3A95E216F30608F0A9015093560572
:103A300040935505DDCF113009F5A3FE03C00E9468
:103A40005E0DA0CEA2FE08C08FE794E00E942D0D6F
:103A500082E080931B0396CEA1FE94CE8EEE95E07D
:103A60000E94250D60E080E00E94220C89EC93E02A
:103A70000E94F80B85E080931B0384CE1230A1F4E2
:103A8000A3FE08C082ED93E00E942D0D81E080939B
:103A90001B0378CEA1FE76CE8DE694E00E942D0D1C
:103AA00088EC80931B036ECE153019F4A4FE6ACE09
:103AB000E9CF163071F5A2FCC2CFA3FE03C00E946D
:103AC0005C1760CEA1FE5ECE8EEE95E00E94250DC5
:103AD00084E680931B0310925605109255051092B0
:103AE00023031092A404E4E2F3E084EA94E08E1746
:103AF0009F0729F01182108212823396F8CF10921C
:103B00001E0310921D0380E40E94BB070E94350E25
:103B100039CE173089F4A2FCB5CFA3FE08C08AE4E1
:103B200094E00E942D0D86E080931B032BCEA1FE16
:103B300029CE0E94DE0E26CE143108F4DAC180911F
:103B4000ED05811708F4D5C1FCEEBF2EB10EA0FE25
:103B500056C0F0901A03FF2009F414CE6091550569
:103B6000709156050B2D10E0F6E0BF121FC0672BB9
:103B7000B9F40E94C813000F111FF801ED5FFE4F4A
:103B8000808191810E94661761E08AE00E94220C88
:103B9000FF2011F40C944C2982EB94E00C944E29F4
:103BA00069E070E086E00E949413E5CF89E0809F91
:103BB000F001819FF00D1124E956FE4F838194811D
:103BC0006817790710F40C94572985819681861718
:103BD000970710F40C945729808581110C9457296C
:103BE0008B2D0E94C31328E02B1528F68FEF9FEF33
:103BF0000E94661761E08AE00E94220CCDCFA4FEED
:103C000017C080911A03882309F446CF10921A0333
:103C100038E08FEF9FEF3B1540F0EB2DF0E0EE0F1B
:103C2000FF1FED5FFE4F808191810E946617AACD34
:103C3000A1FE59C080911A03811120C078E07B1544
:103C4000E8F0EB2DF0E089E0B89ED0011124A956F0
:103C5000BE4F18968C91811111C0EE0FFF1FED5FC2
:103C6000FE4F80819181909356058093550521E008
:103C700020931A03109218030E94661780911A036A
:103C8000882309F47FCD109118031F5F1093180348
:103C900098E09B1548F0A9E0BA9EF0011124E9567E
:103CA000FE4F8781823061F08B2D0E943B1790E0A0
:103CB00001961817190631F481E08093180302C0A9
:103CC0001930D1F361E0809118030E94220C6091B9
:103CD0000306862F8260809303066A608EEE95E06D
:103CE0000E941F0C4FCDA3FE7AC090911A03992316
:103CF00009F45BC00091550510915605B8E08FEFAF
:103D00009FEFBB1508F43FC0CB2CD12C29E0B29E0D
:103D1000F0011124E956FE4FF78031E03F1580F0A5
:103D20008B2D0E940917800F911F90935605809349
:103D300055058017910720F41093560500935505FB
:103D4000409155055091560582E0F81212C08091BD
:103D5000180328E030E0281B3109C10102C0880F98
:103D6000991F2A95E2F7842B952B90935605809303
:103D7000550589E08C9DF0018D9DF00D1124E956CB
:103D8000FE4F858196812091550530915605821709
:103D9000930720F41093560500935505809155051F
:103DA000909156050E946617EDCCFF24F394F10E16
:103DB000F0921B03F81610F080931B03E0911B0395
:103DC000E4518FEF9FEFE93038F4F0E0EE0FFF1F82
:103DD000ED5FFE4F808191810E946617D3CCA2FCDB
:103DE00002C00C945D2980911A03882309F468C0ED
:103DF000009155051091560578E090E080E07B1524
:103E000008F442C0CB2CD12C89E0B89EF0011124DB
:103E1000E956FE4FF78091E09F1588F08B2D0E94A8
:103E20000917D801A81BB90BB0935605A0935505E7
:103E30000A171B0720F4109356050093550540916F
:103E400055055091560592E0F91214C0809118035F
:103E500028E030E0281B3109C10102C0880F991FFA
:103E60002A95E2F7809590958423952390935605A3
:103E70008093550589E08C9DF0018D9DF00D1124F6
:103E8000E956FE4F83819481209155053091560566
:103E90002817390720F41093560500935505809193
:103EA000550590915605019621F4109356050093FF
:103EB000550580915505909156050E94661762CC74
:103EC000115010931B03143118F484E180931B03E9
:103ED000E0911B03E4518FEF9FEFE93038F4F0E0FD
:103EE000EE0FFF1FED5FFE4F808191810E946617EC
:103EF00049CC163411F00C946129A2FCE0CDA3FE4C
:103F000005C00E94860F10921B033CCCA1FE3ACC48
:103F10000E948A1837CCA4FE0AC08091170390E053
:103F200090935605809355050E94540D2BCCA0FE0E
:103F300015C0809155058093170318160CF022CCFC
:103F4000803509F41FCC20910501309106018217BC
:103F5000130609F417CC0E94791814CC80911A0327
:103F6000882309F40FCCA3FE14C0809155059091CD
:103F7000560501979093560580935505892B21F49A
:103F80009092560580925505809155050E946618BD
:103F9000F9CBA2FEF7CB809155059091560501967D
:103FA00090935605809355058038910530F08FE742
:103FB00090E09093560580935505809155050E9499
:103FC0006618E0CB183409F046C0A2FE0BC080E0B2
:103FD0000E94BB078AE494E00E942D0D86E0809346
:103FE0001B03D0CBA3FC99CFA1FECCCB61E089E031
:103FF0000E942103109223031092A404E4E2F3E050
:1040000080E01082118212828F5F33968038C9F768
:1040100010921E0310921D030E94BB0700E020E0D7
:1040200040E060E080E00E94DC128AED93E00E94B4
:104030002D0D83E580931B030E94A50360930B0362
:1040400070930C0380930D0390930E03109256050A
:104050001092550597CB193409F051C0A4FC2FCD0F
:10406000A3FE48C08EEE95E00E94250D60E080E042
:104070000E94220C8091550590915605009729F0D9
:10408000019790935605809355059E012F5F3F4FF2
:10409000AE014E5F5F4FBE016D5F7F4F8091550552
:1040A000909156050E944A07882309F149816A8147
:1040B0008B810E94760E61E080E00E94220C80914C
:1040C0005505909156059E012F5F3F4FAE014E5F03
:1040D0005F4FBE016D5F7F4F01960E944A078823A4
:1040E00031F049816A818B810E94760E4BCB0E9410
:1040F000120C48CBA2FE46CB0E94910E43CB1B3440
:1041000009F068C0A7FE02C00C946929A4FC00CF86
:10411000A0FE27C010915505109316038FEF810F55
:104120008E3708F02FCB81E080930201809113013C
:1041300087FD09C00E943D0D41E0612F809117036A
:104140000E946E131FCB0E94FD02892B99F789EE06
:1041500093E00E942D0D8AE580931B0310921A03B1
:1041600011CB8091130187FF02C0A6FCF0CF809194
:104170001A03882309F406CBA3FE13C080915505CA
:104180009091560501979093560580935505892B7C
:1041900021F49092560580925505809155050E9414
:1041A0006618A2FEEFCA80915505909156050196BA
:1041B00090935605809355058F37910530F0EEE7C3
:1041C000F0E0F0935605E0935505809155050E9467
:1041D0006618D8CA1C3409F052C0A4FE0AC08091E7
:1041E000160390E090935605809355050E94791828
:1041F000C9CAA0FE11C00E94C202809155058093D9
:1042000002018091140390911503909356058093B9
:1042100055050E949E18B6CA80911A03882309F496
:10422000B1CAA7FC12C0809155059091560501971F
:10423000A3FC07C0A2FEA6CA809155059091560521
:10424000019690935605809355050E94C2021091E5
:1042500055051093020160E085E00E94220C62E0A7
:10426000812F90E00E94E30D0E943D0D40910201DC
:1042700060911603809117030E946E1383CA1D3448
:1042800009F05EC0A4FE03C00E94FE0E7BCAA0FE21
:1042900024C0809155059091560590931503809305
:1042A00014038091130390E0909356058093550575
:1042B00086EF93E00E942D0D8EE480931B0381E036
:1042C00080931A0380911303282F30E03093560512
:1042D000209355050E94540C55CA80911A038823D7
:1042E00009F450CAA3FE16C0809155059091560559
:1042F00001979093560580935505892B21F4909250
:1043000056058092550580915505909156050E945D
:10431000521838CAA2FE11C08091550590915605D9
:10432000019690935605809355058130984058F337
:104330005092560540925505E6CFA7FE23CAE3CF1B
:104340001E3409F083C0A4FE0BC080911403909129
:10435000150390935605809355050E949E1812CA26
:10436000A0FE45C08091550580931303833208F069
:1043700009CA10921A038EEE95E00E94250D60E0A6
:1043800080E00E94220C8091170363E090E00E947D
:10439000E30D8EE20E94160C8091160363E090E01C
:1043A0000E94E30D8AE30E94160C8091020162E0F4
:1043B00090E00E94E30D8DE30E94160C64E0809172
:1043C0001403909115030E94E30D61E080E00E94C8
:1043D000220C8091130362E090E00E94E30D80E0E4
:1043E00094E00E94F80B8FE480931B03CBC980916B
:1043F0001A03882309F4C6C9A3FE14C08091550589
:1044000090915605019790935605809355058F3FDF
:1044100021F41092560510925505809155050E9481
:10442000540CB0C9A2FEAEC98091550590915605B5
:1044300001969093560580935505839770F322E279
:1044400030E03093560520935505E7CF1F3409F02F
:1044500076C0A0FE19CFF0901303009114031091C1
:104460001503C0900201D0901603E090170361E09D
:1044700089E00E94210310921E0310921D0381E027
:104480000E94BB071092A5041092A6041092A704E4
:1044900032E23F1590F00115110579F04F2D50E0F3
:1044A000CA01880F991FFC01E40FF51FE25DFE4F62
:1044B00022812223C1F02130A1F1E092AA04D092FE
:1044C000A9044C2D440F4C0D4093A80401E0209109
:1044D000A7046D2D8E2D0E94DC1280E580931B03B6
:1044E0000E943D0D4FC90150110960E0840F951FD6
:1044F000FC01E25DFE4F80818093A704802F8F77BF
:104500008093A604000F012F001F110B11958181CC
:10451000080F80E2611101C080E0080F0093A5043C
:10452000CCCF980120953095622F61700150110910
:1045300021703327021B130B16950795D7CF113522
:1045400009F4A2CE1A3581F4A4FC9ECEA0FE1AC9AD
:104550008EE194E00E942D0D8FE094E00E94190DF1
:104560008BE580931B030EC91B3571F5A4FC8CCE23
:10457000A0FE08C98EE394E00E942D0D8DE294E028
:104580000E94190D8CE580931B0361E089E00E9475
:10459000210310921E0310921D0381E00E94BB07AD
:1045A0001092A8041092A7048091AA048093A604F4
:1045B0008091A9048093A50401E020E040E060E040
:1045C00080E00E94DC12DEC8143681F5A2FE13C022
:1045D00080915505909156050196909356058093CC
:1045E00055058038910520F010925605109255051A
:1045F0000E94350EC7C8A3FE16C080915505909144
:104600005605892B31F480E890E09093560580930D
:104610005505809155059091560501979093560543
:1046200080935505E5CFA4FEADC8D1CC1E3609F068
:1046300042C0A4FC04CAA0FE0BC080915505909115
:10464000560590931203809311030E940E199AC885
:1046500080911A03882309F495C8A3FE16C080919F
:1046600055059091560501979093560580935505F1
:10467000892B21F49092560580925505809155051D
:10468000909156050E9452187DC8A2FE11C08091DB
:1046900055059091560501969093560580935505C2
:1046A0008130984058F35092560540925505E6CF18
:1046B000A7FE68C8E3CF1F3609F058C0A4FC39CA6A
:1046C00010911A03A0FE20C080915505809310031D
:1046D0008EE594E00E942D0D80E780931B0361E03E
:1046E00080E00E94220C112319F08EE30E94160C28
:1046F00080910F03882329F08AE594E00E94F80B4B
:1047000041C886E594E0FACF112309F43BC8A3FE23
:104710001FC08091550590915605009729F001978B
:10472000909356058093550561E080E00E94220C2D
:104730008EE30E94160C82E40E94160C60915505CF
:104740007091560590E080E04AE00E94680D1AC81A
:10475000A2FE09C0809155059091560582309105C1
:1047600018F70196DDCFA7FE0DC8DECF103709F090
:104770005DC0A4FE04C00E940E190C94C21BA0FED2
:104780002CC00091100310910F0340EB400F612FDC
:1047900080911103909112030E94F8060111C9C97A
:1047A000112309F4C6C98091130180FFC2C9809109
:1047B000070190910801892B09F4BBC981E7809317
:1047C0001B030E94A50360930B0370930C0380935B
:1047D0000D0390930E030C94C21B80911A0388233F
:1047E00011F40C94C21BA3FE13C010920F0361E0DE
:1047F00080E00E94220C8EE30E94160C80910F0331
:10480000882389F087EA94E00E94F80B0C94C21B7D
:10481000A2FE04C081E080930F03E9CFA7FC02C091
:104820000C94C21BE4CF83EA94E0EECF183CE1F491
:10483000A2FE09C08FE894E00E942D0D82ED8093C6
:104840001B030C94C21BA4FCFFC8A1FC02C00C9467
:10485000C21B84E180931B038091030190910401AA
:104860000E9466170C94C21B123D59F5A3FC14C993
:10487000A2FE0FC080910A03882311F40C94C21B7E
:1048800081E794E00E942D0D87ED80931B030C942B
:10489000C21BA4FCD9C8A1FC02C00C94C21B83EDAE
:1048A00080931B0360E088E00E94220C80E20E945B
:1048B000160C70925605609255050E94BF180C9414
:1048C000C21B133D51F4A4FCB5CFA2FC02C00C9452
:1048D000C21B0E94BF180C94C21B173D79F5A3FCA4
:1048E00002C00C94C21BA6CF153041F500911D03E8
:1048F00010911E0380910001909101010817190782
:1049000071F0109301010093000161E080E00E94CA
:10491000220C812F0E94B60D802F0E94B60D80912F
:104920001B03803581F480911D0390911E03892B18
:1049300009F44DC00E94450D0C94C21B70920101F8
:1049400060920001ECCF823571F3833509F045C0E8
:104950000E94A50300910B0310910C0320910D03FD
:1049600030910E03601B710B820B930B693E7340F9
:1049700081059105D8F00E94A50360930B03709305
:104980000C0380930D0390930E0380915505909135
:1049900056059C012F5F3F4F3093560520935505D8
:1049A00061E00E94220C8EE20E94160C809123038B
:1049B000882311F40C94C21B89E480931B0370922A
:1049C0005605609255050E94910E0C94C21B809171
:1049D000AB0481110C94C21B57CC8C35F1F480913F
:1049E0001D0390911E03892B09F0A4CF8091AB0485
:1049F00081110C94C21B0E943D0D9092560580922D
:104A0000550581E08093020141E060911603809199
:104A100017030E946E130C94C21B843639F48091E4
:104A20000903882311F40C94C21BE2CD813769F588
:104A30000E94A50300910B0310910C0320910D031C
:104A400030910E03AB01BC01401B510B620B730B89
:104A50002091070130910801EAE0E29FC001E39F45
:104A6000900D1124B0E0A0E084179507A607B707C2
:104A700010F00C94C21B40EB60E080911103909108
:104A800012030E94F8060E94DE0E80911B03873DF0
:104A900011F00C94C21B80910A03882361F00E94DC
:104AA000D008182F882339F061E080E00E94220CA2
:104AB000812F0E94160C0E94FD02892B79F48091AF
:104AC000080381110BC081E08093080361E083E05B
:104AD0000E94220C8EE994E00E94F80B0E94FD02D5
:104AE000019711F00C94C21B80910803882311F4E4
:104AF0000C94C21B1092080361E083E00E94220C18
:104B000089E994E00E94F80B0C94C21B81E0809329
:104B100023030C94E71BAC3B09F406C3A03D09F446
:104B20000DC3A43BB9F47C33A9F480E090E0892B59
:104B300089F08CE30E9400000DC0880F991F22E0CD
:104B400030E065FD02C021E030E06071820F931F0C
:104B50000E94A9070091AC041091AD04C8010E9405
:104B60002206803109F0C7C2D8018C91853E09F038
:104B7000C2C214968C911497813009F0B8C0139674
:104B80002C91139780910501909106012817190621
:104B900009F0B1C21296FC9012978091AA04F81203
:104BA00065C0E090A9041A968C91B0E88B9F9001A3
:104BB0001124F80183858F77820FE81257C0868110
:104BC000813001F517818091A80418131BC08091D2
:104BD000AB04813009F022C31092AB040E94AD07F0
:104BE0009091A704891316C382E00E94BB0720910D
:104BF000A60441E0410F4093A80401E06E2D8F2DE3
:104C00000E94DC12E091AC04F091AD048681823008
:104C100009F06DC097818091A804981360C38091BA
:104C2000AB04883009F05BC31092AB04828590E03E
:104C30009C0146E0220F331F4A95E1F72078348526
:104C40003F77232B2093A70455E0880F991F5A958F
:104C5000E1F7807895859F77892B8093A6040E9441
:104C6000AD078093A50480E00E946C07C090AC045F
:104C7000D090AD04D60116968C918230C1F5F60124
:104C80008781811134C08091AB04803881F5F09028
:104C9000A404F7FCE4C28F2D90E08C01000F111FDB
:104CA000080F191F0C5D1C4F8285F0E28F9FC00119
:104CB00011248078D6011D969C919F77892BF8014D
:104CC00080830E94AD07D80111968C93F6018581EF
:104CD000F0E28F9FC00111248078D60118969C9134
:104CE0009F77892BF8018283F394F092A404E091DA
:104CF000AC04F091AD048481823009F0FCC12681BE
:104D000080910301909104012817190609F0DAC176
:104D1000278180911101909112012817190609F03D
:104D2000D1C1858190E09C01A4E0220F331FAA9598
:104D3000E1F72078A184E894A7F82A2930E0322FFF
:104D4000222715E0880F991F1A95E1F78078A08433
:104D5000E894A7F8A82AA20EB32EB11C650121E0A1
:104D6000C21AD108CC823C2D393058F479E0C79E64
:104D7000D0011124A956BE4F31E017968C91813095
:104D800009F030E083818130E9F589E0C816D1046B
:104D9000C8F5828590E063856F77AC015695542FF6
:104DA000442757954795262F240F332309F460C2D3
:104DB00036E0880F991F3A95E1F7807864856F7720
:104DC000862B682F70E0762F6627620F711D8C2D61
:104DD0000E94C313E091AC04F091AD048381806420
:104DE00083839C814FEF993030F4F601EE0FFF1F63
:104DF000ED5FFE4F4081E12C00E020E060E08A2D75
:104E00000E942312E091AC04F091AD0483818230C2
:104E1000B9F4A9E0CA16D10498F482E48383BC8172
:104E20004FEFB93030F4F601EE0FFF1FED5FFE4F8C
:104E30004081E12C00E020E060E08A2D0E942312F6
:104E4000E091AC04F091AD048381833009F04AC055
:104E500029E0C216D10408F045C0628570E0CB019C
:104E60009695982F882797958795992723852F774B
:104E7000280F392F311D16E0660F771F1A95E1F7BD
:104E80006078772784858F77682B8C81893008F04C
:104E9000F1C1F601EE0FFF1FED5FFE4F80819181A2
:104EA00026233723232B09F4E8C1682B792B8C2D7B
:104EB0000E94C313E091AC04F091AD04838180643F
:104EC00083839C814FEF993030F4F601EE0FFF1F82
:104ED000ED5FFE4F4081E12C00E020E060E08A2D94
:104EE0000E942312E091AC04F091AD0483818530DF
:104EF00009F080C0A9E0CA16D10408F07BC0828501
:104F000090E0BC01B6E0660F771FBA95E1F7162F67
:104F1000107864856F77162B9C0105E0220F331FF4
:104F20000A95E1F7207865856F77262B2D839C0104
:104F300044E0220F331F4A95E1F7207866856F77AA
:104F4000F22EF62A63856F779695982F8827979586
:104F50008795680F70E08C2D0E94C313EE24E394B4
:104F6000EC0C612F70E08E2D0E94C31302E00C0D3B
:104F7000BD816B2F70E0802F0E94C31313E01C0DC6
:104F80006F2D70E0812F0E94C313E091AC04F0916B
:104F9000AD04838180648383EC814FEFE93030F48A
:104FA000F601EE0FFF1FED5FFE4F4081F8E02FEF9F
:104FB000FE1538F0EE2DF0E0EE0FFF1FED5FFE4F17
:104FC0002081093008F05EC1E02FF0E0EE0FFF1FF6
:104FD000ED5FFE4F0081EE24EA94193038F4E12FA2
:104FE000F0E0EE0FFF1FED5FFE4FE08060E08A2DE6
:104FF0000E942312E091AC04F091AD0483818630CD
:10500000B1F529E0C216D10490F586E483833C8192
:105010004FEF393030F4F601EE0FFF1FED5FFE4F1A
:105020004081E1E0EC0D2FEFE93030F4F0E0EE0FDD
:10503000FF1FED5FFE4F2081E2E0EC0D0FEFE93046
:1050400030F4F0E0EE0FFF1FED5FFE4F0081E3E074
:10505000EC0DEE24EA94E93030F4F0E0EE0FFF1F9F
:10506000ED5FFE4FE08060E08A2D0E942312E09108
:10507000AC04F091AD048381883061F488E48383CB
:1050800040911101E42E0091030120E06DE08AE3DC
:105090000E942312E091AC04F091AD0483818F3023
:1050A00089F40E94C813E091AC04F091AD048381AF
:1050B00080648383E12C00E020E040E06B2D8A2DAA
:1050C0000E942312E091AC04F091AD04868181111D
:1050D00012C0878181110FC08381873061F487E41A
:1050E000838340911101E42E0091030120E06DE0E3
:1050F0008AE30E94231280E090E0892B11F40C9443
:10510000151B0E9400000C94121B80E090E0892B7C
:1051100009F420CD81E00E9400001CCD462F407292
:1051200060710E947C0716CD20E030E0232B09F44B
:1051300011CD407260710E9400000CCD707670320B
:1051400021F07036C1F1711105CD80E090E0892B1E
:1051500009F400CDC9019695982F882797958795D2
:1051600080789F70840F951FA5E035952795AA95A7
:10517000E1F72170019633814481E42FF0E0AF0123
:105180003D3731F070E8379FA00111244E0F5F1FAB
:105190006F7081F1623081F1643081F1663081F1AC
:1051A000683081F16A3081F16C3081F16E3081F1CB
:1051B0000E940000CFCC80E090E0892B09F4CACC9B
:1051C0000381802F807D803109F0C4CCE480FF24EE
:1051D000F39411E041E0802F8F2109F040E02E2D63
:1051E0002F21FF0C612F80E80E9400001F5F153007
:1051F00089F7B0CC61E4DCCF62E4DACF63E4D8CFE6
:1052000064E4D6CF65E4D4CF66E4D2CF67E4D0CFF0
:1052100068E4CECF81E00E946C07F4CC823081F448
:105220001092AB040E94AD079091A604891306C0AA
:1052300083E00E94BB072091A504DBCC82E0EBCF8A
:10524000833009F0DFCC1092AB040E94AD0790913F
:10525000A504891302C080E0DECF84E0DCCF81E0CA
:10526000809323031092AB0480E00E946C073FCD33
:1052700080E0A7CD8FEF9FEF13CE609570956823E8
:10528000792315CE0FEFA7CE8FEF9FEF0E94661701
:1052900061E08AE00E94220C8BEA94E00E94F80B05
:1052A00061E0809118030E94220C0C94C21B78E0EC
:1052B0007B1550F3F12C0C94BB1D163411F40C9497
:1052C0007F1F173411F00C94E21FA7FC02C00C944E
:1052D0008B1F809155050E9466180C94C21B6F01AC
:1052E000CECC8091E7059091E805009711F00E94DF
:1052F000A72A8091E1059091E205009711F00C94A6
:10530000A72A0895F999FECF92BD81BDF89A9927F1
:1053100080B50895262FF999FECF1FBA92BD81BDA1
:1053200020BD0FB6F894FA9AF99A0FBE0196089527
:105330002F923F924F925F926F927F928F929F92A5
:10534000AF92BF92CF92DF92EF92FF920F931F9393
:10535000CF93DF93CDB7DEB7CA1BDB0B0FB6F89444
:10536000DEBF0FBECDBF09942A88398848885F8484
:105370006E847D848C849B84AA84B984C884DF80F5
:10538000EE80FD800C811B81AA81B981CE0FD11DD9
:105390000FB6F894DEBF0FBECDBFED010895AA1B76
:1053A000BB1B51E107C0AA1FBB1FA617B70710F010
:1053B000A61BB70B881F991F5A95A9F78095909542
:1053C000BC01CD010895A1E21A2EAA1BBB1BFD0151
:1053D0000DC0AA1FBB1FEE1FFF1FA217B307E407D4
:1053E000F50720F0A21BB30BE40BF50B661F771F2C
:1053F000881F991F1A9469F760957095809590950C
:105400009B01AC01BD01CF010895EE0FFF1F059078
:10541000F491E02D09940F931F93CF93DF93823083
:10542000910510F482E090E0E0914106F09142068F
:1054300030E020E0B0E0A0E0309799F4211531058C
:1054400009F44AC0281B390B24303105D8F58A816C
:105450009B816115710589F1FB0193838283FE01B4
:1054600011C0408151810281138148175907E0F032
:105470004817590799F4109761F012960C931297F8
:1054800013961C933296CF01DF91CF911F910F910C
:1054900008950093410610934206F4CF211531057B
:1054A00051F04217530738F0A901DB019A01BD0101
:1054B000DF01F801C1CFEF01F9CF9093420680934D
:1054C0004106CDCFFE01E20FF31F8193919322504D
:1054D000310939832883D7CF20913F063091400688
:1054E000232B41F42091180130911901309340068B
:1054F00020933F06209116013091170121153105A7
:1055000041F42DB73EB740911A0150911B01241B65
:10551000350BE0913F06F0914006E217F307A0F447
:105520002E1B3F0B2817390778F0AC014E5F5F4FF9
:105530002417350748F04E0F5F1F509340064093E5
:105540003F06819391939FCFF0E0E0E09CCFCF9313
:10555000DF930097E9F0FC01329713821282A09149
:105560004106B0914206ED0130E020E01097A1F431
:1055700020813181820F931F20913F063091400698
:105580002817390709F061C0F0934006E0933F0601
:10559000DF91CF910895EA01CE17DF07E8F54A8140
:1055A0005B819E0141155105B1F7E901FB83EA8357
:1055B00049915991C40FD51FEC17FD0761F4808103
:1055C00091810296840F951FE901998388838281D6
:1055D00093819B838A83F0E0E0E012968D919C9109
:1055E00013970097B9F52D913C911197CD01029633
:1055F000820F931F20913F063091400628173907EC
:1056000039F6309751F51092420610924106B09348
:105610004006A0933F06BCCFD383C2834081518113
:10562000840F951FC817D90761F44E5F5F4F8881BB
:105630009981480F591F518340838A819B819383AD
:1056400082832115310509F0B0CFF0934206E09333
:1056500041069ECFFD01DC01C0CF13821282D7CF5D
:10566000B0E0A0E0E6E3FBE20C949A298C010097FD
:1056700051F4CB010E940B2A8C01C801CDB7DEB7D3
:10568000E0E10C94B629FC01E60FF71F9C012250C3
:105690003109E217F30708F49DC0D901CD91DC91DF
:1056A0001197C617D70798F0C530D10530F3CE0152
:1056B00004978617970708F3C61BD70B2297C19349
:1056C000D1936D937C93CF010E94A72AD6CF5B0123
:1056D000AC1ABD0A4C018C0E9D1EA0914106B091E2
:1056E0004206512C412CF12CE12C109731F5809180
:1056F0003F06909140068815990509F05CC0461652
:10570000570608F058C08091160190911701009734
:1057100041F48DB79EB740911A0150911B01841B33
:10572000950BE817F90708F055C0F0934006E09391
:105730003F06F90171836083A0CF8D919C911197F1
:1057400012966C90129713967C901397A815B90532
:1057500059F56C0142E0C40ED11CCA14DB0420F1DF
:10576000AC014A195B09DA011296159780F0628242
:10577000738251834083D9016D937C93E114F104CA
:1057800071F0D7011396FC93EE93129776CF229681
:105790008C0F9D1FF90191838083F301EFCFF0936C
:1057A0004206E093410669CF4816590608F42C01D9
:1057B0007D01D3019ACFCB010E940B2A7C01009777
:1057C00049F0AE01B8010E94ED2BC8010E94A72A42
:1057D000870153CF10E000E050CFFB01DC0102C095
:1057E00001900D9241505040D8F7089568177907FD
:1057F00068F4FB01DC01E40FF51FA40FB51F02C024
:1058000002900E9241505040D8F708950C94ED2B21
:10581000FB01DC0101900D920020E1F7089512E0F8
:10582000CBE8D2E004C0FE010E94052A2196CC38C4
:08583000D107C9F7F894FFCF7E
:10583800FFFF01FFFFFFFFFFFFFFFFFFFFFFFFFF6E
:10584800FFFFFFFFFF390000430680000000400013
:105858001400540001000A006400E80310271F1018
:10586800011B10015F00015B00010F100007100011
:105878002F10012710016F00016700011770003712
:105888007000376000C00001D00001811000911045
:1058980000A11000B11000801000901000A01000AE
:1058A800B01000813000913000A13000B13000808C
:1058B8003000903000A03000B030008820008C20EC
:1058C800008800008C000000500001007E000000ED
:1058D80001500001007E000000020A000000FF00E5
:1058E80000000300000000000000010400000000A8
:1058F800000000010500000000000000010609008A
:105908000000090000000706000600060000010864
:1059180000000000FF000200313233410034353608
:10592800420037383943002A302344001000200051
:1059380040008000FE00FD00FB00F70000000000B2
:1059480099056C05F70742056505520543050000F2
:0C5958000000F20BB103F707F607000097
:00000001FF
